:020000040000FA
:1000000071EF34F0C96E120079EF2FF093EC30F0FD
:100010003FEC2DF0FDD71200CFEF32F0D9CFE5FF46
:10002000E1CFD9FF00C0E5FF01C0E5FF02C0E5FF59
:1000300003C0E5FF04C0E5FF05C0E5FF06C0E5FF1E
:1000400007C0E5FF08C0E5FF09C0E5FF0AC0E5FFFE
:100050000BC0E5FF0CC0E5FF0DC0E5FF0EC0E5FFDE
:100060000FC0E5FF10C0E5FF11C0E5FF12C0E5FFBE
:1000700013C0E5FF14C0E5FF15C0E5FF16C0E5FF9E
:1000800017C0E5FF18C0E5FF19C0E5FF1AC0E5FF7E
:100090001BC0E5FF1CC0E5FF1DC0E5FF1EC0E5FF5E
:1000A0001FC0E5FF20C0E5FF21C0E5FF22C0E5FF3E
:1000B00023C0E5FF24C0E5FF25C0E5FF020EDBCF2E
:1000C00000F0030EDBCF01F0040EDBCF02F0025094
:1000D000086E0150076E0050066EE56A100EE56E60
:1000E0000850E56E0750E56E0650E56E800EE56E31
:1000F000040EE56EE80EE56E51EC26F0080EE126E2
:10010000F0C403F0F1C404F0F2C405F0F3C406F047
:1001100003C007F004C008F005C009F006C00AF0EB
:10012000D8800AAED8900AE30A1E091E081E076C82
:1001300005E1082A03E1092AD8B40A2AE8C40BF029
:10014000E9C40CF0E86A0401E9BFFF0E0D6E0E6E03
:10015000D890EC31106EEB310F6ED89010320F3218
:10016000ED51E840E840C00B1012ED41E8403F0B74
:10017000E8BAC009116E126A11BE12680F500B5C0A
:100180000F6E10500C58106E11500D58116E125009
:100190000E58126E800F810F08E1FF0E115C05E111
:1001A000FF0E105C02E1FE0E0F5CD8A04ED0125084
:1001B000800F800F08E1000E115C05E1000E105C5D
:1001C00002E1030E0F5CD8B040D00A340A30166E3C
:1001D0000930156E0830146E0730136EF6C417F030
:1001E000F7C418F0E86A0401F7BFFF0E196E800F1C
:1001F000F36E1650800FF35C08E11550195C05E1B1
:100200001450185C02E11350175C1FE30C50156E7C
:1002100015260D34166ED890153616360B44E84464
:10022000FC0B146E0B50E844E844030B1512040158
:10023000EA6B1450EB6F1550EC6F1650ED6FF06BCE
:10024000F16BF26BF36BB0EF04F00850076E0950DE
:10025000086ED89008320732D890083207320A5018
:10026000E840E840C00B08120A40E8403F0BE8BAFB
:10027000C0090A6A083408300A6E0730096EE86A55
:100280000ABEFF0E0B6E0C6E07C00DF008C00EF01C
:10029000E86A08BEFF0E136EE56E1350E56E0E5051
:1002A000E56E0D50E56E0C50E56E0B50E56E0A5094
:1002B000E56E0950E56E2EEC1EF0096EF3CF0AF0E4
:1002C000F4CF0BF0E9CF0CF0080EE126F6C40DF0E8
:1002D000F7C40EF0E86A0401F7BFFF0E136E146E48
:1002E000E56E1350E56E0E50E56E0D50E56E0C5048
:1002F000E56E0B50E56E0A50E56E0950E56E16ECA2
:1003000021F0096EF3CF0AF0080EE126EEC40BF0DF
:10031000EFC40CF0E86A0401EFBFFF0E156E0C503D
:10032000196E192615341A6ED89019361A360B44E0
:10033000E844FC0B186E0B50E844E844030B191218
:10034000176AD88006AED890D8B064D109C00BF037
:100350000AC00CF0E86A0ABEFF0E156E800FF36E3D
:100360001250800FF35C08E11150155C05E110504C
:100370000C5C02E10F500B5CD8B024D10650800F0A
:10038000F36E1A50800FF35C08E11950055C05E12B
:100390001850045C02E11750035CD8B0ECD0F4C4F0
:1003A0000BF0F5C40CF0E86A0401F5BFFF0E156E02
:1003B000166E03500B2604500C22055015220650D1
:1003C00016220B500401F06F0C50F16F1550F26FB4
:1003D0001650F36FF6C40BF0F7C40CF0F4C415F02C
:1003E000F5C416F00C50800FF36E1650800FF35CBE
:1003F00002E115500B5CD8B0A2D0F0C41BF0F1C4E0
:100400001CF0F2C41DF0F3C41EF0D8901D30206E15
:100410001C301F6ED89020321F321E50E840E8403A
:10042000C00B20121E40E8403F0BE8BAC009226A08
:100430001F50076E2050086E08340830206E0730B9
:100440001F6EE86A20BEFF0E216E226E07C023F0E9
:1004500008C024F0E86A08BEFF0E256EE56E255040
:10046000E56E2450E56E2350E56E2250E56E215076
:10047000E56E2050E56E1F50E56E2EEC1EF01F6EEF
:10048000F3CF20F0F4CF21F0E9CF22F0080EE126DF
:100490000BC023F00CC024F0E86A0CBEFF0E256EE2
:1004A000E56E2550E56E2450E56E2350E56E225032
:1004B000E56E2150E56E2050E56E1F50E56E16EC9E
:1004C00021F01F6EF3CF20F0080EE1261F50096EB9
:1004D00020500A6E09C01FF00AC020F0E86A0ABE68
:1004E000FF0E216E226E1250800FF36E2250800F8D
:1004F000F35C08E12150115C05E12050105C02E141
:100500001F500F5C1CE20B50155C0B6E0C50165804
:100510000C6EE86A0CBEFF0E156E166E0B501B5E5D
:100520000C501C5A15501D5A16501E5A1B500401CF
:10053000F06F1C50F16F1D50F26F1E50F36F1A5088
:10054000800FF36E0401F351800FF35C08E1F25168
:10055000195C05E1F151185C02E1F051175CD8B06B
:10056000D8D117500401F06F1850F16F1950F26F85
:100570001A50F36FCED11A50800FF36E0650800FD1
:10058000F35C08E10550195C05E10450185C02E1D8
:100590000350175CD8B0BDD10D50035C0B6E0E50EC
:1005A00004580C6E13500558156E14500658166EEC
:1005B0000B500401F06F0C50F16F1550F26F165094
:1005C000F36FA7D1F4C40BF0F5C40CF0E86A040192
:1005D000F5BFFF0E156E166E0D500B260E500C2239
:1005E00013501522145016220B50035C0B6E0C5046
:1005F00004580C6E15500558156E16500658166E98
:100600000B500401F06F0C50F16F1550F26F165043
:10061000F36F7FD10A1E096CD8B40A2A09C00BF007
:100620000AC00CF0E86A0ABEFF0E156E166E125074
:10063000800FF36E1650800FF35C08E11550115CCB
:1006400005E10C50105C02E10B500F5CD8B03ED1BC
:100650001A1C166E191C156E181C0C6E171C0B6ECE
:100660000B2A04E10C2A02E1154A162A1650800FC3
:10067000F36E0650800FF35C08E10550155C05E150
:1006800004500C5C02E103500B5CD8B0F8D0F4C409
:1006900017F0F5C418F0E86A0401F5BFFF0E196EF3
:1006A0001A6E1750035C176E18500458186E1950C4
:1006B0000558196E1A5006581A6E17500401F06F3B
:1006C0001850F16F1950F26F1A50F36FF6C417F00B
:1006D000F7C418F0F4C419F0F5C41AF01850800FDC
:1006E000F36E1A50800FF35C02E11950175CD8B01A
:1006F000AAD0F0C41BF0F1C41CF0F2C41DF0F3C486
:100700001EF0D8901D30206E1C301F6ED890203205
:100710001F321E50E840E840C00B20121E40E84047
:100720003F0BE8BAC009216E226A21BE2268221E50
:10073000211E201E1F6C05E1202A03E1212AD8B4C6
:10074000222A1F50076E2050086E08340830206E91
:1007500007301F6EE86A20BEFF0E216E226EE86A27
:1007600008BEFF0E236EE56E2350E56E0850E56E61
:100770000750E56E2250E56E2150E56E2050E56E83
:100780001F50E56E2EEC1EF0076EF3CF08F0F4CF8D
:100790001FF0E9CF20F0080EE12617C021F018C0A5
:1007A00022F0E86A18BEFF0E236EE56E2350E56E58
:1007B0002250E56E2150E56E2050E56E1F50E56E2B
:1007C0000850E56E0750E56E16EC21F0076EF3CF8A
:1007D00008F0080EE126081E076C02E1082A00E175
:1007E0000750096E08500A6EE86A0ABEFF0E076ECF
:1007F000800FF36E1250800FF35C08E11150075C1C
:1008000005E110500A5C02E10F50095C1CE2175030
:10081000195C176E18501A58186EE86A18BEFF0E49
:10082000076E086E17501B2618501C2207501D22F9
:1008300008501E221B500401F06F1C50F16F1D5018
:10084000F26F1E50F36F0401F351800FF36E1650D8
:10085000800FF35C08E11550F25D05E10C50F15D8D
:1008600002E10B50F05DD8B054D00B500401F06F92
:100870000C50F16F1550F26F1650F36F4AD00650BE
:10088000800FF36E1650800FF35C08E11550055C85
:1008900005E10C50045C02E10B50035CD8B039D088
:1008A0000D500324076E0E500420086E13500520CF
:1008B000096E145006200A6E07500401F06F0850AC
:1008C000F16F0950F26F0A50F36F23D0F4C407F0B0
:1008D000F5C408F0E86A0401F5BFFF0E096E0A6E60
:1008E00007500D2608500E22095013220A501422D8
:1008F0000D5003260E5004221350052214500622D8
:1009000003500401F06F0450F16F0550F26F065070
:10091000F36FD8900401F231046EF131036ED89078
:1009200004320332F351E840E840C00B0412F341B3
:10093000E8403F0BE8BAC009056E066A05BE0668C6
:10094000EA510326EB510422EC510522ED51062217
:100950000350EA6F0450EB6F0550EC6F0650ED6FDB
:10096000E56A100EE56E800EE56E040EE56EE80E8B
:10097000E56E0250E56E0150E56E0050E56E51ECFB
:1009800026F0080EE126E4CF25F0E4CF24F0E4CFF2
:1009900023F0E4CF22F0E4CF21F0E4CF20F0E4CF45
:1009A0001FF0E4CF1EF0E4CF1DF0E4CF1CF0E4CF45
:1009B0001BF0E4CF1AF0E4CF19F0E4CF18F0E4CF45
:1009C00017F0E4CF16F0E4CF15F0E4CF14F0E4CF45
:1009D00013F0E4CF12F0E4CF11F0E4CF10F0E4CF45
:1009E0000FF0E4CF0EF0E4CF0DF0E4CF0CF0E4CF45
:1009F0000BF0E4CF0AF0E4CF09F0E4CF08F0E4CF45
:100A000007F0E4CF06F0E4CF05F0E4CF04F0E4CF44
:100A100003F0E4CF02F0E4CF01F0E4CF00F0E4CF44
:100A2000D9FF1200D9CFE5FFE1CFD9FF00C0E5FF24
:100A300001C0E5FF02C0E5FF03C0E5FF04C0E5FF1C
:100A400005C0E5FF06C0E5FF07C0E5FF08C0E5FFFC
:100A500009C0E5FF0AC0E5FF0BC0E5FF0CC0E5FFDC
:100A60000DC0E5FF0EC0E5FF0FC0E5FF10C0E5FFBC
:100A700011C0E5FF12C0E5FF13C0E5FF14C0E5FF9C
:100A800015C0E5FF16C0E5FF17C0E5FF18C0E5FF7C
:100A900019C0E5FF1AC0E5FF1BC0E5FF1CC0E5FF5C
:100AA0001DC0E5FF1EC0E5FF020EDBCF00F0030E08
:100AB000DBCF01F0040EDBCF02F0050EDBCF03F03D
:100AC000060EDBCF04F0070EDBCF05F0080EDBCF00
:100AD00006F0090EDBCF07F00A0EDBCF08F0096A3B
:100AE0000A6A02C00DF00D50800A0DE102500101AA
:100AF000646F0150636F0050626F010E016E620EF1
:100B0000006E800E026E03C0E9FF04C0F3FF0550C3
:100B1000AAEC34F00B6E0B50D8B400EF09F00B5078
:100B2000250A02E0E7EF08F00C6A0D6A0E6A0F6A08
:100B3000106A0A0E116E126A136A146A200E156E7C
:100B40001668176A2B0E186E032A02E3044A052A58
:100B500003C0E9FF04C0F3FF0550AAEC34F0196E9E
:100B6000250A13E11950E56E0250E56E0150E56E5D
:100B70000050E56EC8EC25F0040EE126094A0A2A69
:100B8000032A02E3044A052ABED71950300A06E1B7
:100B9000300E156E032A02E3044A052A03C0E9FF5A
:100BA00004C0F3FF0550AAEC34F02D0A06E1010E53
:100BB000146E032A02E3044A052A03C0E9FF04C0B5
:100BC000F3FF0550AAEC34F0200A08E1010E176E7D
:100BD000200E186E032A02E3044A052A03C0E9FF27
:100BE00004C0F3FF0550AAEC34F02B0A06E1010E15
:100BF000176E032A02E3044A052A03C0E9FF04C072
:100C0000F3FF0550AAEC34F0196E800F4F0F2DE35F
:100C10001950800F460F29E203C019F004C01AF0E2
:100C200005C01BF019C0E9FF1AC0F3FF1B50AAEC66
:100C300034F01C6E800F500F12E31C50800F460FD3
:100C40000EE213500A0DF3CF1DF01D501C26D00EDE
:100C50001C24136E192A02E31A4A1B2AE3D719C06F
:100C600003F01AC004F01BC005F003C0E9FF04C084
:100C7000F3FF0550AAEC34F02E0A2EE1032A02E31A
:100C8000044A052A166A03C019F004C01AF005C008
:100C90001BF019C0E9FF1AC0F3FF1B50AAEC34F097
:100CA0001C6E800F500F12E31C50800F460F0EE297
:100CB00016500A0DF3CF1DF01D501C26D00E1C241B
:100CC000166E192A02E31A4A1B2AE3D719C003F049
:100CD0001AC004F01BC005F003C0E9FF04C0F3FF15
:100CE0000550AAEC34F0196E6C0A07E1010E0C6E87
:100CF000032A02E3044A052A09D01950680A06E1CA
:100D0000010E0E6E032A02E3044A052A03C0E9FF1E
:100D100004C0F3FF0550AAEC34F0750A06E1010E99
:100D2000106E032A02E3044A052A03C0E9FF04C047
:100D3000F3FF0550AAEC34F0196E730A05E1010EB9
:100D40000D6E200E156E3FD01950780A03E1100E7B
:100D5000116E39D01950580A05E1100E116E010EAE
:100D6000126E31D01950630A02E1116A2CD0195069
:100D70006F0A03E1080E116E26D01950660A03E1CE
:100D8000010E0F6E20D01950640A1DE01950690A37
:100D90001AE0105005E0FF0E03260422052213D0AE
:100DA0001950E56E0250E56E0150E56E0050E56E9B
:100DB000C8EC25F0040EE126094A0A2A032A02E3B8
:100DC000044A052AA0D60D5021E00650030F0D6EEF
:100DD000000E0720196E000E08201A6E0DC006F0D6
:100DE00019C007F01AC008F0FD0E0D26FF0E1922DB
:100DF0001A220DC0E9FF19C0F3FF1A506EEC33F050
:100E00000D6EF3CF19F0F4CF1AF032D10F50D8B4E1
:100E10003ED00650040F0F6E000E07201B6E000E12
:100E200008201C6E0FC006F01BC007F01CC008F0A5
:100E3000FC0E0F26FF0E1B221C220FC0E9FF1BC059
:100E4000F3FF1C50F4EC32F00F6EF3CF1BF0F4CF35
:100E50001CF0E9CF1DF0040E196E000E0D6E800E11
:100E60001A6E1650E56E240EE56E040EE56E000E49
:100E7000E56E1D50E56E1C50E56E1B50E56E0F5083
:100E8000E56E1CEC1DF0080EE1261668F1D0166820
:100E90000C5023E00650040F0C6E000E07200F6E5E
:100EA000000E08201B6E0CC006F00FC007F01BC020
:100EB00008F0FC0E0C26FF0E0F221B220CC0E9FFCF
:100EC0000FC0F3FF1B50F4EC32F00C6EF3CF0FF0B9
:100ED000F4CF1BF0E9CF1CF06AD00E5032E0065080
:100EE000020F0E6E000E07201D6E000E08201E6EF3
:100EF0000EC006F01DC007F01EC008F0FE0E0E2644
:100F0000FF0E1D221E220EC0E9FF1DC0F3FF1E5062
:100F100045EC34F00E6E0EC00CF0E86A0EBEFF0E0B
:100F20000F6E1B6E1C6E11500A0A03E11050D8B4EC
:100F30003ED00C500E6E0EC00CF00F6A1B6A1C6A7D
:100F400036D00650020F0E6E000E07201D6E000EEA
:100F500008201E6E0EC006F01DC007F01EC008F06F
:100F6000FE0E0E26FF0E1D221E220EC0E9FF1DC022
:100F7000F3FF1E5045EC34F00E6EF3CF1DF00EC0A3
:100F80000CF01DC00FF0E86A1DBEFF0E1B6E1C6E3C
:100F900011500A0A02E110500AE00C500E6E0F5078
:100FA0001D6E0EC00CF01DC00FF01B6A1C6A040EF3
:100FB000196E010E0D6E800E1A6E1150D8B440D00D
:100FC000105013E01150E56E040EE56E010EE56E53
:100FD0001C50E56E1B50E56E0F50E56E0C50E56E33
:100FE0003AEC20F0070EE12612D01150E56E040E07
:100FF000E56E010EE56E1C50E56E1B50E56E0F5060
:10100000E56E0C50E56EE6EC29F0070EE126175070
:101010002FE00DC0E9FF19C0F3FF1A50AAEC34F01D
:101020002D0A26E0FF0E0D2619221A2218C0E5FF10
:101030000DC0E9FF19C0F3FF1A5038EC35F018D095
:101040000CC0E5FF0DC0E9FF19C0F3FF1A5038ECE2
:1010500035F00D50010F0C6E000E19200E6E000EB3
:101060001A20E56A0CC0E9FF0EC0F3FF38EC35F03A
:101070000DC00CF019C00EF01AC00FF013C010F024
:10108000105010E00CC0E9FF0EC0F3FF0F50AAECA7
:1010900034F0176E175006E00C2A02E30E4A0F2AAE
:1010A0001006EED710C013F014501EE109C00CF06A
:1010B0000AC00EF010C00FF00F5010E01550E56E92
:1010C0000250E56E0150E56E0050E56EC8EC25F06B
:1010D000040EE1260C4A0E2A0F06EED70CC009F0CA
:1010E0000EC00AF00FC013F016C00CF00DC00DF0CA
:1010F00019C00EF01AC00FF009C010F00AC015F0A8
:101100000DC0E9FF0EC0F3FF0F50AAEC34F0166ECD
:101110001650D8B43ED00CC016F0176A161E171E13
:101120001650171005E00CC016F00C06165031E0F2
:101130000DC0E9FF0EC0F3FF0F50AAEC34F0116EA2
:10114000125010E01150E56E02EC34F0166EE652CB
:10115000165004E01150166E169A02D011C016F007
:1011600016C011F01150E56E0250E56E0150E56EAB
:101170000050E56EC8EC25F0040EE1260D2A02E3CE
:101180000E4A0F2A104A152A1350D8B4B9D713069D
:10119000B7D710C009F015C00AF014502BE010C0EA
:1011A0000CF015C00DF013C00EF00E501FE0200E15
:1011B000E56E0250E56E0150E56E0050E56EC8EC3C
:1011C00025F0040EE1260C4A0D2A0E06EED70B5030
:1011D000E56E0250E56E0150E56E0050E56EC8EC1C
:1011E00025F0040EE126094A0A2A04D00CC009F0B1
:1011F0000DC00AF0032A02E3044A052A83EF05F032
:101200000AC0F3FF0950E4CF1EF0E4CF1DF0E4CF95
:101210001CF0E4CF1BF0E4CF1AF0E4CF19F0E4CFD8
:1012200018F0E4CF17F0E4CF16F0E4CF15F0E4CFD8
:1012300014F0E4CF13F0E4CF12F0E4CF11F0E4CFD8
:1012400010F0E4CF0FF0E4CF0EF0E4CF0DF0E4CFD8
:101250000CF0E4CF0BF0E4CF0AF0E4CF09F0E4CFD8
:1012600008F0E4CF07F0E4CF06F0E4CF05F0E4CFD8
:1012700004F0E4CF03F0E4CF02F0E4CF01F0E4CFD8
:1012800000F0E4CFD9FF1200D9CFE5FFE1CFD9FFBD
:1012900000C0E5FF01C0E5FF02C0E5FF03C0E5FFB8
:1012A00004C0E5FF05C0E5FF06C0E5FF07C0E5FF98
:1012B00008C0E5FF09C0E5FF0AC0E5FF0BC0E5FF78
:1012C0000CC0E5FF0DC0E5FF020EDBCF00F0030E02
:1012D000DBCF01F0040EDBCF02F00050090F066EE9
:1012E000000E0120076E000E0220086E0B6E0750E4
:1012F0000A6E0650096EE56A0D0EE56E0B50E56E3E
:101300000A50E56E0950E56E800EE56E010EE56E41
:10131000200EE56E51EC26F0080EE12600C009F023
:1013200001C00AF002C00BF0E56AE56E0B50E56EF5
:101330000A50E56E0950E56E800EE56E040EE56E0E
:10134000810EE56E51EC26F0080EE12681C403F013
:101350000350010A04E00350030A01E01FD1010118
:1013600028510101355D036E0101295101013659F2
:10137000046E01012A510101375901012B5101016C
:101380003859035001016D6F04506E6F01013551E2
:101390000101286F010136510101296F0101375107
:1013A00001012A6F0101385101012B6F01016D51BB
:1013B0006E11D8A47FD0B9EC31F0036EF3CF04F0F6
:1013C000F4CF05F0E9CF09F001012D510A6E2E513D
:1013D0000B6E2F510C6E30510D6E0A50035E0B5088
:1013E000045A0C50055A0D50095A03500A01F56F62
:1013F0000450F66F0550F76F7F0E0914F86F010166
:101400002CB125D00A01F635F831046EF731036EA0
:10141000043404320332000E04BEFF0E096E056E62
:1014200086C40AF00B6A0C6A0D6A0D50800FF36EC9
:101430000950800FF35C08E105500C5C05E1045095
:101440000B5C02E103500A5C02E201012C81010104
:101450002CB14AD024C103F025C104F026C105F007
:1014600027C109F00A01F851800FF36E0950800F6F
:10147000F35C08E10550F75D05E10450F65D02E11B
:101480000350F55D08E203C0F5FA04C0F6FA05C0A2
:10149000F7FA09C0F8FA010139A303D0010E036E6F
:1014A00001D0036803C06DF101016E6B03AE01D082
:1014B0006E691AD001012C9131C1F5FA32C1F6FAE8
:1014C00033C1F7FA34C1F8FA0A01F5510101246F6A
:1014D0000A01F6510101256F0A01F7510101266F3A
:1014E0000A01F8510101276F0A01F851800F800F9E
:1014F00008E1000EF75D05E1000EF65D02E1010E68
:10150000F55D06E20A01F96BFA6BFB6BFC6B46D0EA
:101510000A01F551036EF651046EF751056EF8514C
:10152000E56E0550E56E0450E56E0350E56E010E64
:10153000E56E000EE56AE56AE56AB3EC24F0036E39
:10154000F3CF04F0F4CF05F0E9CF09F0080EE1265F
:101550006DC10AF06EC10BF0E86A01016EBFFF0EAB
:101560000C6E0D6E0950E56E0550E56E0450E56E8B
:101570000350E56E0D50E56E0C50E56E0B50E56EB8
:101580000A50E56E2EEC1EF00A01F96FF3CFFAFA5D
:10159000F4CFFBFAE9CFFCFA080EE126020E0401B3
:1015A000815DD8A045D1010139A142D10050230F5E
:1015B000036E000E0120046E000E0220E56E045042
:1015C000E56E0350E56E0EEC00F0030EE1260050D0
:1015D000230F036E000E0120046E000E0220056E24
:1015E000020E0326000E0422052203C0E9FF04C0F8
:1015F000F3FF0550F4EC32F0F3CF04F0F4CF05F034
:10160000E9CF09F00450036E0550046ED8900432FF
:101610000332D890043203320950E840E840C00B4E
:1016200004120940E8403F0BE8BAC009056E096A98
:1016300005BE096801013551035C01013A6F0101E2
:101640003651045801013B6F010137510558010122
:101650003C6F01013851095801013D6FD8803DAF01
:10166000D89022E30401831D046E821D036E034A99
:10167000042AE86A04BEFF0E056E096E01013D51A1
:10168000800FF36E0950800FF35C08E105503C5D5C
:1016900005E104503B5D02E103503A5D05E30101C1
:1016A0003A6B3B6B3C6B3D6B01013D51800F800FF2
:1016B00008E1000E3C5D05E1000E3B5D02E1010E1C
:1016C0003A5D1EE382C403F083C404F0E86A0401B7
:1016D00083BFFF0E056E800FF36E01013D51800F39
:1016E000F35C08E13C51055C05E13B51045C02E11F
:1016F0003A51035C05E301013A6B3B6B3C6B3D6B7C
:101700000401875109E0E86CD89001013A373B3772
:101710003C373D37010FF9E301013D51800F800F48
:1017200008E1000E3C5D05E1800E3B5D02E1000E2C
:101730003A5D07E301013A697F0E3B6F3C6B3D6BFD
:1017400014D001013D51800F810F08E1FF0E3C5D77
:1017500005E1800E3B5D02E1000E3A5D06E201010B
:101760003A6B800E3B6F3C693D690050330F036E4E
:10177000000E0120046E000E0220056E01013A5198
:10178000096E3B51E56E0950E56E0550E56E04505B
:10179000E56E0350E56EA6EC12F0050EE12604019D
:1017A0008151030A23E10050330F036E000E012024
:1017B000046E000E0220056E0B0E0326000E04229E
:1017C000052203C0E9FF04C0F3FF0550F4EC32F03A
:1017D000F3CF04F0F4CF05F00450036E0550046E0F
:1017E00003500101206F0450216F22D00050330FAD
:1017F000036E000E0120046E000E0220056E0B0E1B
:101800000326000E0422052203C0E9FF04C0F3FFF3
:101810000550F4EC32F0F3CF04F0F4CF05F00450AF
:10182000036E0550046E03500101226F0450236FB4
:1018300081C403F00350010A04E00350030A01E0ED
:101840007DD020C103F021C104F0E86A010121BF6D
:10185000FF0E056E096E0A01F951035C01013A6F32
:101860000A01FA51045801013B6F0A01FB51055866
:1018700001013C6F0A01FC51095801013D6F800FC5
:10188000800F08E1000E3C5D05E1800E3B5D02E14A
:10189000000E3A5D07E301013A697F0E3B6F3C6B36
:1018A0003D6B14D001013D51800F810F08E1FF0E07
:1018B0003C5D05E1800E3B5D02E1000E3A5D06E213
:1018C00001013A6B800E3B6F3C693D690050440F4B
:1018D000036E000E0120046E000E0220056E010151
:1018E0003A51096E3B51E56E0950E56E0550E56EC3
:1018F0000450E56E0350E56EA6EC12F0050EE126ED
:10190000440E0026000E012202220B0E0026000EBD
:101910000122022200C0E9FF01C0F3FF0250F4ECF3
:1019200032F0F3CF01F0F4CF02F00150006E02501C
:10193000016E00500101226F0150236F0850086EA4
:10194000E56A0D0EE56E800EE56E010EE56E200E69
:10195000E56E0850E56E0750E56E0650E56E51ECF9
:1019600026F0080EE126E4CF0DF0E4CF0CF0E4CF32
:101970000BF0E4CF0AF0E4CF09F0E4CF08F0E4CFB5
:1019800007F0E4CF06F0E4CF05F0E4CF04F0E4CFB5
:1019900003F0E4CF02F0E4CF01F0E4CF00F0E4CFB5
:1019A000D9FF120025642025640A000005C0E5FF68
:1019B00006C0E5FF07C0E5FF08C0E5FF09C0E5FF79
:1019C0000AC0E5FF0BC0E5FF0CC0E5FF0DC0E5FF59
:1019D0000EC0E5FF0FC0E5FF10C0E5FF11C0E5FF39
:1019E00012C0E5FF13C0E5FF14C0E5FF15C0E5FF19
:1019F00016C0E5FF17C0E5FF18C0E5FF19C0E5FFF9
:101A00001AC0E5FF1BC0E5FF1CC0E5FF1DC0E5FFD8
:101A1000000E00B0050F066AF60F02E3062AFCD797
:101A20000A0F056E042E03D0FB0F01E3062A0650B1
:101A300000B0020F00B2050F076AF60F02E3072A93
:101A4000FCD70A0F066E042E03D0FB0F01E3072A12
:101A5000075000B0060F00B2020F00B4050F086A6D
:101A6000F60F02E3082AFCD70A0F076E042E03D0F4
:101A7000FB0F01E3082A085000B2010F00B4020F67
:101A800000B6050F096AF60F02E3092AFCD70A0F10
:101A9000086E042E03D0FB0F01E3092A095000B0A1
:101AA000090F00B2080F00B4060F00B6020F00B80D
:101AB000050F0A6AF60F02E30A2AFCD70A0F096E1D
:101AC000042E03D0FB0F01E30A2A0A5000B0030FD3
:101AD00000B2070F00B4050F00B6010F00B8020FE7
:101AE00000BA050F0B6AF60F02E30B2AFCD70A0FA8
:101AF0000A6E042E03D0FB0F01E30B2A0B5000B03B
:101B0000050F00B4010F00B6030F00B8060F00BAAE
:101B1000020F00BC050F0C6AF60F02E30C2AFCD77B
:101B20000A0F0B6E042E03D0FB0F01E30C2A0C509E
:101B300000B0070F00B2050F00BA010F00BC020F82
:101B400000BE050F0D6AF60F02E30D2AFCD70A0F3F
:101B50000C6E042E03D0FB0F01E30D2A0D5000B0D4
:101B6000070F00B2050F00B4010F00B6020F00B856
:101B7000040F00BA080F00BC060F00BE020F01B030
:101B8000050F0E6AF60F02E30E2AFCD70A0F0D6E40
:101B9000042E03D0FB0F01E30E2A0E5000B0040FF9
:101BA00000B2090F00B4090F00B6080F00B8060F05
:101BB00000BA020F00BC050F00BE010F01B0020FFA
:101BC00001B2050F0F6AF60F02E30F2AFCD70A0FC6
:101BD0000E6E042E03D0FB0F01E30F2A0F5000B04E
:101BE000040F00B2080F00B4070F00B6050F00B8CD
:101BF000010F00BA030F00BC060F00BE030F01B0B7
:101C0000060F01B2020F01B4050F106AF60F02E3CE
:101C1000102AFCD70A0F0F6E042E03D0FB0F01E32E
:101C2000102A105000B0060F00B2020F00B4050FCA
:101C300000B6010F00B8030F00BA060F00BC020F78
:101C400000BE050F01B2010F01B4020F01B6050F6E
:101C5000116AF60F02E3112AFCD70A0F106E042E48
:101C600003D0FB0F01E3112A115000B0040F00B2A2
:101C7000090F00B4080F00B6070F00B8040F00BA30
:101C8000080F00BC070F00BE040F01B0090F01B21E
:101C9000080F01B4060F01B6020F01B8050F126A52
:101CA000F60F02E3122AFCD70A0F116E042E03D09E
:101CB000FB0F01E3122A125000B4010F00B6030F0C
:101CC00000B8070F00BA040F00BC090F00BE090FCF
:101CD00001B0080F01B2070F01B4050F01B6010FE3
:101CE00001B8020F01BA050F136AF60F02E3132AB7
:101CF000FCD70A0F126E042E03D0FB0F01E3132A48
:101D0000135000B0060F00B2020F00B4040F00B66B
:101D1000080F00B8060F00BA030F00BC060F00BE84
:101D2000030F01B0070F01B2050F01B4010F01B697
:101D3000030F01B8060F01BA020F01BC050F146AA8
:101D4000F60F02E3142AFCD70A0F136E042E03D0F9
:101D5000FB0F01E3142A145000B0090F00B2090F61
:101D600000B4080F00B6060F00B8030F00BA070F43
:101D700000BC040F00BE090F01B0080F01B2070F2D
:101D800001B4050F01BA010F01BC020F01BE050F1E
:101D9000156AF60F02E3152AFCD70A0F146E042EFB
:101DA00003D0FB0F01E3152A155000B0050F00B258
:101DB000010F00B4030F00B6070F00B8050F00BCF9
:101DC000010F00BE020F01B0050F01B2010F01B4F7
:101DD000030F01B6070F01B8040F01BA080F01BCC9
:101DE000060F01BE020F02B0050F166AF60F02E3DE
:101DF000162AFCD70A0F156E042E03D0FB0F01E341
:101E0000162A165000B2010F00B4020F00B6040FDC
:101E100000B8090F00BA090F00BC080F00BE060F7A
:101E200001B0020F01B2050F01B8010F01BA020F94
:101E300001BC050F01BE010F02B0020F02B2050F77
:101E4000176AF60F02E3172AFCD70A0F166E042E44
:101E500003D0FB0F01E3172A175000BA010F00BC93
:101E6000030F00BE070F01B0050F01B4010F01B64B
:101E7000020F01B8040F01BA080F01BC060F01BE22
:101E8000030F02B0060F02B2020F02B4050F186A68
:101E9000F60F02E3182AFCD70A0F176E042E03D0A0
:101EA000FB0F01E3182A185001B0010F01B2030F14
:101EB00001B4060F01B6020F01B8040F01BA080FF2
:101EC00001BC070F01BE050F02B2010F02B4020FE1
:101ED00002B6050F196AF60F02E3192AFCD70A0F9A
:101EE000186E042E03D0FB0F01E3192A195001B616
:101EF000010F01B8020F01BA040F01BC090F01BEA6
:101F0000090F02B0090F02B2080F02B4060F02B6A1
:101F1000020F02B8050F1A6AF60F02E31A2AFCD75D
:101F20000A0F196E042E03D0FB0F01E31A2A1A5070
:101F300001BE010F02B0030F02B2070F02B4050F7A
:101F400002B6010F02B8020F02BA050F1B6AF60FA4
:101F500002E31B2AFCD70A0F1A6E042E03D0FB0FD4
:101F600001E31B2A1B5002B4010F02B6030F02B893
:101F7000060F02BA020F02BC050F1C6AF60F02E33D
:101F80001C2AFCD70A0F1B6E042E03D0FB0F01E3A3
:101F90001C2A1C5002BA010F02BC020F02BE050F20
:101FA0001D6AF60F02E31D2AFCD70A0F1C6E042ED1
:101FB00003D0FB0F01E31D2A300FEE6E1B50300FD4
:101FC000EE6E1A50300FEE6E1950300FEE6E185044
:101FD000300FEE6E1750300FEE6E1650300FEE6E63
:101FE0001550300FEE6E1450300FEE6E1350300F50
:101FF000EE6E1250300FEE6E1150300FEE6E10502C
:10200000300FEE6E0F50300FEE6E0E50300FEE6E42
:102010000D50300FEE6E0C50300FEE6E0B50300F37
:10202000EE6E0A50300FEE6E0950300FEE6E085013
:10203000300FEE6E0750300FEE6E0650300FEE6E22
:102040000550300FEE6E170EE4CF1DF0E4CF1CF0FC
:10205000E4CF1BF0E4CF1AF0E4CF19F0E4CF18F08E
:10206000E4CF17F0E4CF16F0E4CF15F0E4CF14F08E
:10207000E4CF13F0E4CF12F0E4CF11F0E4CF10F08E
:10208000E4CF0FF0E4CF0EF0E4CF0DF0E4CF0CF08E
:10209000E4CF0BF0E4CF0AF0E4CF09F0E4CF08F08E
:1020A000E4CF07F0E4CF06F0E4CF05F0120000C063
:1020B000E5FF01C0E5FF02C0E5FF03C0E5FF04C086
:1020C000E5FF05C0E5FF06C0E5FF07C0E5FF08C066
:1020D000E5FF09C0E5FF0AC0E5FF0BC0E5FF0CC046
:1020E000E5FF006A016A026A040E025CD8B069EF7B
:1020F00012F001C003F0012A100E035CD8B0E9D140
:102100000001F12B100EF15D01E3F16B0001F139DB
:10211000E8441F0B036E046A690E0326010E0422B5
:1021200003C0E9FF04C0EAFFEFCF03F0070EF1158B
:10213000046E010E056E000E066E045006E0E86C9B
:10214000D89005360636010FFCE3076A03500516E2
:1021500007500616055005E1065003E1056A052AF9
:1021600001D0056A0550D880E866D890056A053622
:102170000550D8B4B9D70001F151020DF450046EE6
:10218000F3CF03F05C0E0324056E040E0420066EEC
:1021900005C0E9FF06C0EAFFEECF05F0EFCF06F07D
:1021A0000001EEA19DD0950E0324076E0A0E0420B7
:1021B000086E07C0E9FF08C0EAFFEECF07F0EFCFD7
:1021C00008F00650800FF36E0850800FF35C02E1B8
:1021D0000750055C03E2056A066A60D0B50E032667
:1021E0000A0E042203C0E9FF04C0EAFFEECF03F0A9
:1021F000EFCF04F00450800FF36E0650800FF35CB5
:1022000002E10550035C04E205683F0E066E46D00D
:102210000750055C096E085006580A6EE86A0ABE47
:10222000FF0E0B6EE56E0B50E56E0A50E56E095021
:10223000E56EE56AE56A400EE56E000EE56A2EEC95
:102240001EF0096EF3CF0AF0F4CF0BF0E9CF0CF0DB
:10225000080EE1260750035C076E08500458086E0C
:10226000E86A08BEFF0E036EE56E0350E56E085087
:10227000E56E0750E56E0C50E56E0B50E56E0A50AA
:10228000E56E0950E56EB3EC24F0036EF3CF04F075
:10229000080EE1260350056E0450066E0001ED5154
:1022A000800FF36E0650800FF35C02E10550EC5D89
:1022B00003E3056A066A14D00001EC51FF08036EBF
:1022C0003F0EED55046E0650800FF36E0450800FE4
:1022D000F35C02E10350055C03E305683F0E066E04
:1022E0000001F151020DF450046EF3CF03F0750EAE
:1022F00003260A0E042203C0E9FF04C0EAFFEECF62
:1023000003F0EFCF04F00350055C036E0450065851
:10231000046ED88004AED89004E3041E036CD8B4D5
:10232000042A022A0001ED51800FF36E0450800F41
:10233000F35C02E10350EC5DD8B0D6D60001F15158
:10234000020DF450086EF3CF07F0750E07260A0E43
:10235000082207C0E9FF08C0EAFF05C0EEFF06C07B
:10236000EFFF0001EEA55AD00001F151020DF4502B
:10237000086EF3CF07F0D50E0724096E0A0E082069
:102380000A6E09C0E9FF0AC0EAFFEECF0BF0EFCFFB
:102390000CF00B500C10D8B441D0550E07260A0E85
:1023A000082207C0E9FF08C0EAFFEECF07F0EFCF31
:1023B00008F00750055C036E08500658046E0310C1
:1023C0001CE00450800F800F02E1010E035C076ADD
:1023D00007360C50800F800F02E1010E0B5C0B6A78
:1023E0000B3607500B1809E109C0E9FF0AC0EAFFE4
:1023F00003C0EEFF04C0EFFF77D60001F151020DDC
:10240000F450046EF3CF03F0D50E03260A0E042217
:1024100003C0E9FF04C0EAFFEE6AEF6A0001EEA321
:1024200043D000500EE100C003F0002A046AF20E0F
:102430000326000E042203C0E9FF04C0EAFF420E97
:10244000EF6E00C003F0002A046AF20E0326000EAD
:102450000422640E0001F125076E03C0E9FF04C0E9
:10246000EAFF07C0EFFF00C003F0002A046AF20E83
:102470000326000E04220650076E03C0E9FF04C0C5
:10248000EAFF07C0EFFF00C003F0002A046AF20E63
:102490000326000E04220550076E03C0E9FF04C0A6
:1024A000EAFF07C0EFFF20D6F1C003F00650E56E4B
:1024B0000550E56EE56A0350E56E000EE56E4F0EC1
:1024C000E56E840EE56E07EC2EF0070EE12674EF44
:1024D00010F002C001F000501DE00001EEA31AD080
:1024E00000C002F0002A036AF20E0226000E032248
:1024F00002C0E9FF03C0EAFF0A0EEF6E0050E56E6E
:10250000800EE56E000EE56EF20EE56ED3EC26F061
:10251000040EE1260150E4CF0CF0E4CF0BF0E4CF41
:102520000AF0E4CF09F0E4CF08F0E4CF07F0E4CFFD
:1025300006F0E4CF05F0E4CF04F0E4CF03F0E4CFFD
:1025400002F0E4CF01F0E4CF00F01200D9CFE5FFB4
:10255000E1CFD9FF00C0E5FF01C0E5FF02C0E5FF04
:1025600003C0E5FF04C0E5FF05C0E5FF06C0E5FFC9
:1025700007C0E5FF08C0E5FF09C0E5FF0AC0E5FFA9
:102580000BC0E5FF020EDBCF00F0030EDBCF01F046
:10259000040EDBCF02F0050EDBCF03F0060EDBCF1F
:1025A00004F002500A6E0150096E0050086EE56A90
:1025B000110EE56E0A50E56E0950E56E0850E56EA5
:1025C000800EE56E040EE56E240EE56E51EC26F0ED
:1025D000080EE12633C405F034C406F0E86A0401AD
:1025E00034BFFF0E076E0101456F0650446F055062
:1025F000436F426B03C005F004C006F0E86A04BEF6
:10260000FF0E076E086E24C409F0E56AE56AE56A04
:102610000950E56E0850E56E0750E56E0650E56E10
:102620000550E56E2EEC1EF001013E6FF3CF3FF139
:10263000F4CF40F1E9CF41F1080EE1260401255124
:10264000D8B4AFD00450800F800F02E1010E035CBC
:1026500025E304012A51800F7C0F08E1000E295D5B
:1026600005E1000E285D02E1000E275D17E204017E
:102670003251800FF36E01014551800FF35C0DE183
:1026800044510401315D09E1010143510401305D10
:1026900004E10101425104012F5D33E3D88004AE0F
:1026A000D890D8A043D004012A51800F840F08E1AC
:1026B000000E295D05E1000E285D02E1010E275D97
:1026C00035E30101451D0A6E441D096E431D046E6C
:1026D000421D036E032A04E1042A02E1094A0A2A80
:1026E0000A50800FF36E04013251800FF35C08E151
:1026F0003151095C05E13051045C02E12F51035C6A
:1027000015E2055004012725036E06502821046EAA
:1027100007502921096E08502A210A6E0350276F9D
:102720000450286F0950296F0A502A6F0401273975
:102730000F0B036E2839046EF00B041A032629517F
:10274000E838F00B041229390F0B096E2A390A6E8A
:10275000F00B0A1A0926F00E0AB60A2625C40BF059
:10276000E56AE56AE56A0B50E56E0A50E56E0950C8
:10277000E56E0450E56E0350E56E2EEC1EF0036E20
:10278000F3CF04F0F4CF09F0E9CF0AF0080EE12608
:10279000035001013E2704503F23095040230A50B3
:1027A000412304012651D8B46CD02B51055C0101A2
:1027B000466F04012C5106580101476F04012D5149
:1027C00007580101486F04012E5108580101496F53
:1027D000800F800F08E1010E485D05E1000E475DA6
:1027E00002E1000E465D07E3FF0E0101466F476FF1
:1027F000486B496B14D001014951800F810F08E1EA
:10280000FF0E485D05E1000E475D02E1000E465DEA
:1028100006E20101466B476BFF0E486F496F0101ED
:10282000493148310A6E096A09324751E8407F0B45
:10283000091247314631046E036A033226C40BF095
:10284000E56AE56AE56A0B50E56E0A50E56E0950E7
:10285000E56E0450E56E0350E56E2EEC1EF0036E3F
:10286000F3CF04F0F4CF09F0E9CF0AF0080EE12627
:10287000035001013E2704503F23095040230A50D2
:102880004123055004012B6F06502C6F07502D6F0C
:1028900008502E6F01014551800FF36E0101415127
:1028A000800FF35C0DE140510101445D09E101013C
:1028B0003F510101435D04E101013E510101425DCF
:1028C00011E20101425104012F6F01014351040142
:1028D000306F010144510401316F01014551040180
:1028E000326F3AD00101451D066E441D056E431D31
:1028F000046E421D036E032A04E1042A02E1054A24
:10290000062A01014151800FF36E0650800FF35CDF
:1029100008E10550405D05E104503F5D02E10350D0
:102920003E5D0AE2035004012F6F0450306F0550E2
:10293000316F0650326F10D001013E5104012F6FEC
:1029400001013F510401306F010140510401316F19
:10295000010141510401326FE56A110EE56E800EEE
:10296000E56E040EE56E240EE56E0250E56E015034
:10297000E56E0050E56E51EC26F0080EE126E4CF3E
:102980000BF0E4CF0AF0E4CF09F0E4CF08F0E4CF95
:1029900007F0E4CF06F0E4CF05F0E4CF04F0E4CF95
:1029A00003F0E4CF02F0E4CF01F0E4CF00F0E4CF95
:1029B000D9FF1200D9CFE5FFE1CFD9FF00C0E5FF75
:1029C00001C0E5FF02C0E5FF03C0E5FF04C0E5FF6D
:1029D00005C0E5FF06C0E5FF07C0E5FF08C0E5FF4D
:1029E00009C0E5FF0AC0E5FF020EDBCF00F0030ED1
:1029F000DBCF01F0040EDBCF02F0036A046AE3ECE4
:102A000031F0056EFE0A01E077D0B1EC2BF0E3EC7B
:102A100031F0066E030E065CD8A05AD0060E065C96
:102A2000D8B056D0FD0E0624076EFA6AFB6A07344A
:102A3000FA36E834FA36FC0B480FE56E2A0EFA2215
:102A4000000EFB22E450F96E2AEF15F03CEF15F072
:102A500055EF15F00050090F076E000E0120086EAB
:102A6000000E022007C0E9FF08C0F3FF45EC34F078
:102A7000036EF3CF04F02CD00050090F076E000E48
:102A80000120086E000E0220096E020E0726000EBD
:102A90000822092207C0E9FF08C0F3FF095045ECEE
:102AA00034F0036EF3CF04F013D00050070F076E1D
:102AB000000E0120086E000E022007C0E9FF08C0CA
:102AC000F3FFAAEC34F0010B076E07C003F0046AB1
:102AD00006C007F00450E56E0350E56EE56A075046
:102AE000E56E000EE56E190EE56EA40EE56E07ECC0
:102AF0002EF0070EE12634D1070E055CD8B030D198
:102B0000FA6AFB6A0534FA36E834FA36FC0B1E0F13
:102B1000E56E2B0EFA22000EFB22E450F96E9DEFBB
:102B200015F0B8EF15F0CAEF15F0DCEF15F00EEF69
:102B300016F044EF16F063EF16F00050230F036E0B
:102B4000000E0120046E000E0220E56E0450E56EBA
:102B50000350E56E1FEC18F0030EE126020EE56E41
:102B600000C0E9FF01C0F3FF025038EC35F0F8D0A7
:102B70000050330F036E000E0120046E000E022081
:102B8000E56E0450E56E0350E56EACEC1AF0030EF2
:102B9000E126E6D00050440F036E000E0120046EC3
:102BA000000E0220E56E0450E56E0350E56EACECBD
:102BB0001AF0030EE126D4D00050090F036E000E68
:102BC0000120046E000E0220056EE3EC31F00A6E67
:102BD000096AE56A0AC0F4FF03C0E9FF04C0F3FF15
:102BE000055015EC35F0E3EC31F0086A0926085081
:102BF0000A2209C0E5FF0AC0F4FF03C0E9FF04C0D0
:102C0000F3FF055015EC35F0010EE56E00C0E9FF4D
:102C100001C0F3FF025038EC35F0A2D00050090F8C
:102C2000036E000E0120046E000E0220056E020EDF
:102C30000326000E04220522E3EC31F00A6E096A35
:102C4000E56A0AC0F4FF03C0E9FF04C0F3FF0550C2
:102C500015EC35F0E3EC31F0086A092608500A2239
:102C600009C0E5FF0AC0F4FF03C0E9FF04C0F3FF99
:102C7000055015EC35F0E56A00C0E9FF01C0F3FF2F
:102C8000025038EC35F06CD00050070F036E000E88
:102C90000120046E000E0220056EE3EC31F0010B02
:102CA000F46E03C0E9FF04C0F3FF0550AAEC34F052
:102CB000FE0BF410E56E03C0E9FF04C0F3FF0550FE
:102CC00038EC35F04DD0E3EC31F0066E0050160FC5
:102CD000036E000E0120046E000E0220056E0350EC
:102CE0000C0F076E000E0420086E000E0520096E02
:102CF0000650010BF46E07C0E9FF08C0F3FF09504E
:102D0000AAEC34F0FE0BF410E56E07C0E9FF08C032
:102D1000F3FF095038EC35F00650010A21E1080EA6
:102D20000326000E04220522E56AF46AF66AF76AB1
:102D300003C0E9FF04C0F3FF0550BBEC34F0230EE1
:102D40000026000E01220222E56AE56A0250E56EC5
:102D50000150E56E0050E56E26EC24F0050EE126EC
:102D6000E4CF0AF0E4CF09F0E4CF08F0E4CF07F0B5
:102D7000E4CF06F0E4CF05F0E4CF04F0E4CF03F0B5
:102D8000E4CF02F0E4CF01F0E4CF00F0E4CFD9FFCC
:102D9000120000C0E5FF01C0E5FF02C0E5FF03C06F
:102DA000E5FF04C0E5FF05C0E5FF06C0E5FF07C07D
:102DB000E5FF08C0E5FF09C0E5FF0AC0E5FF0BC05D
:102DC000E5FF0CC0E5FF0DC0E5FF0EC0E5FF000EFE
:102DD00000B0010F00B2020F00B4040F00B6080FDC
:102DE00000B8060F00BA020F00BC040F00BE080FA7
:102DF00001B0060F01B2020F01B4040F01B6080FB3
:102E000001B8060F01BA020F01BC040F01BE080F82
:102E100002B0060F02B2020F02B4040F02B6080F8E
:102E200002B8060F02BA020F02BC040F02BE080F5E
:102E3000056AF60F02E3052AFCD70A0F046E055057
:102E400000B8010F00BA030F00BC060F00BE020F4E
:102E500001B0050F01B2010F01B4020F01B6040F5A
:102E600001B8090F01BA090F01BC080F01BE060F16
:102E700002B0030F02B2070F02B4040F02B6080F2C
:102E800002B8070F02BA050F066AF60F02E3062A18
:102E9000FCD70A0F056E065000BE010F01B0020FED
:102EA00001B2050F01BA010F01BC030F01BE070FEC
:102EB00002B0050F02B4010F02B6020F02B8050FEF
:102EC00002BA010F02BC030F02BE060F076AF60F1B
:102ED00002E3072AFCD70A0F066E075001B4010F60
:102EE00001B6020F01B8040F01BA080F01BC060FAA
:102EF00001BE020F02B0050F02B2010F02B4020FB1
:102F000002B6040F02B8080F02BA070F02BC040F82
:102F100002BE080F086AF60F02E3082AFCD70A0F60
:102F2000076E085001BC010F01BE030F02B0060F6F
:102F300002B2030F02B4060F02B6020F02B8040F6A
:102F400002BA090F02BC090F02BE080F096AF60F88
:102F500002E3092AFCD70A0F086E095002B2010FDA
:102F600002B4020F02B6050F02BC010F02BE030F2E
:102F70000A6AF60F02E30A2AFCD70A0F096E0A5002
:102F800002B8010F02BA020F02BC040F02BE080F02
:102F90000B6AF60F02E30B2AFCD70A0F0A6E0B50DE
:102FA0000E6A0EE10A5010E1095012E1085014E1D6
:102FB000075016E1065018E105501AE104501CD0E4
:102FC0000E2A300FEE6E0A500E2A300FEE6E0950A8
:102FD0000E2A300FEE6E08500E2A300FEE6E07509C
:102FE0000E2A300FEE6E06500E2A300FEE6E055090
:102FF0000E2A300FEE6E04500E2A300FEE6E0E5079
:10300000E4CF0EF0E4CF0DF0E4CF0CF0E4CF0BF002
:10301000E4CF0AF0E4CF09F0E4CF08F0E4CF07F002
:10302000E4CF06F0E4CF05F0E4CF04F0E4CF03F002
:10303000E4CF02F0E4CF01F0E4CF00F01200D9CFEA
:10304000E5FFE1CFD9FF00C0E5FF01C0E5FF02C009
:10305000E5FF03C0E5FF04C0E5FF05C0E5FF06C0CE
:10306000E5FF07C0E5FF08C0E5FF09C0E5FF0AC0AE
:10307000E5FF0BC0E5FF020EDBCF00F0030EDBCF58
:1030800001F0040EDBCF02F0036A046AE3EC31F0D6
:10309000056EFE0A01E063D0B1EC2BF0E3EC31F0F9
:1030A000066E06500AE00650010A19E00650020AB0
:1030B00028E006500A0A37E040D00050060F076E9D
:1030C000000E0120086E000E022007C0E9FF08C0B4
:1030D000F3FF45EC34F0036EF3CF04F02ED0005034
:1030E0000C0F076E000E0120086E000E022007C0B4
:1030F000E9FF08C0F3FF45EC34F0036EF3CF04F0B2
:103100001CD000500E0F076E000E0120086E000E3E
:10311000022007C0E9FF08C0F3FF45EC34F0036E5E
:10312000F3CF04F00AD000C0E9FF01C0F3FF025062
:1031300045EC34F0036EF3CF04F00450E56E035019
:10314000E56EE56A0650E56E000EE56E580EE56E1A
:10315000A80EE56E07EC2EF0070EE126A1D0055073
:103160000CE00550010A32E00550020A01E157D097
:1031700005500A0A01E17CD093D00050060F056E7D
:10318000000E0120066E000E0220076EE3EC31F007
:103190000B6E0A6AE56A0BC0F4FF05C0E9FF06C0C2
:1031A000F3FF075015EC35F0E3EC31F0096A0A261D
:1031B00009500B220AC0E5FF0BC0F4FF05C0E9FF70
:1031C00006C0F3FF075015EC35F06AD000500C0F25
:1031D000056E000E0120066E000E0220076EE3EC65
:1031E00031F00B6E0A6AE56A0BC0F4FF05C0E9FF17
:1031F00006C0F3FF075015EC35F0E3EC31F0096A37
:103200000A2609500B220AC0E5FF0BC0F4FF05C0D7
:10321000E9FF06C0F3FF075015EC35F041D0005030
:103220000E0F056E000E0120066E000E0220076EC6
:10323000E3EC31F00B6E0A6AE56A0BC0F4FF05C0DF
:10324000E9FF06C0F3FF075015EC35F0E3EC31F071
:10325000096A0A2609500B220AC0E5FF0BC0F4FFD9
:1032600005C0E9FF06C0F3FF075015EC35F018D094
:10327000E3EC31F0046E036AE3EC31F0066A0326F6
:10328000065004220450E56E0350E56E0250E56ED0
:103290000150E56E0050E56E5EEC30F0050EE12663
:1032A000E4CF0BF0E4CF0AF0E4CF09F0E4CF08F06C
:1032B000E4CF07F0E4CF06F0E4CF05F0E4CF04F06C
:1032C000E4CF03F0E4CF02F0E4CF01F0E4CF00F06C
:1032D000E4CFD9FF1200800EE56E0A0EE56EB50E42
:1032E000E56E58EC2CF0030EE126800EE56E0A0E1A
:1032F000E56E950EE56E58EC2CF0030EE126800E7F
:10330000E56E0A0EE56EB70EE56E58EC2CF0030E76
:10331000E126800EE56E0A0EE56E970EE56E58EC1E
:103320002CF0030EE126800EE56E0A0EE56EB90E56
:10333000E56E58EC2CF0030EE126800EE56E0A0EC9
:10334000E56E990EE56E58EC2CF0030EE126800E2A
:10335000E56E0A0EE56EBB0EE56E58EC2CF0030E22
:10336000E126800EE56E0A0EE56E9B0EE56E58ECCA
:103370002CF0030EE126800EE56E0A0EE56EBD0E02
:10338000E56E58EC2CF0030EE126800EE56E0A0E79
:10339000E56E9D0EE56E58EC2CF0030EE126800ED6
:1033A000E56E0A0EE56EBF0EE56E58EC2CF0030ECE
:1033B000E126800EE56E0A0EE56E9F0EE56E58EC76
:1033C0002CF0030EE126800EE56E0A0EE56EC10EAE
:1033D000E56E58EC2CF0030EE126800EE56E0A0E29
:1033E000E56EA10EE56E58EC2CF0030EE126800E82
:1033F000E56E0A0EE56EC30EE56E58EC2CF0030E7A
:10340000E126800EE56E0A0EE56EA30EE56E58EC21
:103410002CF0030EE126800EE56E0A0EE56EC50E59
:10342000E56E58EC2CF0030EE126800EE56E0A0ED8
:10343000E56EA50EE56E58EC2CF0030EE126800E2D
:10344000E56E0A0EE56EC70EE56E58EC2CF0030E25
:10345000E126800EE56E0A0EE56EA70EE56E58ECCD
:103460002CF0030EE126800EE56E0A0EE56EC90E05
:10347000E56E58EC2CF0030EE126800EE56E0A0E88
:10348000E56EA90EE56E58EC2CF0030EE126800ED9
:10349000E56E0A0EE56ECB0EE56E58EC2CF0030ED1
:1034A000E126800EE56E0A0EE56EAB0EE56E58EC79
:1034B0002CF0030EE126800EE56E0A0EE56ECD0EB1
:1034C000E56E58EC2CF0030EE126800EE56E0A0E38
:1034D000E56EAD0EE56E58EC2CF0030EE126800E85
:1034E000E56E0A0EE56ECF0EE56E58EC2CF0030E7D
:1034F000E126800EE56E0A0EE56EAF0EE56E58EC25
:103500002CF0030EE126800EE56E0A0EE56ED10E5C
:10351000E56E58EC2CF0030EE126800EE56E0A0EE7
:10352000E56EB10EE56E58EC2CF0030EE126800E30
:10353000E56E0A0EE56ED30EE56E58EC2CF0030E28
:10354000E126800EE56E0A0EE56EB30EE56E58ECD0
:103550002CF0030EE1261200D9CFE5FFE1CFD9FF11
:1035600000C0E5FF01C0E5FF02C0E5FF03C0E5FFC5
:1035700004C0E5FF05C0E5FF06C0E5FF07C0E5FFA5
:1035800008C0E5FF020EDBCF00F0030EDBCF01F039
:10359000040EDBCF02F0036A046AE3EC31F0056E3F
:1035A000FE0A01E075D0B1EC2BF0E3EC31F0066ED1
:1035B000040E065CD8B05AD0FA6AFB6A0634FA36B2
:1035C000E834FA36FC0BD60FE56E350EFA22000E03
:1035D000FB22E450F96EF3EF1AF0FFEF1AF012EF4E
:1035E0001BF025EF1BF000C0E9FF01C0F3FF025004
:1035F000AAEC34F0076E07C003F0046A37D000501D
:10360000010F076E000E0120086E000E022007C099
:10361000E9FF08C0F3FFAAEC34F0076E07C003F01F
:10362000046A24D00050020F076E000E0120086EBD
:10363000000E022007C0E9FF08C0F3FFAAEC34F037
:10364000076E07C003F0046A11D000500F0F076E19
:10365000000E0120086E000E022007C0E9FF08C01E
:10366000F3FF45EC34F0036EF3CF04F00450E56E45
:103670000350E56EE56A0650E56E000EE56E440EF9
:10368000E56EEA0EE56E07EC2EF0070EE1268DD012
:10369000040E055CD8B089D0FA6AFB6A0534FA36A4
:1036A000E834FA36FC0BB60FE56E360EFA22000E41
:1036B000FB22E450F96E63EF1BF070EF1BF09BEF01
:1036C0001BF0B1EF1BF0E3EC31F0036E03C0E5FF3C
:1036D00000C0E9FF01C0F3FF025038EC35F065D0BF
:1036E0000050010F036E000E0120046E000E022038
:1036F000056EE3EC31F0066E06C0E5FF03C0E9FF9E
:1037000004C0F3FF055038EC35F00650D8A44DD076
:103710000050030F036E000E0120046E000E022005
:10372000E56AF46AF66AF76A03C0E9FF04C0F3FFCA
:10373000BBEC34F03AD00050020F036E000E0120B3
:10374000046E000E0220056EE3EC31F0066E06C03A
:10375000E5FF03C0E9FF04C0F3FF055038EC35F086
:1037600024D00F0E0026000E01220222E3EC31F0DD
:10377000066E056AE56A06C0F4FF00C0E9FF01C0F5
:10378000F3FF025015EC35F0E3EC31F0046A052646
:103790000450062205C0E5FF06C0F4FF00C0E9FFA3
:1037A00001C0F3FF025015EC35F0E4CF08F0E4CF90
:1037B00007F0E4CF06F0E4CF05F0E4CF04F0E4CF67
:1037C00003F0E4CF02F0E4CF01F0E4CF00F0E4CF67
:1037D000D9FF120000C0E5FF01C0E5FF02C0E5FF10
:1037E00003C0E5FF04C0E5FF05C0E5FF06C0E5FF37
:1037F00007C0E5FF08C0E5FF09C0E5FFC2A203D08E
:103800000001EF5104D10001F051D8B4ADD0000156
:10381000EF51020DF450016EF3CF00F05C0E002664
:10382000040E012200C0E9FF01C0EAFFEECF02F062
:10383000EFCF03F003340330056E0230046E05341D
:10384000053204320534053204320450025C046E41
:1038500005500358056EC3CF06F0076A06500426CC
:1038600007500522C4CF06F00650096E086A0850BA
:1038700004260950052200C0E9FF01C0EAFF04C088
:10388000EEFF05C0EFFF0001EB51010A01E06AD035
:103890000001EF51020DF450016EF3CF00F05C0E09
:1038A0000024046E040E0120056E04C0E9FF05C06B
:1038B000EAFFEECF02F0EFCF03F0950E00260A0EDE
:1038C000012200C0E9FF01C0EAFFEECF04F0EFCF14
:1038D00005F09C0E0426D8A005060350800FF36E59
:1038E0000550800FF35C02E10450025C0EE20250CE
:1038F000640F046E000E0320056E00C0E9FF01C0D6
:10390000EAFF04C0EEFF05C0EFFF0001EF51020D1A
:10391000F450016EF3CF00F0B50E00260A0E01221E
:1039200000C0E9FF01C0EAFFEECF04F0EFCF05F0E1
:10393000640E0426D8B0052A0550800FF36E03509C
:10394000800FF35C02E10250045C0CE29C0E022644
:10395000D8A0030600C0E9FF01C0EAFF02C0EEFFE5
:1039600003C0EFFF0001F06B0001EF2B100EEF5DC5
:1039700001E3EF6B0001EF39E8441F0B006E016AB1
:10398000690E0026010E012200C0E9FF01C0EAFF16
:10399000EFCF00F0070EEF15016E010E026E000E64
:1039A000036E015006E0E86CD89002360336010F32
:1039B000FCE3046A0050021604500316025005E1AD
:1039C000035003E1026A022A01D0026A0250D88041
:1039D000E866D890026A0236025017E0230E000112
:1039E000EF25006E016A0F0E012200C0E9FF01C041
:1039F000EAFFEFCF00F00044E844FC0B016E012821
:103A0000C26EC282010E0001F06F0001EF51E4CFDF
:103A100009F0E4CF08F0E4CF07F0E4CF06F0E4CFFC
:103A200005F0E4CF04F0E4CF03F0E4CF02F0E4CFFC
:103A300001F0E4CF00F01200D9CFE5FFE1CFD9FFCC
:103A400000C0E5FF01C0E5FF02C0E5FF03C0E5FFE0
:103A500004C0E5FF05C0E5FF06C0E5FF07C0E5FFC0
:103A600008C0E5FF09C0E5FF0AC0E5FF0BC0E5FFA0
:103A7000020EDBCF00F0030EDBCF01F0040EDBCF34
:103A800002F0050EDBCF03F0060EDBCF04F0070ECD
:103A9000DBCF05F0080EDBCF06F0090EDBCF07F019
:103AA00006C008F0060608500EE006500424086E12
:103AB000E86A06BEE8680520096E08C0E9FF09C08B
:103AC000EAFFEF6AEDD7005001015E6F01505F6FB2
:103AD0000250606F0350616F5EC100F05FC101F082
:103AE00060C102F061C103F0066A086A096A800ECB
:103AF00003140A6E065007E1085005E1095003E17E
:103B00000A50800A01E012D0039E005001015E6F4E
:103B100001505F6F0250606F0350616F04C0E9FF96
:103B200005C0EAFF2D0EEF6E044A052A010160353B
:103B300061357E08006E5E51016E5F51026E7F0E30
:103B40006015036E066A038E086A096A0A6A0B6AC0
:103B5000005019E0D88000AED8900EE30850082637
:103B600009360A360B3603BE08800150012602369C
:103B700003360636002AECD7D890063203320232DA
:103B800001320006E5D7085009100A100B1012E0A8
:103B90000550E56E0450E56E0B50E56E0A50E56E7B
:103BA0000950E56E0850E56E8EEC31F0006E060EA1
:103BB000E12608D004C0E9FF05C0EAFF300EEF6E31
:103BC000010E006E00500426E86A00BEE868052277
:103BD000075028E004C0E9FF05C0EAFF2E0EEF6E93
:103BE000002A044A052A07501808E56E0550E56EBC
:103BF0000450E56E0650E56E0350E56E0250E56E2A
:103C00000150E56EFBEC30F0016E070EE12601502D
:103C1000002607500426E86A052204C0E9FF05C013
:103C2000EAFFEF6A0050E4CF0BF0E4CF0AF0E4CFF4
:103C300009F0E4CF08F0E4CF07F0E4CF06F0E4CFDA
:103C400005F0E4CF04F0E4CF03F0E4CF02F0E4CFDA
:103C500001F0E4CF00F0E4CFD9FF1200D9CFE5FFA7
:103C6000E1CFD9FF00C0E5FF01C0E5FF02C0E5FFDD
:103C700003C0E5FF04C0E5FF05C0E5FF06C0E5FFA2
:103C800007C0E5FF020EDBCF00F0030EDBCF01F033
:103C9000040EDBCF02F0050EDBCF03F0060EDBCF08
:103CA00004F0070EDBCF05F0080EDBCF06F0090E9F
:103CB000DBCF07F0005001014A6F01504B6F0250FB
:103CC0004C6F03504D6F045001014E6F05504F6F04
:103CD0000650506F0750516F01014A5101015003C6
:103CE000F4CF01F0F3CF00F000500101546F015008
:103CF000556F01014A5101014E03F4CF01F0F3CF9A
:103D000000F000500101526F0150536F01014D51FD
:103D100001014E03F3CF00F0010155510026005080
:103D2000556F01014C5101014F03F3CF00F0010128
:103D3000555100260050556F01014C5101014E03B1
:103D4000F4CF01F0F3CF00F001015451002655519A
:103D500001220050546F0150556F01014B51010178
:103D60004F03F4CF01F0F3CF00F0010154510026CE
:103D7000555101220050546F0150556F01014B51B4
:103D800001015003F3CF00F000500101596F010110
:103D90004B5101014E03F4CF01F0F3CF00F000507E
:103DA0000101576F0150586F01014A510101510340
:103DB000F3CF00F0005001015D6F01014A51010194
:103DC0004F03F4CF01F0F3CF00F0005001015B6F1F
:103DD00001505C6F0101566B01015A6B0101565194
:103DE00001015225006E0101575101015321016E5D
:103DF0000101585101015421026E01015951010183
:103E00005521036E0050526F0150536F0250546F92
:103E10000350556F01015A5101015225006E0101F5
:103E20005B5101015321016E01015C5101015421DB
:103E3000026E01015D5101015521036E03C0E9FFCE
:103E400002C0F4FF01C0F3FF0050E4CF07F0E4CF5D
:103E500006F0E4CF05F0E4CF04F0E4CF03F0E4CFC4
:103E600002F0E4CF01F0E4CF00F0E4CFD9FF12007C
:103E700000C0E5FF01C0E5FF0001E851D8B4F5D06E
:103E8000A3A81DD0A4A81BD001017D5101017A195E
:103E900005E1F9EC34F001017A6BE7D0000E010185
:103EA0007D25006E016A0F0E012200C0E9FF01C0EE
:103EB000EAFFEFCF76F17D2B76C173FFD6D0A4AAAF
:103EC000D4D071A205D001017B81F9EC34F0CDD0C2
:103ED00071A405D001017B83F9EC34F0C6D071A048
:103EE0003ED074CF76F1800E0001E9110101761900
:103EF00004E101017B897196B8D00101765104E09B
:103F000076510001E91927E101017B9971960101C0
:103F1000765103E001017B9702D001017B8776C1D6
:103F20007FF178C180F1010178050101816F600E98
:103F300001018025006E016A000E012200C0E9FF28
:103F400001C0EAFF76C1EFFF802B8051800A02E1B9
:103F50000101806B8AD001017B99718686D074CF74
:103F600076F101017BA919D0800E0001E911010150
:103F7000761911E1899AA39A719801017A5104E1A5
:103F8000736AF9EC34F007D000CF73FF010E010122
:103F90007D6FA3886AD0718668D0010176510101D6
:103FA0007F2701018051010181191BE101017F512E
:103FB0000CE180C178F101017BB712D0899AA39AF4
:103FC0007198736AF9EC34F00BD001017B857BB7F3
:103FD00007D0899AA39A7198010E736EF9EC34F0A8
:103FE00044D0010180510101791908E101017951A1
:103FF0000101781903E0F9EC34F037D078C100F012
:10400000016A004A012AE56A800EE56E0150E56EFC
:104010000050E56E3FEC28F0006E040EE1260050E3
:104020000101776F010180190CE11F0E0101761566
:104030000101816F812B812B0101785101018127C1
:10404000819F80C100F00101802B016A600E002673
:10405000000E012200C0E9FF01C0EAFF76C1EFFFB8
:104060008051800A02E10101806BE4CF01F0E4CFCE
:1040700000F01200D9CFE5FFE1CFD9FF00C0E5FF86
:1040800001C0E5FF02C0E5FF03C0E5FF04C0E5FF96
:1040900005C0E5FF06C0E5FF07C0E5FF08C0E5FF76
:1040A00009C0E5FF0AC0E5FF0BC0E5FF0CC0E5FF56
:1040B0000DC0E5FF0EC0E5FF0FC0E5FF020EDBCF30
:1040C00000F0030EDBCF01F0040EDBCF02F0050E93
:1040D000DBCF03F0060EDBCF04F0070EDBCF05F0DD
:1040E000080EDBCF06F0200E076E086A06C009F046
:1040F0000A6A0B6A0C6AE56AE56AE56A0950E56EC8
:104100000350E56E0250E56E0150E56E0050E56E1D
:1041100079EC22F00D6E080EE126300E0D263A0ED7
:104120000D5C05E30D500E6E270E0E240D6EFF0E76
:1041300007260822000E07240E6E010E08200F6EBF
:104140000EC0E9FF0FC0EAFF0DC0EFFF0C50E56E97
:104150000B50E56E0A50E56E0950E56E0350E56EB2
:104160000250E56E0150E56E0050E56EB3EC24F0B0
:10417000006EF3CF01F0F4CF02F0E9CF03F0080EA8
:10418000E1260050011002100310D8A4AFD707C0D9
:1041900000F008C001F004C002F005C003F000C048
:1041A00004F001C005F0004A012A000E0426010EA9
:1041B000052204C0E9FF05C0EAFFEFCF04F002C00A
:1041C000E9FF03C0EAFF04C0EFFF024A032A000E22
:1041D000015C02E1200E005CE2E302C0E9FF03C0E3
:1041E000EAFF000EEF6AE4CF0FF0E4CF0EF0E4CF69
:1041F0000DF0E4CF0CF0E4CF0BF0E4CF0AF0E4CF05
:1042000009F0E4CF08F0E4CF07F0E4CF06F0E4CF04
:1042100005F0E4CF04F0E4CF03F0E4CF02F0E4CF04
:1042200001F0E4CF00F0E4CFD9FF1200D9CFE5FFD1
:10423000E1CFD9FF00C0E5FF01C0E5FF02C0E5FF07
:1042400003C0E5FF04C0E5FF05C0E5FF06C0E5FFCC
:1042500007C0E5FF08C0E5FF09C0E5FF0AC0E5FFAC
:104260000BC0E5FF0CC0E5FF0DC0E5FF020EDBCF84
:1042700000F0030EDBCF01F0040EDBCF02F0050EE1
:10428000DBCF03F0060EDBCF04F0070EDBCF05F02B
:10429000080EDBCF06F0090EDBCF07F0D88003AEA7
:1042A000D890086A083608500FE0031C0C6E021CF8
:1042B0000B6E011C0A6E001C096E092A0DE10A2A08
:1042C0000BE10B4A0C2A08D000C009F001C00AF02B
:1042D00002C00BF003C00CF0D88007AED890006A83
:1042E000003600500FE0071C0D6E061C036E051C07
:1042F000026E041C016E012A0DE1022A0BE1034A41
:104300000D2A08D004C001F005C002F006C003F079
:1043100007C00DF00D50E56E0350E56E0250E56EDE
:104320000150E56E0C50E56E0B50E56E0A50E56EDF
:104330000950E56EB3EC24F0016EF3CF02F0F4CF38
:1043400003F0E9CF04F0080EE1260050081A0850E7
:1043500016E0041C076E031C066E021C056E011C91
:10436000006E002A04E1052A02E1064A072A07C076
:10437000E9FF06C0F4FF05C0F3FF005007D004C0FA
:10438000E9FF03C0F4FF02C0F3FF0150E4CF0DF0DA
:10439000E4CF0CF0E4CF0BF0E4CF0AF0E4CF09F067
:1043A000E4CF08F0E4CF07F0E4CF06F0E4CF05F067
:1043B000E4CF04F0E4CF03F0E4CF02F0E4CF01F067
:1043C000E4CF00F0E4CFD9FF1200D9CFE5FFE1CF71
:1043D000D9FF00C0E5FF01C0E5FF02C0E5FF03C053
:1043E000E5FF04C0E5FF05C0E5FF06C0E5FF07C027
:1043F000E5FF020EDBCF00F0030EDBCF01F0040E71
:10440000DBCF02F000500B0F036E000E0120046E94
:10441000000E0220E56AF46AF66AF76A03C0E9FF53
:1044200004C0F3FFBBEC34F00050070F036E000E26
:104430000120046E000E0220056E0050030F066E70
:10444000000E0120076E000E0220E56AF46AF66A8B
:10445000F76A06C0E9FF07C0F3FFBBEC34F0E56A7A
:10446000F46AF66AF76A03C0E9FF04C0F3FF055077
:10447000BBEC34F00050010F036E000E0120046EFF
:10448000000E0220056E0050020F066E000E012085
:10449000076E000E0220E56A06C0E9FF07C0F3FFC1
:1044A00038EC35F0E56A03C0E9FF04C0F3FF0550BE
:1044B00038EC35F0E56A00C0E9FF01C0F3FF0250B7
:1044C00038EC35F0E4CF07F0E4CF06F0E4CF05F0A8
:1044D000E4CF04F0E4CF03F0E4CF02F0E4CF01F046
:1044E000E4CF00F0E4CFD9FF120025642025640A50
:1044F0000000D9CFE5FFE1CFD9FF00C0E5FF01C043
:10450000E5FF02C0E5FF03C0E5FF04C0E5FF05C00D
:10451000E5FF06C0E5FF07C0E5FF08C0E5FF09C0ED
:10452000E5FF0AC0E5FF020EDBCF00F0030EDBCF94
:1045300001F0040EDBCF02F0050EDBCF03F0060E18
:10454000DBCF04F0070EDBCF05F0080EDBCF06F063
:10455000090EDBCF07F0086A096A0750800BE844B0
:104560000A6E0A501BE1045004260536063607364B
:104570000750035C08E10650025C05E10550015C50
:1045800002E10450005C06E2D890073206320532A0
:10459000043204D0092A09C008F0DFD70750035CB1
:1045A00008E10650025C05E10550015C02E104509F
:1045B000005C08E30450005E0550015A0650025AA0
:1045C0000750035AD890073206320532043208C029
:1045D00009F008060950E2E103C0E9FF02C0F4FF58
:1045E00001C0F3FF0050E4CF0AF0E4CF09F0E4CFBC
:1045F00008F0E4CF07F0E4CF06F0E4CF05F0E4CF15
:1046000004F0E4CF03F0E4CF02F0E4CF01F0E4CF14
:1046100000F0E4CFD9FF120000C0E5FF01C0E5FFC4
:1046200003C0E5FF04C0E5FF05C0E5FF06C0E5FFE8
:1046300007C0E5FF08C0E5FF09C0E5FF0AC0E5FFC8
:104640000BC0E5FF67C100F068C101F00101673FE1
:1046500001D0682B0050E56EEBEC34F0E652076EAB
:10466000046A056A066A67C100F068C101F00101C9
:10467000673F01D0682B0050E56EEBEC34F0E6525A
:104680000B6A0A6E086A0850041205120A500612D4
:104690000B50071267C100F068C101F00101673FCC
:1046A00001D0682B0050E56EEBEC34F0E652036E5F
:1046B000006A03C001F0E86A03BEFF0E086E096ECF
:1046C000005004120150051208500612095007123A
:1046D00067C100F068C101F00101673F01D0682B9C
:1046E0000050E56EEBEC34F0E652016A0412015022
:1046F00005120612071207C0E9FF06C0F4FF05C045
:10470000F3FF0450E4CF0BF0E4CF0AF0E4CF09F05C
:10471000E4CF08F0E4CF07F0E4CF06F0E4CF05F0F3
:10472000E4CF04F0E4CF03F0E4CF01F0E4CF00F0F5
:10473000120000C0E5FF01C0E5FF02C0E5FF03C0B5
:10474000E5FF04C0E5FF010179510101781901E19C
:104750005FD079C100F0002A009E600E0024016E37
:10476000026A000E022201C0E9FF02C0EAFFEFCF99
:1047700083F11F0E0101831779C182F18351010179
:104780008227822B822B829FE3EC31F0016E015055
:1047900003E1016A012A01D0016AE3EC31F0010171
:1047A000836F800E8315026E1F0E8315036E03C088
:1047B00004F003C083F1045003E178C179F13BD0E8
:1047C00001501BE0025022E0E3EC31F0006E0101E9
:1047D00083070050420A1AE000504E0A03E185ECBC
:1047E0002DF014D00050460A03E12DEC35F00ED028
:1047F0000050490A0BE1FF0009D079C184F1025051
:1048000003E026EC30F002D0EDEC2FF082C179F11C
:104810000001E5510001E61906E001017A5103E1CA
:104820003FEC25F008D089BA06D001017A5103E1A6
:1048300072B2F9EC34F0E4CF04F0E4CF03F0E4CF4B
:1048400002F0E4CF01F0E4CF00F01200D9CFE5FF91
:10485000E1CFD9FF00C0E5FF01C0E5FF02C0E5FFE1
:1048600003C0E5FF04C0E5FF05C0E5FF06C0E5FFA6
:1048700007C0E5FF08C0E5FF0BC0E5FF0CC0E5FF82
:104880000DC0E5FF020EDBCF00F0030EDBCF01F021
:10489000040EDBCF02F0050EDBCF03F0060EDBCFFC
:1048A00004F003C0E5FF04C0F4FF00C0E9FF01C04D
:1048B000F3FF025015EC35F00050020F056E000EAC
:1048C0000120066E000E0220076EE86A04BEFF0E8D
:1048D000086E04500C6E0C2608340D6ED8900C3601
:1048E0000D360344E844FC0B0B6E0350E844E844E7
:1048F000030B0C12E56A0BC0F4FF0CC0F6FF0DC0F1
:10490000F7FF05C0E9FF06C0F3FF0750BBEC34F02A
:10491000080E0026000E01220222E56AF46AF66AF9
:10492000F76A00C0E9FF01C0F3FF0250BBEC34F0AE
:10493000E4CF0DF0E4CF0CF0E4CF0BF0E4CF08F0BF
:10494000E4CF07F0E4CF06F0E4CF05F0E4CF04F0C5
:10495000E4CF03F0E4CF02F0E4CF01F0E4CF00F0C5
:10496000E4CFD9FF1200D9CFE5FFE1CFD9FF00C0D6
:10497000E5FF01C0E5FF02C0E5FF03C0E5FF04C09D
:10498000E5FF05C0E5FF06C0E5FF07C0E5FF08C07D
:10499000E5FF09C0E5FF0AC0E5FF0BC0E5FF0CC05D
:1049A000E5FF0DC0E5FF020EDBCF00F0030EDBCF0D
:1049B00001F0040EDBCF02F0050EDBCF03F0060E94
:1049C000DBCF04F0070EDBCF05F0080EDBCF06F0DF
:1049D000090EDBCF07F0086A096A0A6A0B6A200E23
:1049E0000C6E0350800BE8440D6E0050002601361B
:1049F000023603360850082609360A360B360D50A3
:104A0000D8A4088007500B5C08E106500A5C05E159
:104A10000550095C02E10450085C09E30450085E9B
:104A20000550095A06500A5A07500B5A00800C2E9E
:104A3000D8D703C0E9FF02C0F4FF01C0F3FF005064
:104A4000E4CF0DF0E4CF0CF0E4CF0BF0E4CF0AF0AC
:104A5000E4CF09F0E4CF08F0E4CF07F0E4CF06F0AC
:104A6000E4CF05F0E4CF04F0E4CF03F0E4CF02F0AC
:104A7000E4CF01F0E4CF00F0E4CFD9FF120000C092
:104A8000E5FF01C0E5FF02C0E5FF03C0E5FF72A23C
:104A900076D014EC33F0006E005005E10001E66BB7
:104AA0000001E56B6CD0E6C001F00050012614EC6B
:104AB00033F0026E00060250230A1FE1010E005C73
:104AC000D8A05BD014EC33F0026E690A03E15EEC0F
:104AD00031F053D00250720A03E1F9EC34F04DD0BA
:104AE0000250730A01E049D0898A7186A38AA3988B
:104AF000745074507198718840D00250430A05E098
:104B00000250420A01E039D001D0008E00C07CF191
:104B100000500F01006F010E01017D6F0001E65191
:104B2000011814E014EC33F0026E01017C27000E32
:104B300001017D25006E036A0F0E032200C0E9FF0C
:104B400003C0EAFF02C0EFFF7D2BE8D7000E010192
:104B50007D25006E026A0F0E022201017C1D036E8C
:104B6000032A00C0E9FF02C0EAFF03C0EFFF010112
:104B70007D2B7DC17AF10101746B01C0E6F0E4CFB9
:104B800003F0E4CF02F0E4CF01F0E4CF00F0120034
:104B9000D9CFE5FFE1CFD9FF00C0E5FF01C0E5FFB8
:104BA00002C0E5FF03C0E5FF04C0E5FF05C0E5FF67
:104BB00006C0E5FF07C0E5FF020EDBCF00F0030EE5
:104BC000DBCF01F0040EDBCF02F0050EDBCF03F0EC
:104BD00002C006F00650046E800A33E100C0E9FF0F
:104BE00001C0F3FF02506EEC33F0056EF3CF06F018
:104BF000F4CF07F003C0E5FF05C0E9FF06C0F3FFEF
:104C0000075038EC35F000C0E9FF01C0F3FF025057
:104C10006EEC33F0056EF3CF06F0F4CF07F0052A03
:104C200002E3064A072A05C0E5FF06C0F4FF07C0F5
:104C3000F6FF00C0E9FF01C0F3FF0250DCEC34F0E6
:104C40001DD004AA1BD0047A045004E1035071EC77
:104C500035F014D00450010A04E1035002EC00F0D6
:104C60000DD004500F0A04E103502DEC31F006D0B2
:104C700004500E0A03E1035081EC35F0E4CF07F055
:104C8000E4CF06F0E4CF05F0E4CF04F0E4CF03F086
:104C9000E4CF02F0E4CF01F0E4CF00F0E4CFD9FF9D
:104CA0001200D9CFE5FFE1CFD9FF00C0E5FF01C079
:104CB000E5FF02C0E5FF03C0E5FF04C0E5FF05C056
:104CC000E5FF06C0E5FF07C0E5FF08C0E5FF09C036
:104CD000E5FF0AC0E5FF0BC0E5FF0CC0E5FF020ED3
:104CE000DBCF00F0030EDBCF01F0040EDBCF02F0D0
:104CF000050EDBCF03F0060EDBCF04F0070EDBCF93
:104D000005F0080EDBCF06F0090EDBCF07F00250EE
:104D10000A6E0150096E0050086E06C00BF007C005
:104D20000CF0FF0E062607220B500C101AE003C0F1
:104D3000E9FF04C0F3FF0550AAEC34F00B6E032A20
:104D400002E3044A052A0BC0E5FF08C0E9FF09C0D9
:104D5000F3FF0A5038EC35F0082ADFE3094A0A2A43
:104D6000DCD702C0F4FF01C0F3FF0050E4CF0CF029
:104D7000E4CF0BF0E4CF0AF0E4CF09F0E4CF08F081
:104D8000E4CF07F0E4CF06F0E4CF05F0E4CF04F081
:104D9000E4CF03F0E4CF02F0E4CF01F0E4CF00F081
:104DA000E4CFD9FF1200D9CFE5FFE1CFD9FF00C092
:104DB000E5FF01C0E5FF02C0E5FF03C0E5FF04C059
:104DC000E5FF05C0E5FF06C0E5FF07C0E5FF020EF1
:104DD000DBCF00F0030EDBCF01F0040EDBCF02F0DF
:104DE000050EDBCF03F0E6C0E7F00001E55100015E
:104DF000E75FE70703C004F0056A030E0426D8B096
:104E0000052AE7C006F0076A0750800FF36E0550C9
:104E1000800FF35C02E10450065C02E2E8682BD0EC
:104E2000020E035C02E2E86A26D003060350E56E38
:104E300002EC2FF0E652046A0350045C14E20450C2
:104E40000024056EE86A0120066EE86A022005C0AB
:104E5000E9FF06C0F3FFAAEC34F0042AE56E02EC89
:104E60002FF0E652E9D7E6C0E7F00001E551000176
:104E7000E75FE707E86AE4CF07F0E4CF06F0E4CFA6
:104E800005F0E4CF04F0E4CF03F0E4CF02F0E4CF88
:104E900001F0E4CF00F0E4CFD9FF120000C0E5FF3D
:104EA00001C0E5FF02C0E5FF03C0E5FF04C0E5FF68
:104EB000006A690E0024016E026A010E022201C01E
:104EC000E9FF02C0EAFFEF6A002A020E005CF1E38C
:104ED000006A016A026A5C0E0124036E040E02205D
:104EE000046E03C0E9FF04C0EAFFEE6AEF6A550EE4
:104EF0000124036E0A0E0220046E03C0E9FF04C001
:104F0000EAFFEE6AEF6A750E0124036E0A0E0220B4
:104F1000046E03C0E9FF04C0EAFFEE6AEF6A950E73
:104F20000124036E0A0E0220046E03C0E9FF04C0D0
:104F3000EAFFEE6AEF6AB50E0124036E0A0E022044
:104F4000046E03C0E9FF04C0EAFFEE687F0EEF6E57
:104F5000020E0126D8B0022A002A100E005CD8A04A
:104F6000BAD7AF0EC06EC16A010EC26EC282E4CF64
:104F700004F0E4CF03F0E4CF02F0E4CF01F0E4CF9B
:104F800000F012004320412025642025640A00001F
:104F9000D9CFE5FFE1CFD9FF00C0E5FF01C0E5FFB4
:104FA00002C0E5FF03C0E5FF04C0E5FF05C0E5FF63
:104FB000020EDBCF00F0030EDBCF01F0040EDBCFDF
:104FC00002F00050020DF450036EF3CF00F0550EC6
:104FD0000024046E0A0E0320056E04C0E9FF05C01C
:104FE000EAFF01C0EEFF02C0EFFF750E0024046E61
:104FF0000A0E0320056E04C0E9FF05C0EAFFEECFEC
:1050000004F0EFCF05F00150045C016E025005582A
:10501000026ED50E00260A0E032200C0E9FF03C06F
:10502000EAFF01C0EEFF02C0EFFFD88002AED890C9
:1050300004E3021E016CD8B4022A0250800F800FD4
:1050400002E1030E015C02E2016A026A01500210F1
:1050500007E100C0E9FF03C0EAFF000EEE6AEF6A55
:10506000E4CF05F0E4CF04F0E4CF03F0E4CF02F0A6
:10507000E4CF01F0E4CF00F0E4CFD9FF1200D9CFA4
:10508000E5FFE1CFD9FF00C0E5FF01C0E5FF02C0A9
:10509000E5FF03C0E5FF04C0E5FF05C0E5FF06C06E
:1050A000E5FF020EDBCF00F0030EDBCF01F0040EB4
:1050B000DBCF02F0050EDBCF03F0D88001AED89035
:1050C000046A0436045007E0011C066E001C056EDD
:1050D000054A062A04D000C005F001C006F0D880B9
:1050E00003AED89007E3031C016E021C006E004A59
:1050F000012A04D002C000F003C001F00150E56EA7
:105100000050E56E0650E56E0550E56EA8EC2AF0FD
:10511000006EF3CF01F0040EE12604500AE0011CFA
:10512000036E001C026E024A032A03C0F3FF025002
:1051300003D001C0F3FF0050E4CF06F0E4CF05F048
:10514000E4CF04F0E4CF03F0E4CF02F0E4CF01F0C9
:10515000E4CF00F0E4CFD9FF1200D9CFE5FFE1CFD3
:10516000D9FF00C0E5FF01C0E5FF02C0E5FF03C0B5
:10517000E5FF04C0E5FF05C0E5FF020EDBCF00F050
:10518000030EDBCF01F0040EDBCF02F0050EDBCF08
:1051900003F067C104F068C105F00101673F01D069
:1051A000682B0350E56E0450E56E34EC32F0E652A5
:1051B000E65267C104F068C105F00101673F01D004
:1051C000682B0250056EE56E0450E56E34EC32F04B
:1051D000E652E65267C104F068C105F00101673F7D
:1051E00001D0682B0150056EE56E0450E56E34EC7D
:1051F00032F0E652E65267C104F068C105F00101E1
:10520000673F01D0682B0050E56E0450E56E34EC2A
:1052100032F0E652E652E4CF05F0E4CF04F0E4CFFA
:1052200003F0E4CF02F0E4CF01F0E4CF00F0E4CFEC
:10523000D9FF1200D9CFE5FFE1CFD9FF00C0E5FFCC
:1052400001C0E5FF02C0E5FF03C0E5FF04C0E5FFC4
:1052500005C0E5FF06C0E5FF020EDBCF00F0030E40
:10526000DBCF01F0040EDBCF02F00101735119E135
:105270000CEC23F0036EF3CF04F0F4CF05F0E9CF8C
:1052800006F003C0E5FF04C0F4FF05C0F6FF06C04A
:10529000F7FF00C0E9FF01C0F3FF0250BBEC34F0A0
:1052A0001ED001017351010A1AE100C0E9FF01C0DB
:1052B000F3FF0250F4EC32F0006EF3CF01F0F4CFC4
:1052C00002F0E9CF03F00350E56E0250E56E0150A5
:1052D000E56E0050E56EADEC28F0040EE126E4CF5B
:1052E00006F0E4CF05F0E4CF04F0E4CF03F0E4CF20
:1052F00002F0E4CF01F0E4CF00F0E4CFD9FF1200D8
:10530000D9CFE5FFE1CFD9FF00C0E5FF01C0E5FF40
:1053100002C0E5FF03C0E5FF04C0E5FF020EDBCFDE
:1053200000F0030EDBCF01F0040EDBCF02F00050E3
:10533000070F036E000E0120046E000E0220E56EC2
:105340000450E56E0350E56E86EC2EF0030EE12668
:105350000050230F036E000E0120046E000E022089
:10536000E56E0450E56E0350E56E5CEC2BF0030E29
:10537000E1260050330F036E000E0120046E000E74
:105380000220E56E0450E56E0350E56E49EC2AF00C
:10539000030EE126440E0026000E012202220250D6
:1053A000E56E0150E56E0050E56E49EC2AF0030E03
:1053B000E126E4CF04F0E4CF03F0E4CF02F0E4CF41
:1053C00001F0E4CF00F0E4CFD9FF1200D9CFE5FF20
:1053D000E1CFD9FF00C0E5FF01C0E5FF02C0E5FF56
:1053E00003C0E5FF04C0E5FF05C0E5FF06C0E5FF1B
:1053F000020EDBCF00F0030EDBCF01F0040EDBCF9B
:1054000002F0050EDBCF03F0060EDBCF04F0070E33
:10541000DBCF05F0080EDBCF06F0D88003AED890C6
:1054200015E306500A0A12E104C0E9FF05C0EAFFCD
:105430002D0EEF6E044A052A031E021E011E006C8B
:1054400005E1012A03E1022AD8B4032A0650E56ED9
:105450000550E56E0450E56E0350E56E0250E56EB2
:105460000150E56E0050E56E3AEC20F0070EE126A3
:10547000E4CF06F0E4CF05F0E4CF04F0E4CF03F08E
:10548000E4CF02F0E4CF01F0E4CF00F0E4CFD9FFA5
:105490001200D9CFE5FFE1CFD9FF00C0E5FF01C081
:1054A000E5FF02C0E5FF03C0E5FF04C0E5FF020E13
:1054B000DBCF00F0030EDBCF01F0040EDBCF02F0F8
:1054C0000250E56E0150E56E0050E56E86EC2EF060
:1054D000030EE1260050010F036E000E0120046E42
:1054E000000E0220E56E0450E56E0350E56E86EC7A
:1054F0002EF0030EE1260050020F036E000E012075
:10550000046E000E0220E56E0450E56E0350E56E59
:1055100086EC2EF0030EE1260F0E0026000E01226F
:1055200002220250E56E0150E56E0050E56E58EC27
:105530002CF0030EE126E4CF04F0E4CF03F0E4CF37
:1055400002F0E4CF01F0E4CF00F0E4CFD9FF120085
:10555000D9CFE5FFE1CFD9FF00C0E5FF01C0E5FFEE
:1055600002C0E5FF03C0E5FF04C0E5FF05C0E5FF9D
:1055700006C0E5FF020EDBCF00F0030EDBCF01F02B
:10558000040EDBCF02F0050EDBCF03F0046A056AE0
:105590000350800BE844066E065011E102500226CB
:1055A00003360350015C02E10250005C04E2D89033
:1055B0000332023204D0052A05C004F0E9D70350B3
:1055C000015C02E10250005C04E30250005E035003
:1055D000015AD8900332023204C005F00406055087
:1055E000EEE101C0F3FF0050E4CF06F0E4CF05F098
:1055F000E4CF04F0E4CF03F0E4CF02F0E4CF01F015
:10560000E4CF00F0E4CFD9FF1200D9CFE5FFE1CF1E
:10561000D9FF00C0E5FF01C0E5FF02C0E5FF03C000
:10562000E5FF04C0E5FF05C0E5FF06C0E5FF020E8B
:10563000DBCF00F0030EDBCF01F00038E8441F0B96
:10564000026E036A690E0226010E032202C0E9FF00
:1056500003C0EAFFEFCF04F0070E0014056E010E41
:10566000066E055005E0E86CD8900636010FFDE3A4
:105670000650041202C0E9FF03C0EAFF04C0EFFFB6
:10568000026A230E00260F0E022200C0E9FF02C0AC
:10569000EAFF01C0EFFFE4CF06F0E4CF05F0E4CF6E
:1056A00004F0E4CF03F0E4CF02F0E4CF01F0E4CF64
:1056B00000F0E4CFD9FF1200D9CFE5FFE1CFD9FF49
:1056C00000C0E5FF01C0E5FF02C0E5FF03C0E5FF44
:1056D00004C0E5FF020EDBCF00F0030EDBCF01F0CC
:1056E000040EDBCF02F00050060F036E000E012007
:1056F000046E000E0220E56E0450E56E0350E56E68
:1057000058EC2CF0030EE12600500C0F036E000E37
:105710000120046E000E0220E56E0450E56E035079
:10572000E56E58EC2CF0030EE1260E0E0026000E5E
:10573000012202220250E56E0150E56E0050E56E36
:1057400058EC2CF0030EE126E4CF04F0E4CF03F094
:10575000E4CF02F0E4CF01F0E4CF00F0E4CFD9FFD2
:10576000120000C0E5FF01C0E5FF02C0E5FF03C075
:10577000E5FF79C100F0016A84C102F0036A0250BA
:10578000005E0350015AE56A800EE56E0150E56E39
:105790000050E56E3FEC28F0006E040EE126000696
:1057A00084C101F0430E2DEC31F0200E2DEC31F0D0
:1057B0000050800F7F0F20E3600E0124026E036A09
:1057C000000E032202C0E9FF03C0EAFFEFCF02F0A0
:1057D000E56A0250E56E000EE56E6A0EE56E0A0E91
:1057E000E56E07EC2EF0050EE126012A0150800A35
:1057F00001E1016A0006DCD7E4CF03F0E4CF02F058
:10580000E4CF01F0E4CF00F01200D9CFE5FFE1CF03
:10581000D9FF00C0E5FF01C0E5FF02C0E5FF03C0FE
:10582000E5FF04C0E5FF020EDBCF00F0030EDBCF87
:1058300001F0040EDBCF02F0E56AF46A00C0E9FF74
:1058400001C0F3FF025015EC35F00050020F036E5B
:10585000000E0120046E000E0220E56AF46AF66A6A
:10586000F76A03C0E9FF04C0F3FFBBEC34F0080E95
:105870000026000E01220222E56AF46AF66AF76A3F
:1058800000C0E9FF01C0F3FF0250BBEC34F0E4CFED
:1058900004F0E4CF03F0E4CF02F0E4CF01F0E4CF72
:1058A00000F0E4CFD9FF120025642025640A00002F
:1058B000D9CFE5FFE1CFD9FF00C0E5FF01C0E5FF8B
:1058C00002C0E5FF03C0E5FF04C0E5FF020EDBCF29
:1058D00000F0030EDBCF01F0040EDBCF02F001017C
:1058E000735111E1C7EC30F0036EF3CF04F003C045
:1058F000E5FF04C0F4FF00C0E9FF01C0F3FF025060
:1059000015EC35F016D001017351010A12E100C007
:10591000E9FF01C0F3FF025045EC34F0006EF3CF15
:1059200001F00150E56E0050E56EC5EC2EF0E65238
:10593000E652E4CF04F0E4CF03F0E4CF02F0E4CF8A
:1059400001F0E4CF00F0E4CFD9FF1200CA0EF66EEA
:105950006A0EF76E000EF86E0900F550056E09002C
:10596000F550066E04E1056702D0F3EF2CF0090054
:10597000F550006E0900F550016E0900F550026EF9
:1059800009000900F550E96E0900F550EA6E0900BA
:1059900009000900F550036E0900F550046E090076
:1059A0000900F6CF07F0F7CF08F0F8CF09F000C0F4
:1059B000F6FF01C0F7FF02C0F8FF035002E10450F8
:1059C00007E00900F550EE6E0306F8E20406F9D789
:1059D00007C0F6FF08C0F7FF09C0F8FF050601E29F
:1059E0000606B2EF2CF01200D9CFE5FFE1CFD9FFC8
:1059F00000C0E5FF01C0E5FF02C0E5FF03C0E5FF11
:105A000004C0E5FF05C0E5FF020EDBCF00F000504B
:105A1000010A24E1016A026A036A950E0224046EF7
:105A20000A0E0320056E04C0E9FF05C0EAFFEE6818
:105A30007F0EEF6EB50E0224046E0A0E0320056E73
:105A400004C0E9FF05C0EAFFEE6AEF6A020E022613
:105A5000D8B0032A012A100E015CDFE300C0EBF08E
:105A6000E4CF05F0E4CF04F0E4CF03F0E4CF02F09C
:105A7000E4CF01F0E4CF00F0E4CFD9FF120000C082
:105A8000E5FF01C0E5FF02C0E5FF03C0E5FF99ECBB
:105A900023F0B9EC31F0006EF3CF01F0F4CF02F057
:105AA000E9CF03F00F013351005E3451015A3551F3
:105AB000025A3651035A039E3F0E035C08E1FF0E63
:105AC000025C05E1FF0E015C02E1FF0E005C14E2E6
:105AD000B9EC31F0F3CF01F0F4CF02F0E9CF03F0ED
