:020000040000FA
:10000000A1EF2FF0C96E1200D3EF2CF0ACA2FED7F7
:10001000AD6E120012001200FCEF16F0D9CFE5FF12
:10002000E1CFD9FF00C0E5FF01C0E5FF02C0E5FF59
:1000300003C0E5FF04C0E5FF05C0E5FF06C0E5FF1E
:1000400007C0E5FF08C0E5FF09C0E5FF0AC0E5FFFE
:100050000BC0E5FF0CC0E5FF0DC0E5FF0EC0E5FFDE
:100060000FC0E5FF10C0E5FF11C0E5FF12C0E5FFBE
:1000700013C0E5FF14C0E5FF15C0E5FF16C0E5FF9E
:1000800017C0E5FF18C0E5FF19C0E5FF1AC0E5FF7E
:100090001BC0E5FF1CC0E5FF1DC0E5FF1EC0E5FF5E
:1000A0001FC0E5FF20C0E5FF21C0E5FF22C0E5FF3E
:1000B00023C0E5FF24C0E5FF25C0E5FF26C0E5FF1E
:1000C00027C0E5FF28C0E5FF29C0E5FF020EDBCF12
:1000D00000F0030EDBCF01F0040EDBCF02F0025084
:1000E000086E0150076E0050066EE56A100EE56E50
:1000F0000850E56E0750E56E0650E56E800EE56E21
:10010000010EE56E210EE56EA1EC23F0080EE1264E
:1001100029C103F02AC104F02BC105F02CC106F05F
:1001200003C007F004C008F005C009F006C00AF0DB
:10013000D8800AAED8900AE30A1E091E081E076C72
:1001400005E1082A03E1092AD8B40A2A21C10BF0E3
:1001500022C10CF0E86A010122BFFF0E0D6E0E6E87
:1001600023C10FF024C110F025C111F026C112F0F7
:10017000D8901130146E1030136ED89014321332A0
:100180001250E840E840C00B14121240E8403F0B08
:10019000E8BAC009156E166A15BE166813500B5CD6
:1001A000136E14500C58146E15500D58156E1650D1
:1001B0000E58166E800F810F08E1FF0E155C05E1E9
:1001C000FF0E145C02E1FE0E135CD8A04ED0165058
:1001D000800F800F08E1000E155C05E1000E145C35
:1001E00002E1030E135CD8B040D00A340A301A6E14
:1001F0000930196E0830186E0730176E2FC11BF0CA
:1002000030C11CF0E86A010130BFFF0E1D6E800F87
:10021000F36E1A50800FF35C08E119501D5C05E184
:1002200018501C5C02E117501B5C1FE30C50196E48
:1002300019260D341A6ED89019361A360B44E84434
:10024000FC0B186E0B50E844E844030B1912010133
:10025000236B1850246F1950256F1A50266F296B85
:100260002A6B2B6B2C6BA9EF04F00850076E09501A
:10027000086ED89008320732D890083207320A50F8
:10028000E840E840C00B08120A40E8403F0BE8BADB
:10029000C0090A6A083408300A6E0730096EE86A35
:1002A0000ABEFF0E0B6E0C6E07C00DF008C00EF0FC
:1002B000E86A08BEFF0E176EE56E1750E56E0E5029
:1002C000E56E0D50E56E0C50E56E0B50E56E0A5074
:1002D000E56E0950E56E31EC19F0096EF3CF0AF0C6
:1002E000F4CF0BF0E9CF0CF0080EE1262FC10DF092
:1002F00030C10EF00DC017F00EC018F0E86A0EBE47
:10030000FF0E196E1A6EE56E1950E56E1850E56E07
:100310001750E56E0C50E56E0B50E56E0A50E56E19
:100320000950E56EEEEC1DF0096EF3CF0AF0080EF1
:10033000E12627C10BF028C10CF0E86A010128BFB3
:10034000FF0E1B6E0C501F6E1F261B34206ED890A4
:100350001F3620360B44E844FC0B1E6E0B50E8445D
:10036000E844030B1F121D6AD88006AED890D8B09F
:1003700056D109C00BF00AC00CF0E86A0ABEFF0EA5
:100380001B6E800FF36E1650800FF35C08E1155062
:100390001B5C05E114500C5C02E113500B5CD8B0FF
:1003A00016D10650800FF36E2050800FF35C08E1E9
:1003B0001F50055C05E11E50045C02E11D50035C0A
:1003C000D8B0DED02DC10BF02EC10CF00BC01BF04D
:1003D0000CC01CF0E86A0CBEFF0E216E226E0350AA
:1003E0001B2604501C2205502122065022221B509D
:1003F0000101296F1C502A6F21502B6F22502C6F46
:100400000E50800FF36E0C50800FF35C02E10B5026
:100410000D5CD8B099D029C11BF02AC11CF02BC1AA
:1004200021F02CC122F0D8902130246E1C30236E94
:10043000D890243223322250E840E840C00B2412E6
:100440002240E8403F0BE8BAC009266A2350076EF5
:100450002450086E08340830246E0730236EE86A92
:1004600024BEFF0E256E266E07C027F008C028F0B8
:10047000E86A08BEFF0E296EE56E2950E56E285029
:10048000E56E2750E56E2650E56E2550E56E24504A
:10049000E56E2350E56E31EC19F0236EF3CF24F0B6
:1004A000F4CF25F0E9CF26F0080EE1261A50E56ECC
:1004B0001950E56E1850E56E1750E56E2650E56E42
:1004C0002550E56E2450E56E2350E56EEEEC1DF0F0
:1004D000236EF3CF24F0080EE1262350096E24503A
:1004E0000A6E09C023F00AC024F0E86A0ABEFF0EB3
:1004F000256E266E1650800FF36E2650800FF35C2B
:1005000008E12550155C05E12450145C02E12350FC
:10051000135C1AE20D500B5E0E500C5AE86A0CBECA
:10052000FF0E236E246E0B501B5E0C501C5A235082
:10053000215A2450225A1B500101296F1C502A6F46
:1005400021502B6F22502C6F2050800FF36E010131
:100550002C51800FF35C08E12B511F5C05E12A51FF
:100560001E5C02E129511D5CD8B0CCD11D500101A7
:10057000296F1E502A6F1F502B6F20502C6FC2D135
:100580002050800FF36E0650800FF35C08E1055099
:100590001F5C05E104501E5C02E103501D5CD8B0F5
:1005A000B1D11750035C0B6E185004580C6E1950E3
:1005B00005581B6E1A5006581C6E0B500101296F0E
:1005C0000C502A6F1B502B6F1C502C6F9BD12DC1D0
:1005D0000BF02EC10CF0E86A01012EBFFF0E1B6E5E
:1005E0001C6E17500B2618500C2219501B221A5043
:1005F0001C220B50035C0B6E0C5004580C6E1B50ED
:1006000005581B6E1C5006581C6E0B500101296FBB
:100610000C502A6F1B502B6F1C502C6F73D10A1E6D
:10062000096CD8B40A2A09C00BF00AC00CF0E86AB9
:100630000ABEFF0E1B6E1C6E1650800FF36E1C5010
:10064000800FF35C08E11B50155C05E10C50145C55
:1006500002E10B50135CD8B032D1201C1C6E1F1C61
:100660001B6E1E1C0C6E1D1C0B6E0B2A04E10C2A4B
:1006700002E11B4A1C2A1C50800FF36E0650800FAB
:10068000F35C08E105501B5C05E104500C5C02E1E1
:1006900003500B5CD8B0ECD02DC11DF02EC11EF064
:1006A0001DC01FF01EC020F0E86A1EBEFF0E216EA6
:1006B000226E1F50035C1F6E20500458206E215084
:1006C0000558216E22500658226E1F500101296FD5
:1006D00020502A6F21502B6F22502C6F0E50800F0C
:1006E000F36E1E50800FF35C02E11D500D5CD8B01C
:1006F000A3D029C11FF02AC120F02BC121F02CC1A9
:1007000022F0D8902130246E2030236ED8902432ED
:1007100023322250E840E840C00B24122240E84037
:100720003F0BE8BAC009256E266A25BE2668261E3C
:10073000251E241E236C05E1242A03E1252AD8B4B2
:10074000262A2350076E2450086E08340830246E81
:100750000730236EE86A24BEFF0E256E266EE86A17
:1007600008BEFF0E276EE56E2750E56E0850E56E59
:100770000750E56E2650E56E2550E56E2450E56E77
:100780002350E56E31EC19F0076EF3CF08F0F4CF8B
:1007900023F0E9CF24F0080EE1261A50E56E195037
:1007A000E56E1850E56E1750E56E2450E56E235047
:1007B000E56E0850E56E0750E56EEEEC1DF0076E35
:1007C000F3CF08F0080EE126081E076C02E1082AA4
:1007D00000E10750096E08500A6EE86A0ABEFF0E73
:1007E000076E800FF36E1650800FF35C08E1155012
:1007F000075C05E114500A5C02E11350095C1CE23D
:100800000D501D5C0D6E0E501E580E6EE86A0EBE29
:10081000FF0E076E086E0D501F260E502022075047
:100820002122085022221F500101296F20502A6FD7
:1008300021502B6F22502C6F01012C51800FF36E31
:100840001C50800FF35C08E11B502B5D05E10C5040
:100850002A5D02E10B50295DD8B054D00B50010144
:10086000296F0C502A6F1B502B6F1C502C6F4AD0D5
:100870000650800FF36E1C50800FF35C08E11B5094
:10088000055C05E10C50045C02E10B50035CD8B040
:1008900039D017500324076E18500420086E1950E1
:1008A0000520096E1A5006200A6E07500101296FB3
:1008B00008502A6F09502B6F0A502C6F23D02DC17E
:1008C00007F02EC108F0E86A01012EBFFF0E096E85
:1008D0000A6E0750172608501822095019220A508C
:1008E0001A221750032618500422195005221A50B4
:1008F000062203500101296F04502A6F05502B6F07
:1009000006502C6FD89001012B31046E2A31036EF2
:10091000D890043203322C51E840E840C00B041256
:100920002C41E8403F0BE8BAC009056E066A05BED7
:10093000066803500F26045010220550112206505D
:1009400012220F50236F1050246F1150256F125038
:10095000266FE56A100EE56E800EE56E010EE56EFF
:10096000210EE56E0250E56E0150E56E0050E56E19
:10097000A1EC23F0080EE126E4CF29F0E4CF28F023
:10098000E4CF27F0E4CF26F0E4CF25F0E4CF24F045
:10099000E4CF23F0E4CF22F0E4CF21F0E4CF20F045
:1009A000E4CF1FF0E4CF1EF0E4CF1DF0E4CF1CF045
:1009B000E4CF1BF0E4CF1AF0E4CF19F0E4CF18F045
:1009C000E4CF17F0E4CF16F0E4CF15F0E4CF14F045
:1009D000E4CF13F0E4CF12F0E4CF11F0E4CF10F045
:1009E000E4CF0FF0E4CF0EF0E4CF0DF0E4CF0CF045
:1009F000E4CF0BF0E4CF0AF0E4CF09F0E4CF08F045
:100A0000E4CF07F0E4CF06F0E4CF05F0E4CF04F044
:100A1000E4CF03F0E4CF02F0E4CF01F0E4CF00F044
:100A2000E4CFD9FF1200D9CFE5FFE1CFD9FF00C055
:100A3000E5FF01C0E5FF02C0E5FF03C0E5FF04C01C
:100A4000E5FF05C0E5FF06C0E5FF07C0E5FF08C0FC
:100A5000E5FF09C0E5FF0AC0E5FF0BC0E5FF0CC0DC
:100A6000E5FF0DC0E5FF0EC0E5FF0FC0E5FF10C0BC
:100A7000E5FF11C0E5FF12C0E5FF13C0E5FF14C09C
:100A8000E5FF15C0E5FF16C0E5FF17C0E5FF18C07C
:100A9000E5FF19C0E5FF1AC0E5FF1BC0E5FF1CC05C
:100AA000E5FF1DC0E5FF1EC0E5FF020EDBCF00F035
:100AB000030EDBCF01F0040EDBCF02F0050EDBCF1F
:100AC00003F0060EDBCF04F0070EDBCF05F0080EB7
:100AD000DBCF06F0090EDBCF07F00A0EDBCF08F004
:100AE000096A0A6A02C00DF00D50800A0DE1025039
:100AF0000101A06F01509F6F00509E6F010E016EAB
:100B00009E0E006E800E026E03C0E9FF04C0F3FF6C
:100B10000550B5EC2FF00B6E0B50D8B4EFEF08F08A
:100B20000B50250A02E0D4EF08F00C6A0D6A0E6A39
:100B30000F6A106A0A0E116E126A136A146A200E86
:100B4000156E1668176A2B0E186E032AD8B0042A81
:100B5000D8B0052A03C0E9FF04C0F3FF0550B5EC87
:100B60002FF0196E250A15E11950E56E0250E56E59
:100B70000150E56E0050E56E26EC24F0040EE126EF
:100B8000092AD8B00A2A032AD8B0042AD8B0052ADC
:100B9000BBD71950300A07E1300E156E032AD8B0C2
:100BA000042AD8B0052A03C0E9FF04C0F3FF0550AA
:100BB000B5EC2FF02D0A07E1010E146E032AD8B010
:100BC000042AD8B0052A03C0E9FF04C0F3FF05508A
:100BD000B5EC2FF0200A09E1010E176E200E186EF9
:100BE000032AD8B0042AD8B0052A03C0E9FF04C0FC
:100BF000F3FF0550B5EC2FF02B0A07E1010E176E3D
:100C0000032AD8B0042AD8B0052A03C0E9FF04C0DB
:100C1000F3FF0550B5EC2FF0196E800F4F0F2FE347
:100C20001950800F460F2BE203C019F004C01AF0D0
:100C300005C01BF019C0E9FF1AC0F3FF1B50B5EC4B
:100C40002FF01C6E800F500F14E31C50800F460FC6
:100C500010E213500A0DF3CF1DF01D501C26D00ECC
:100C60001C261C50136E192AD8B01A2AD8B01B2A79
:100C7000E1D719C003F01AC004F01BC005F003C08F
:100C8000E9FF04C0F3FF0550B5EC2FF02E0A31E167
:100C9000032AD8B0042AD8B0052A166A03C019F06E
:100CA00004C01AF005C01BF019C0E9FF1AC0F3FF19
:100CB0001B50B5EC2FF01C6E800F500F14E31C502E
:100CC000800F460F10E216500A0DF3CF1DF01D5095
:100CD0001C26D00E1C261C50166E192AD8B01A2AB3
:100CE000D8B01B2AE1D719C003F01AC004F01BC00A
:100CF00005F003C0E9FF04C0F3FF0550B5EC2FF089
:100D0000196E6C0A08E1010E0C6E032AD8B0042A91
:100D1000D8B0052A0AD01950680A07E1010E0E6EF4
:100D2000032AD8B0042AD8B0052A03C0E9FF04C0BA
:100D3000F3FF0550B5EC2FF0750A07E1010E106EB8
:100D4000032AD8B0042AD8B0052A03C0E9FF04C09A
:100D5000F3FF0550B5EC2FF0196E730A05E1010E93
:100D60000D6E200E156E41D01950780A03E1100E59
:100D7000116E3BD01950580A05E1100E116E010E8C
:100D8000126E33D01950630A02E1116A2ED0195045
:100D90006F0A03E1080E116E28D01950660A03E1AC
:100DA000010E0F6E22D01950640A1FE01950690A13
:100DB0001CE0105005E0FF0E03260422052215D08A
:100DC0001950E56E0250E56E0150E56E0050E56E7B
:100DD00026EC24F0040EE126092AD8B00A2A032AB8
:100DE000D8B0042AD8B0052A8FD60D5021E006507D
:100DF000030F0D6E000E0720196E000E08201A6EEC
:100E00000DC006F019C007F01AC008F0FD0E0D263F
:100E1000FF0E19221A220DC0E9FF19C0F3FF1A5064
:100E20002BEC2FF00D6EF3CF19F0F4CF1AF008D1A0
:100E30000F500DE0000E1A6E120E196E660E0D6E3A
:100E4000040E0626000E072208221668F9D016683E
:100E50000C5023E00650040F0C6E000E07200F6E9E
:100E6000000E08201B6E0CC006F00FC007F01BC060
:100E700008F0FC0E0C26FF0E0F221B220CC0E9FF0F
:100E80000FC0F3FF1B50D0EC2EF00C6EF3CF0FF021
:100E9000F4CF1BF0E9CF1CF06AD00E5032E00650C0
:100EA000020F0E6E000E07201D6E000E08201E6E33
:100EB0000EC006F01DC007F01EC008F0FE0E0E2684
:100EC000FF0E1D221E220EC0E9FF1DC0F3FF1E50A3
:100ED0008BEC2FF00E6E0EC00CF0E86A0EBEFF0E0B
:100EE0000F6E1B6E1C6E11500A0A03E11050D8B42D
:100EF0003ED00C500E6E0EC00CF00F6A1B6A1C6ABE
:100F000036D00650020F0E6E000E07201D6E000E2A
:100F100008201E6E0EC006F01DC007F01EC008F0AF
:100F2000FE0E0E26FF0E1D221E220EC0E9FF1DC062
:100F3000F3FF1E508BEC2FF00E6EF3CF1DF00EC0A2
:100F40000CF01DC00FF0E86A1DBEFF0E1B6E1C6E7C
:100F500011500A0A02E110500AE00C500E6E0F50B8
:100F60001D6E0EC00CF01DC00FF01B6A1C6A0A0E2D
:100F7000196EF30E0D6E800E1A6E1150D8B448D053
:100F800010501BE00C500E6E0F50106E1B501D6E5B
:100F90001C501E6E1150E56E0A0EE56EF30EE56EE6
:100FA0001E50E56E1D50E56E1050E56E0E50E56E5C
:100FB0000EEC1DF0070EE12612D01150E56E0A0E60
:100FC000E56EF30EE56E1C50E56E1B50E56E0F509E
:100FD000E56E0C50E56E3DEC27F0070EE12617504C
:100FE0002FE00DC0E9FF19C0F3FF1A50B5EC2FF048
:100FF0002D0A26E0FF0E0D2619221A2218C0E5FF41
:101000000DC0E9FF19C0F3FF1A5030EC30F018D0D2
:101010000CC0E5FF0DC0E9FF19C0F3FF1A5030EC1A
:1010200030F00D50010F0C6E000E19200E6E000EE8
:101030001A20E56A0CC0E9FF0EC0F3FF30EC30F077
:101040000DC00CF019C00EF01AC00FF013C010F054
:10105000105011E00CC0E9FF0EC0F3FF0F50B5ECCB
:101060002FF0176E175007E00C2AD8B00E2AD8B010
:101070000F2A1006EDD710C013F014501FE109C05D
:101080000CF00AC00EF010C00FF00F5011E0155018
:10109000E56E0250E56E0150E56E0050E56E26ECFF
:1010A00024F0040EE1260C2AD8B00E2A0F06EDD744
:1010B0000CC009F00EC00AF00FC013F016C00CF0FF
:1010C0000DC00DF019C00EF01AC00FF009C010F0DD
:1010D0000AC015F00DC0E9FF0EC0F3FF0F50B5ECCC
:1010E0002FF0166E1650D8B440D00CC016F0176A08
:1010F000161E171E1650171005E00CC016F00C0631
:10110000165033E00DC0E9FF0EC0F3FF0F50B5ECF1
:101110002FF0116E125010E01150E56E5EEC2FF0C2
:10112000166EE12A165004E01150166E169A02D07F
:101130001150166E1650116E1150E56E0250E56E8C
:101140000150E56E0050E56E26EC24F0040EE12619
:101150000D2AD8B00E2AD8B00F2A102AD8B0152AD6
:101160001350D8B4B7D71306B5D710C009F015C0BF
:101170000AF014502DE010C00CF015C00DF013C093
:101180000EF00E5021E0200EE56E0250E56E01508B
:10119000E56E0050E56E26EC24F0040EE1260C2AE4
:1011A000D8B00D2A0E06EDD70B50E56E0250E56E55
:1011B0000150E56E0050E56E26EC24F0040EE126A9
:1011C000092AD8B00A2A04D00CC009F00DC00AF0D0
:1011D000032AD8B0042AD8B0052A84EF05F00AC043
:1011E000F3FF0950E4CF1EF0E4CF1DF0E4CF1CF074
:1011F000E4CF1BF0E4CF1AF0E4CF19F0E4CF18F0FD
:10120000E4CF17F0E4CF16F0E4CF15F0E4CF14F0FC
:10121000E4CF13F0E4CF12F0E4CF11F0E4CF10F0FC
:10122000E4CF0FF0E4CF0EF0E4CF0DF0E4CF0CF0FC
:10123000E4CF0BF0E4CF0AF0E4CF09F0E4CF08F0FC
:10124000E4CF07F0E4CF06F0E4CF05F0E4CF04F0FC
:10125000E4CF03F0E4CF02F0E4CF01F0E4CF00F0FC
:10126000E4CFD9FF12003C4E4F20464C4F41543E34
:101270000000D9CFE5FFE1CFD9FF00C0E5FF01C0F5
:10128000E5FF02C0E5FF03C0E5FF04C0E5FF05C0C0
:10129000E5FF06C0E5FF07C0E5FF08C0E5FF09C0A0
:1012A000E5FF0AC0E5FF0BC0E5FF0CC0E5FF0DC080
:1012B000E5FF0EC0E5FF0FC0E5FF10C0E5FF11C060
:1012C000E5FF12C0E5FF13C0E5FF14C0E5FF15C040
:1012D000E5FF16C0E5FF17C0E5FF18C0E5FF19C020
:1012E000E5FF020EDBCF00F0030EDBCF01F0040EB2
:1012F000DBCF02F00250086E0150076E0050066E00
:10130000E56A250EE56E0850E56E0750E56E06505D
:10131000E56E800EE56E0A0EE56E6F0EE56EA1ECD1
:1013200023F0080EE1267CCA03F07DCA04F07ECAD1
:1013300005F07FCA06F003C007F004C008F005C03E
:1013400009F006C00AF0D8800AAED8900AE30A1E57
:10135000091E081E076C05E1082A03E1092AD8B412
:101360000A2A74CA0BF075CA0CF076CA0DF077CA57
:101370000EF078CA0FF079CA10F0D8900F30126EC4
:101380000E30116ED890123211321050E840E84001
:10139000C00B12121040E8403F0B11500B5C116E55
:1013A00012500C58126E800F810F02E1FE0E115C7C
:1013B000D8A04BD01250800F800F02E1030E115CB9
:1013C000D8B043D00A340A30166E0930156E083092
:1013D000146E0730136E80CA17F081CA18F0E86ADD
:1013E0000A0181BFFF0E196E800FF36E1650800F39
:1013F000F35C08E11550195C05E11450185C02E13A
:101400001350175C22E3E86A0CBEFF0E136E0C50FB
:10141000176E17261334186ED890173618360B44EB
:10142000E844FC0B166E0B50E844E844030B17121B
:101430000A01766B1650776F1750786F1850796FD6
:101440007C6B7D6B7E6B7F6B36D10850076E0950CD
:10145000086ED89008320732D890083207320A5006
:10146000E840E840C00B08120A40E8403F0BE8BAE9
:10147000C009096E0A6A09BE0A68072AD8B0082A94
:10148000D8B0092AD8B00A2AE86A08BEFF0E096E49
:101490000A6E0A340A30146E0930136E08300C6E6E
:1014A00007300B6E0A50E56E0950E56E0850E56E88
:1014B0000750E56E1450E56E1350E56E0C50E56E66
:1014C0000B50E56E31EC19F0076EF3CF08F0F4CF56
:1014D00009F0E9CF0AF0080EE12680CA0BF081CAB4
:1014E0000CF0E86A0A0181BFFF0E136E146EE56E00
:1014F0001350E56E0C50E56E0B50E56E0A50E56E2C
:101500000950E56E0850E56E0750E56EEEEC1DF0F3
:10151000076EF3CF08F0080EE126D88006AED8900B
:1015200004E3081E076CD8B4082A0850800FF36E35
:101530001250800FF35C02E11150075C16E20B5071
:101540000324096E0C5004200A6E13500520116EFE
:1015500014500620126E09500A017C6F0A507D6FEC
:1015600011507E6F12507F6F11D00B50035E0C50E4
:10157000045A1350055A1450065A03500A017C6F3E
:1015800004507D6F05507E6F06507F6F7ACA03F05E
:101590007BCA04F0E86A0A017BBFFF0E056E0450A7
:1015A0000B6E0B2605340C6ED8900B360C360344AC
:1015B000E844FC0B0A6E0350E844E844030B0B12AA
:1015C000096A7CCA03F07DCA04F07ECA05F07FCAAE
:1015D00006F00C50800FF36E0650800FF35C08E1AC
:1015E00005500B5C05E104500A5C02E10350095C04
:1015F0000AE209500A017C6F0A507D6F0B507E6F22
:101600000C507F6F2DD0061E051E041E036C05E1D5
:10161000042A03E1052AD8B4062A0C50800FF36E81
:101620000650800FF35C08E105500B5C05E10450A7
:101630000A5C02E10350095C13E20C1E0B1E0A1E39
:10164000096C05E10A2A03E10B2AD8B40C2A0950D7
:101650000A017C6F0A507D6F0B507E6F0C507F6FBC
:10166000D8900A017E31046E7D31036ED890043229
:1016700003327F51E840E840C00B04127F41E8404C
:101680003F0BE8BAC009056E066A05BE066803503E
:101690000D2604500E2205500F22065010220D5028
:1016A000766F0E50776F0F50786F1050796F07502C
:1016B000926F0850936F90CA03F091CA04F00450DF
:1016C000800F750F02E1B90E035C0DE3B90E0A013C
:1016D000906F0B0E916F866B876B886B896B6F9326
:1016E0008A6B8B6B76D10A016F8372CA05F073CA5D
:1016F00006F08E51051803E18F51061801E009D05C
:10170000032AD8B0042A03500A01906F0450916F45
:1017100003D00A01906B916B05500A018E6F065041
:101720008F6FD8907831046E7731036ED890043281
:1017300003327951E840E840C00B04127941E84097
:101740003F0B0550035C056E06500458066EE86AB0
:1017500006BEFF0E036E046E05508625076E06500A
:101760008721086E03508821096E045089210A6E72
:101770000750866F0850876F0950886F0A50896F2D
:1017800082CA0BF0E56AE56AE56A0B50E56E045023
:10179000E56E0350E56E0650E56E0550E56E31ECE2
:1017A00019F0036EF3CF04F0F4CF05F0E9CF06F0A3
:1017B000080EE12686CA0BF087CA0CF088CA0DF025
:1017C00089CA0EF083CA0FF0E56AE56AE56A0F5030
:1017D000E56E0A50E56E0950E56E0850E56E07505B
:1017E000E56E31EC19F0F3CF08F0F4CF09F0E9CF52
:1017F0000AF0080EE1260850076E0950086EF00E38
:101800000716073A083A0814081A07260A50E83853
:10181000F00B08120A380F0BE8B6F009096E0A6AD5
:1018200009BE0A6807500326085004220950052201
:101830000A5006228CCA07F08DCA08F007C009F0CA
:1018400008C00AF0E86A08BEFF0E0F6E106E800F27
:10185000F36E0650800FF35C08E105500F5C05E164
:1018600004500A5C02E10350095CD8B049D007502B
:101870000A018A6F08508B6F0950035C116E0A5081
:101880000458126E0F500558136E10500658146EFF
:1018900085CA15F0E56AE56AE56A1550E56E1450EB
:1018A000E56E1350E56E1250E56E1150E56E31ECA9
:1018B00019F0F3CF12F0F4CF13F0E9CF14F0080EC3
:1018C000E1261250116E1350126E1450136E146AEA
:1018D00013BE146811500B5C116E12500C58126E2E
:1018E00013500D58136E14500E58146E11500A01F7
:1018F000866F1250876F1350886F1450896F69D0AC
:10190000061C146E051C136E041C126E031C116E53
:10191000112A04E1122A02E1134A142A1050800FFE
:10192000F36E1450800FF35C08E113500F5C05E177
:1019300012500A5C02E11150095CD8B045D0081E73
:10194000076CD8B4082A07500A018A6F08508B6FB9
:101950000350092604500A2205500F220650102277
:1019600085CA07F0E56AE56AE56A0750E56E10503A
:10197000E56E0F50E56E0A50E56E0950E56E31ECEC
:1019800019F0F3CF08F0F4CF09F0E9CF0AF0080E10
:10199000E1260850076E0950086E0A50096E0A6A5F
:1019A00009BE0A6807500B5E08500C5A09500D5AC0
:1019B0000A500E5A0B500A01866F0C50876F0D505B
:1019C000886F0E50896F05D003500A018A6F04504A
:1019D0008B6FE56A250EE56E800EE56E0A0EE56EEC
:1019E0006F0EE56E0250E56E0150E56E0050E56E3B
:1019F000A1EC23F0080EE126E4CF19F0E4CF18F0B3
:101A0000E4CF17F0E4CF16F0E4CF15F0E4CF14F0F4
:101A1000E4CF13F0E4CF12F0E4CF11F0E4CF10F0F4
:101A2000E4CF0FF0E4CF0EF0E4CF0DF0E4CF0CF0F4
:101A3000E4CF0BF0E4CF0AF0E4CF09F0E4CF08F0F4
:101A4000E4CF07F0E4CF06F0E4CF05F0E4CF04F0F4
:101A5000E4CF03F0E4CF02F0E4CF01F0E4CF00F0F4
:101A6000E4CFD9FF1200D9CFE5FFE1CFD9FF00C005
:101A7000E5FF01C0E5FF02C0E5FF03C0E5FF04C0CC
:101A8000E5FF05C0E5FF06C0E5FF07C0E5FF08C0AC
:101A9000E5FF09C0E5FF0AC0E5FF0BC0E5FF020E48
:101AA000DBCF00F0030EDBCF01F0040EDBCF02F042
:101AB000050EDBCF03F0046A056A39EC2EF0066EE2
:101AC000080A08E00650090A33E00650FE0A01E160
:101AD0004DD05CD100C007F001C008F002C009F091
:101AE00039EC2EF0010BF46E07C0E9FF08C0F3FFDC
:101AF0000950B5EC2FF0FE0BF410E56E07C0E9FFBE
:101B000008C0F3FF095030EC30F00050170F076E9B
:101B1000000E0120086E000E0220E56AF46AF66AE3
:101B2000F76A07C0E9FF08C0F3FFC6EC2FF02ED11B
:101B300000C007F001C008F002C009F039EC2EF037
:101B4000010BE838E840F46E07C0E9FF08C0F3FF76
:101B50000950B5EC2FF0F70BF410E56E07C0E9FF64
:101B600008C0F3FF095030EC30F010D139EC2EF002
:101B7000076E075028E00750010A39E00750020AB3
:101B800001E147D00750030A01E155D00750040A8C
:101B900001E164D00750050A01E173D00750060A3D
:101BA00001E182D00750070A01E191D00750080AED
:101BB00001E19FD00750090A01E1AED00750640A45
:101BC00001E1BFD0CFD00050010F086E000E012000
:101BD000096E000E022008C0E9FF09C0F3FF8BEC7C
:101BE0002FF0F3CF09F0046E0950056EBBD0005002
:101BF0000B0F086E000E0120096E000E022008C0B7
:101C0000E9FF09C0F3FF8BEC2FF0046EF3CF05F072
:101C1000A9D00050110F086E000E0120096E000EB1
:101C2000022008C0E9FF09C0F3FF8BEC2FF0046E1F
:101C3000F3CF05F097D00050130F086E000E01206F
:101C4000096E000E022008C0E9FF09C0F3FFB5ECE1
:101C50002FF0086E08C004F0056A84D00050140FFD
:101C6000086E000E0120096E000E022008C0E9FF78
:101C700009C0F3FFB5EC2FF0086E08C004F0056A48
:101C800071D00050150F086E000E0120096E000E75
:101C9000022008C0E9FF09C0F3FFB5EC2FF0086E81
:101CA00008C004F0056A5ED00050160F086E000EE2
:101CB0000120096E000E022008C0E9FF09C0F3FFF1
:101CC000B5EC2FF0086E08C004F0056A4BD0005048
:101CD0001D0F086E000E0120096E000E022008C0C4
:101CE000E9FF09C0F3FF8BEC2FF0046EF3CF05F092
:101CF00039D000C008F001C009F002C00AF008C0E5
:101D0000E9FF09C0F3FF0A50B5EC2FF0010B086E94
:101D100008C004F0056A26D000C008F001C009F030
:101D200002C00AF008C0E9FF09C0F3FF0A50B5EC91
:101D30002FF0E838E844010B086E08C004F0056A8B
:101D400011D00050050F086E000E0120096E000E24
:101D5000022008C0E9FF09C0F3FF8BEC2FF0046EEE
:101D6000F3CF05F00550E56E0450E56EE56A0750C7
:101D7000E56EE56A0350E56E000EE56E380EE56E21
:101D80003A0EE56E29EC2BF0090EE12600C003F0B7
:101D900001C007F002C008F003C0E9FF07C0F3FF6D
:101DA0000850B5EC2FF0E840E840010B036E0350FB
:101DB000D8B449D1065021E00650010A01E146D0CD
:101DC0000650020A01E16BD00650030A01E190D0EF
:101DD0000650040A01E1A2D00650050A01E1C6D06E
:101DE0000650060A01E1D8D00650070A01E1EAD000
:101DF0000650640A01E10FD126D10050010F036E95
:101E0000000E0120066E000E0220076E39EC2EF047
:101E1000086A096EE56A09C0F4FF03C0E9FF06C05D
:101E2000F3FF075019EC30F039EC2EF00B6A08265E
:101E30000B50092208C0E5FF09C0F4FF03C0E9FF09
:101E400006C0F3FF075019EC30F0FDD000500B0F27
:101E5000036E000E0120066E000E0220076E39ECA4
:101E60002EF00B6E0A6AE56A0BC0F4FF03C0E9FFAF
:101E700006C0F3FF075019EC30F039EC2EF0096A78
:101E80000A2609500B220AC0E5FF0BC0F4FF03C06D
:101E9000E9FF06C0F3FF075019EC30F0D4D0005032
:101EA000110F036E000E0120066E000E0220076E59
:101EB00039EC2EF00B6E0A6AE56A0BC0F4FF03C022
:101EC000E9FF06C0F3FF075019EC30F039EC2EF0B3
:101ED000096A0A2609500B220AC0E5FF0BC0F4FF6D
:101EE00003C0E9FF06C0F3FF075019EC30F0ABD098
:101EF0000050130F036E000E0120066E000E02202C
:101F0000076E39EC2EF0086E08C0E5FF03C0E9FF4C
:101F100006C0F3FF075030EC30F095D00050140F9E
:101F2000036E000E0120066E000E0220076E39ECD3
:101F30002EF0086E08C0E5FF03C0E9FF06C0F3FFFE
:101F4000075030EC30F00050170F036E000E0120E8
:101F5000066E000E0220E56AF46AF66AF76A03C0AC
:101F6000E9FF06C0F3FFC6EC2FF06DD00050150F4F
:101F7000036E000E0120066E000E0220076E39EC83
:101F80002EF0086E08C0E5FF03C0E9FF06C0F3FFAE
:101F9000075030EC30F057D00050160F036E000E93
:101FA0000120066E000E0220076E39EC2EF0086E3E
:101FB00008C0E5FF03C0E9FF06C0F3FF075030EC9F
:101FC00030F041D000501D0F036E000E0120066E50
:101FD000000E0220076E39EC2EF00B6E0A6AE56ADD
:101FE0000BC0F4FF03C0E9FF06C0F3FF075019EC74
:101FF00030F039EC2EF0096A0A2609500B220AC08B
:10200000E5FF0BC0F4FF03C0E9FF06C0F3FF075074
:1020100019EC30F018D039EC2EF0056E046A39EC6A
:102020002EF0066A0426065005220550E56E04507F
:10203000E56E0250E56E0150E56E0050E56E6AEC0B
:1020400029F0050EE126E4CF0BF0E4CF0AF0E4CF4F
:1020500009F0E4CF08F0E4CF07F0E4CF06F0E4CFD6
:1020600005F0E4CF04F0E4CF03F0E4CF02F0E4CFD6
:1020700001F0E4CF00F0E4CFD9FF1200D9CFE5FFA3
:10208000E1CFD9FF00C0E5FF01C0E5FF02C0E5FFD9
:1020900003C0E5FF04C0E5FF05C0E5FF06C0E5FF9E
:1020A00007C0E5FF08C0E5FF09C0E5FF0AC0E5FF7E
:1020B0000BC0E5FF020EDBCF00F0030EDBCF01F01B
:1020C000040EDBCF02F0050EDBCF03F0060EDBCFF4
:1020D00004F002500A6E0150096E0050086EE56A65
:1020E000110EE56E0A50E56E0950E56E0850E56E7A
:1020F000800EE56E010EE56E000EE56EA1EC23F09C
:10210000080EE1260FC105F010C106F0E86A0101D2
:1021100010BFFF0E076E01017C6F06507B6F0550EC
:102120007A6F796B03C005F004C006F0E86A04BE5C
:10213000FF0E076E086E00C109F0E56AE56AE56A00
:102140000950E56E0850E56E0750E56E0650E56EE5
:102150000550E56E31EC19F00101756FF3CF76F1A2
:10216000F4CF77F1E9CF78F1080EE12601C109F04B
:102170000950D8B4ADD00450800F800F02E1010E99
:10218000035C25E301010651800F7C0F08E1000E7E
:10219000055D05E1000E045D02E1000E035D17E23E
:1021A00001010E51800FF36E01017C51800FF35C31
:1021B0000DE17B5101010D5D09E101017A51010140
:1021C0000C5D04E10101795101010B5D33E3D8801D
:1021D00004AED890D8A043D001010651800F840FDF
:1021E00008E1000E055D05E1000E045D02E1010E4F
:1021F000035D35E301017C1D0B6E7B1D0A6E7A1DAC
:10220000046E791D036E032A04E1042A02E10A4ADE
:102210000B2A0B50800FF36E01010E51800FF35CFF
:1022200008E10D510A5C05E10C51045C02E10B511F
:10223000035C15E2055001010325036E06500421DD
:10224000046E075005210A6E085006210B6E0350DC
:10225000036F0450046F0A50056F0B50066F0101A5
:1022600003390F0B036E0439046EF00B041A0326B6
:102270000551E838F00B041205390F0B0A6E0639C8
:102280000B6EF00B0B1A0A26F00E0BB60B26E56A46
:10229000E56AE56A0950E56E0B50E56E0A50E56E99
:1022A0000450E56E0350E56E31EC19F0036EF3CF88
:1022B00004F0F4CF09F0E9CF0AF0080EE12603504C
:1022C0000101752704507623095077230A5078239B
:1022D00002C103F00350D8B46BD001010751055C73
:1022E00001017D6F01010851065801017E6F010156
:1022F0000951075801017F6F01010A510858010176
:10230000806F800F800F08E1010E7F5D05E1000EF8
:102310007E5D02E1000E7D5D07E3FF0E01017D6F32
:102320007E6F7F6B806B14D001018051800F810F15
:1023300008E1FF0E7F5D05E1000E7E5D02E1000E0B
:102340007D5D06E201017D6B7E6BFF0E7F6F806F0E
:10235000010180317F310B6E0A6A0A327E51E840FA
:102360007F0B0A127E317D31096E046A0432E56A00
:10237000E56AE56A0350E56E0B50E56E0A50E56EBE
:102380000950E56E0450E56E31EC19F0036EF3CFA1
:1023900004F0F4CF09F0E9CF0AF0080EE12603506B
:1023A0000101752704507623095077230A507823BA
:1023B00005500101076F0650086F0750096F08505C
:1023C0000A6F01017C51800FF36E01017851800F7B
:1023D000F35C0DE1775101017B5D09E1010176516B
:1023E00001017A5D04E1010175510101795D11E29C
:1023F0000101795101010B6F01017A5101010C6F4B
:1024000001017B5101010D6F01017C5101010E6F32
:102410003AD001017C1D066E7B1D056E7A1D046E8F
:10242000791D036E032A04E1042A02E1054A062A03
:1024300001017851800FF36E0650800FF35C08E1C4
:102440000550775D05E10450765D02E10350755D4E
:102450000AE2035001010B6F04500C6F05500D6F21
:1024600006500E6F10D00101755101010B6F010173
:10247000765101010C6F0101775101010D6F0101CE
:10248000785101010E6FE56A110EE56E800EE56E62
:10249000010EE56E000EE56E0250E56E0150E56E30
:1024A0000050E56EA1EC23F0080EE126E4CF0BF01E
:1024B000E4CF0AF0E4CF09F0E4CF08F0E4CF07F06E
:1024C000E4CF06F0E4CF05F0E4CF04F0E4CF03F06E
:1024D000E4CF02F0E4CF01F0E4CF00F0E4CFD9FF85
:1024E000120000C0E5FF01C0E5FF02C0E5FF03C028
:1024F000E5FF04C0E5FF05C0E5FF06C0E5FF07C036
:10250000E5FF08C0E5FF09C0E5FF0AC0E5FF0BC015
:10251000E5FF0CC0E5FF0DC0E5FF0EC0E5FFF2CF03
:102520000EF0F29E59C101F05AC102F05BC103F0F6
:102530005CC104F00101596B5A6B5B6B5C6B5DC154
:1025400005F05EC106F05FC107F060C108F001014F
:102550006951096E6A510A6E0EBEF28EE4CF0EF01A
:102560000F013651095C006E37510A580B6E09C0D5
:1025700036FF0AC037FF00500B10D8A44AD00FEC2A
:102580002EF0096EF3CF0AF0F4CF0CF0E9CF0DF086
:102590000550095C056E06500A58066E07500C5827
:1025A000076E08500D58086E089E0101165115E17E
:1025B0000750096E08500A6E0C6A0D6A000E0D5C19
:1025C00008E1000E0C5C05E1000E0A5C02E1410E20
:1025D000095C03E3010E0101166F010116512BE1A5
:1025E00001015051085C08E14F51075C05E14E5173
:1025F000065C02E14D51055C08E24DC105F04EC19B
:1026000006F04FC107F050C108F0010E006E0B6AD2
:1026100012D00101166B01C005F002C006F003C024
:1026200007F004C008F001C04DF102C04EF103C034
:102630004FF104C050F10850E56E0750E56E0650AA
:10264000E56E0550E56EE56A400EE56E000EE56A42
:10265000E56A15EC23F0016EF3CF02F0F4CF03F03E
:10266000E9CF04F0080EE126E86A0BBEFF0E096E02
:102670000A6E0450E56E0350E56E0250E56E01509F
:10268000E56E0A50E56E0950E56E0B50E56E0050A0
:10269000E56E31EC19F0006EF3CF01F0F4CF02F0EB
:1026A000E9CF03F0080EE12600500101496F015007
:1026B0004A6F02504B6F03504C6F49C161F14AC1E0
:1026C00062F14BC163F14CC164F105500101656FCA
:1026D0000650666F0750676F0850686F0101A3517D
:1026E000010A02E1A45101E04AD0A5C100F0A6C14F
:1026F00001F0E86A0101A6BFFF0E026E036E010140
:102700004951005E4A51015A4B51025A4C51035AE9
:102710000350800F800F08E1000E025C05E1800E7F
:10272000015C02E1000E005C04E300687F0E016EB4
:1027300010D00350800F810F08E1FF0E025C05E10D
:10274000800E015C02E1000E005C03E2006A800E74
:10275000016E0150E56E0050E56E800EE56E0F0EC5
:10276000E56E250EE56E3EEC10F0050EE1260F013C
:102770003151006E3251016E3351036A04D0A1C150
:1027800000F0A2C101F0D88001AED89002E3006A47
:10279000016A0150800F7C0F02E1000E005C03E330
:1027A0000068030E016E0150800F840F02E1010EDC
:1027B000005C04E2010E006EFC0E016E0A014AA1EB
:1027C00007D0011C036E001C026E024A032A04D0CB
:1027D00000C002F001C003F002C000F003C001F02D
:1027E000D88001AED890026A0236025007E000504D
:1027F000FF0F036E030E0120046E04D000C003F02F
:1028000001C004F00350020BE840010BE838E84433
:10281000F46E0F015451DF0BF410546F0350010B91
:10282000010BE838F46E5451EF0BF410546F04347C
:102830000432033204340432033203500F01556F63
:10284000025002E0898A01D0899AE4CF0DF0E4CFEA
:102850000CF0E4CF0BF0E4CF0AF0E4CF09F0E4CFC2
:1028600008F0E4CF07F0E4CF06F0E4CF05F0E4CFC2
:1028700004F0E4CF03F0E4CF02F0E4CF01F0E4CFC2
:1028800000F012004320733220256C6420256C6414
:1028900020256C640A00430025630000D9CFE5FFC2
:1028A000E1CFD9FF00C0E5FF01C0E5FF02C0E5FFB1
:1028B00003C0E5FF04C0E5FF05C0E5FF06C0E5FF76
:1028C00007C0E5FF08C0E5FF09C0E5FF020EDBCF4A
:1028D00000F0030EDBCF01F0040EDBCF02F0050E9B
:1028E000DBCF03F0046A056A39EC2EF0066EFE0AAF
:1028F00001E083D039EC2EF0076E040E075CD8B0EF
:1029000068D00CC0E5FF0DC0E5FF0D6A07340D3639
:10291000E8340D36FC0B0C6E000EFB6E290EFA6EC1
:10292000380E0C260D50FA22D8B0FB2A0C50E4CFFA
:102930000DF0E4CF0CF0F96EA4EF14F0B0EF14F04A
:10294000C3EF14F0D6EF14F000C0E9FF01C0F3FFAD
:102950000250B5EC2FF0086E08C004F0056A39D0BB
:102960000050010F086E000E0120096E000E0220BB
:1029700008C0E9FF09C0F3FFB5EC2FF0086E08C0EE
:1029800004F0056A26D00050020F086E000E0120E8
:10299000096E000E022008C0E9FF09C0F3FFB5EC84
:1029A0002FF0086E08C004F0056A13D000500F0F16
:1029B000086E000E0120096E000E022008C0E9FF1B
:1029C00009C0F3FF8BEC2FF0F3CF09F0046E095030
:1029D000056E0550E56E0450E56EE56A0750E56E3C
:1029E000E56A0350E56E000EE56E410EE56EA20E3F
:1029F000E56E29EC2BF0090EE126040E065CD8B03A
:102A000095D00CC0E5FF0DC0E5FF0D6A06340D360C
:102A1000E8340D36FC0B0C6E000EFB6E2A0EFA6EBF
:102A2000380E0C260D50FA22D8B0FB2A0C50E4CFF9
:102A30000DF0E4CF0CF0F96E24EF15F031EF15F046
:102A40005CEF15F072EF15F039EC2EF0036E03C059
:102A5000E5FF00C0E9FF01C0F3FF025030EC30F0A9
:102A600065D00050010F036E000E0120046E000EB1
:102A70000220056E39EC2EF0066E06C0E5FF03C09D
:102A8000E9FF04C0F3FF055030EC30F00650D8A445
:102A90004DD00050030F036E000E0120046E000E97
:102AA0000220E56AF46AF66AF76A03C0E9FF04C027
:102AB000F3FFC6EC2FF03AD00050020F036E000E69
:102AC0000120046E000E0220056E39EC2EF0066E19
:102AD00006C0E5FF03C0E9FF04C0F3FF055030EC7A
:102AE00030F024D00F0E0026000E0122022239EC15
:102AF0002EF0066E056AE56A06C0F4FF00C0E9FF25
:102B000001C0F3FF025019EC30F039EC2EF0046AEA
:102B100005260450062205C0E5FF06C0F4FF00C0EC
:102B2000E9FF01C0F3FF025019EC30F0E4CF09F0E7
:102B3000E4CF08F0E4CF07F0E4CF06F0E4CF05F0EF
:102B4000E4CF04F0E4CF03F0E4CF02F0E4CF01F0EF
:102B5000E4CF00F0E4CFD9FF1200D9CFE5FFE1CFF9
:102B6000D9FF00C0E5FF01C0E5FF02C0E5FF03C0DB
:102B7000E5FF04C0E5FF05C0E5FF06C0E5FF07C0AF
:102B8000E5FF08C0E5FF09C0E5FF0AC0E5FF0BC08F
:102B9000E5FF020EDBCF00F0030EDBCF01F0040EE9
:102BA000DBCF02F0050EDBCF03F0046A056A39ECD7
:102BB0002EF0066EFE0A01E063D039EC2EF0076EAF
:102BC00007500AE00750010A19E00750020A28E0FE
:102BD00007500A0A37E040D00050060F086E000E7A
:102BE0000120096E000E022008C0E9FF09C0F3FFB2
:102BF0008BEC2FF0046EF3CF05F02ED000500C0FAD
:102C0000086E000E0120096E000E022008C0E9FFC8
:102C100009C0F3FF8BEC2FF0046EF3CF05F01CD04E
:102C200000500E0F086E000E0120096E000E0220EB
:102C300008C0E9FF09C0F3FF8BEC2FF0046EF3CF5F
:102C400005F00AD000C0E9FF01C0F3FF02508BEC91
:102C50002FF0046EF3CF05F00550E56E0450E56EDD
:102C6000E56A0750E56EE56A0350E56E000EE56E15
:102C7000590EE56E260EE56E29EC2BF0090EE126C5
:102C800006500CE00650010A32E00650020A01E14B
:102C900057D006500A0A01E17CD093D00050060FAD
:102CA000036E000E0120066E000E0220076E39EC46
:102CB0002EF00B6E0A6AE56A0BC0F4FF03C0E9FF51
:102CC00006C0F3FF075019EC30F039EC2EF0096A1A
:102CD0000A2609500B220AC0E5FF0BC0F4FF03C00F
:102CE000E9FF06C0F3FF075019EC30F06AD000503E
:102CF0000C0F036E000E0120066E000E0220076E00
:102D000039EC2EF00B6E0A6AE56A0BC0F4FF03C0C3
:102D1000E9FF06C0F3FF075019EC30F039EC2EF054
:102D2000096A0A2609500B220AC0E5FF0BC0F4FF0E
:102D300003C0E9FF06C0F3FF075019EC30F041D0A3
:102D400000500E0F036E000E0120066E000E0220D2
:102D5000076E39EC2EF00B6E0A6AE56A0BC0F4FFC1
:102D600003C0E9FF06C0F3FF075019EC30F039EC5F
:102D70002EF0096A0A2609500B220AC0E5FF0BC093
:102D8000F4FF03C0E9FF06C0F3FF075019EC30F071
:102D900018D039EC2EF0056E046A39EC2EF0066A74
:102DA0000426065005220550E56E0450E56E0250DB
:102DB000E56E0150E56E0050E56E44EC2DF0050E19
:102DC000E126E4CF0BF0E4CF0AF0E4CF09F0E4CF42
:102DD00008F0E4CF07F0E4CF06F0E4CF05F0E4CF4D
:102DE00004F0E4CF03F0E4CF02F0E4CF01F0E4CF4D
:102DF00000F0E4CFD9FF1200E8CFE5FFD8CFE5FF20
:102E0000E0CFE5FFF3CFE5FFF4CFE5FFE9CFE5FF46
:102E1000EACFE5FFFACFE5FFFBCFE5FF00C0E5FF16
:102E200001C0E5FF9DA81ED09EA81CD00101B7518E
:102E30000101B41905E10DEC30F00101B46BECD0E7
:102E4000B7C100F00101B72B016A940E00260A0EEB
:102E5000012200C0E9FF01C0EAFFEFCFB0F1B0C12D
:102E6000ADFFDAD09EAAD6D0ABA205D00101B581C4
:102E70000DEC30F0D1D0ABA405D00101B5830DEC41
:102E800030F0CAD0ABA03FD0AECFB0F1800E010180
:102E90001B110101B01904E10101B589AB96BCD049
:102EA0000101B05104E0B05101011B1928E10101F9
:102EB000B599AB960101B05103E00101B59702D07D
:102EC0000101B587B0C1B9F1B2C1BAF10101B205D2
:102ED0000101BB6FBAC100F0BA2B016A600E002677
:102EE000000E012200C0E9FF01C0EAFFB0C1EFFF00
:102EF0000101BA51800A02E10101BA6B8DD00101D2
:102F0000B599AB8689D0AECFB0F10101B5A919D082
:102F1000800E01011B110101B01911E18B909D9AE6
:102F2000AB980101B45104E1AD6A0DEC30F007D06B
:102F300094CAADFF010E0101B76F9D886DD0AB86BD
:102F40006BD00101B0510101B9270101BA51010152
:102F5000BB191BE10101B9510CE1BAC1B2F1010188
:102F6000B5B712D08B909D9AAB98AD6A0DEC30F04E
:102F70000BD00101B585B5B707D08B909D9AAB9862
:102F8000010EAD6E0DEC30F047D00101BA510101D8
:102F9000B31907E10101B3510101B21902E00DECCF
:102FA00030F0B2C100F0016A002AD8B0012AE56A07
:102FB000800EE56E0150E56E0050E56E20EC25F0C8
:102FC000006E040EE12600500101B16F0101BA1933
:102FD0000CE11F0E0101B0150101BB6FBB2BBB2B18
:102FE0000101B2510101BB27BB9FBAC100F0010131
:102FF000BA2B016A600E0026000E012200C0E9FF14
:1030000001C0EAFFB0C1EFFFBA51800A02E101013D
:10301000BA6B02D052EC30F0E4CF01F0E4CF00F014
:10302000E4CFFBFFE4CFFAFFE4CFEAFFE4CFE9FF10
:10303000E4CFF4FFE4CFF3FFE4CFE0FFE4CFD8FF29
:10304000E4CFE8FF1000D9CFE5FFE1CFD9FF00C002
:10305000E5FF01C0E5FF02C0E5FF03C0E5FF04C0D6
:10306000E5FF05C0E5FF06C0E5FF07C0E5FF08C0B6
:10307000E5FF09C0E5FF0AC0E5FF0BC0E5FF0CC096
:10308000E5FF0DC0E5FF020EDBCF00F0030EDBCF46
:1030900001F0040EDBCF02F0050EDBCF03F0060ECD
:1030A000DBCF04F00050050F056E000E0120066E08
:1030B000000E0220076E0050030F086E000E012064
:1030C000096E000E02200A6E00501F0F0B6E000EDC
:1030D00001200C6E000E022003C0E5FF04C0F4FFC7
:1030E0000BC0E9FF0CC0F3FF19EC30F003C0E5FFA3
:1030F00004C0F4FF08C0E9FF09C0F3FF0A5019EC4F
:1031000030F003C0E5FF04C0F4FF05C0E9FF06C0CE
:10311000F3FF075019EC30F00050070F056E000E5A
:103120000120066E000E0220076EE86A04BEFF0E44
:10313000086E04500C6E0C2608340D6ED8900C36B8
:103140000D360344E844FC0B0B6E0350E844E8449E
:10315000030B0C12E56A0BC0F4FF0CC0F6FF0DC0A8
:10316000F7FF05C0E9FF06C0F3FF0750C6EC2FF0DC
:1031700000500D0F036E000E0120046E000E0220A1
:10318000E56AF46AF66AF76A03C0E9FF04C0F3FF70
:10319000C6EC2FF00050170F036E000E0120046ED6
:1031A000000E0220E56AF46AF66AF76A03C0E9FFD6
:1031B00004C0F3FFC6EC2FF000501B0F036E000E8F
:1031C0000120046E000E0220E56AF46A03C0E9FFE4
:1031D00004C0F3FF19EC30F000C003F001C004F0AC
:1031E00002C005F003C0E9FF04C0F3FF0550B5ECD1
:1031F0002FF0E892E56E03C0E9FF04C0F3FF05502D
:1032000030EC30F000C0E9FF01C0F3FF0250B5EC34
:103210002FF0E884E56E00C0E9FF01C0F3FF025023
:1032200030EC30F0E4CF0DF0E4CF0CF0E4CF0BF055
:10323000E4CF0AF0E4CF09F0E4CF08F0E4CF07F0E0
:10324000E4CF06F0E4CF05F0E4CF04F0E4CF03F0E0
:10325000E4CF02F0E4CF01F0E4CF00F0E4CFD9FFF7
:103260001200D9CFE5FFE1CFD9FF00C0E5FF01C0D3
:10327000E5FF02C0E5FF03C0E5FF04C0E5FF05C0B0
:10328000E5FF06C0E5FF07C0E5FF020EDBCF00F05B
:10329000030EDBCF01F0040EDBCF02F0050EDBCF17
:1032A00003F0060EDBCF04F0070EDBCF05F0080EAF
:1032B000DBCF06F0090EDBCF07F000500101816F74
:1032C0000150826F0250836F0350846F04500101DC
:1032D000856F0550866F0650876F0750886F010114
:1032E000815101018703F3CF00F0F4CF01F00050CA
:1032F00001018B6F01508C6F010181510101850328
:10330000F3CF00F0F4CF01F000500101896F0150BC
:103310008A6F0101845101018503F3CF00F001019F
:103320008C51002600508C6F0101835101018603EE
:10333000F3CF00F001018C51002600508C6F010189
:10334000835101018503F3CF00F0F4CF01F00101B7
:103350008B5100268C51012200508B6F01508C6FD5
:103360000101825101018603F3CF00F0F4CF01F097
:1033700001018B5100268C51012200508B6F0150AE
:103380008C6F0101825101018703F3CF00F00050DF
:103390000101906F0101825101018503F3CF00F01B
:1033A000F4CF01F0005001018E6F01508F6F0101C9
:1033B000815101018803F3CF00F000500101946FA7
:1033C0000101815101018603F3CF00F0F4CF01F038
:1033D00000500101926F0150936F01018D6B01014B
:1033E000916B01018D5101018925006E01018E5102
:1033F00001018A21016E01018F5101018B21026EB1
:103400000101905101018C21036E0050896F015020
:103410008A6F02508B6F03508C6F01019151010133
:103420008925006E0101925101018A21016E01017D
:10343000935101018B21026E0101945101018C21F4
:10344000036E03C0E9FF02C0F4FF01C0F3FF0050A8
:10345000E4CF07F0E4CF06F0E4CF05F0E4CF04F0CA
:10346000E4CF03F0E4CF02F0E4CF01F0E4CF00F0CA
:10347000E4CFD9FF120022EC2CF0899C899E899A16
:1034800089988A988A968A948A928B848B82929E53
:10349000929C94949298929A949293800F0139916D
:1034A0000101A56BA66B0101A16BA26B0101A36BCE
:1034B000A46B800EE56E0A0EE56E4A0EE56E2FECEB
:1034C0001BF0030EE126800EE56E0F0EE56E250E55
:1034D000E56E41EC20F0030EE1260101BE6B0FEC1E
:1034E0002FF00C0EBD6E0F01546FBA80BB68BA840A
:1034F000330ECD6E9D809F80B188B18AB182B1803C
:10350000A082A28258EC2AF09290010EE56E800E05
:10351000E56E0F0EE56E890EE56E000EE56A00ECB5
:1035200028F0050EE12617C1ACF10FEC2EF0006E6D
:10353000F3CF01F0F4CF02F0E9CF03F000C004F0C4
:1035400001C005F002C006F003C007F06AEC21F0EC
:10355000FFEC25F00FEC2EF0086EF3CF09F0F4CF5E
:103560000AF0E9CF0BF00050085E0150095A0250F2
:103570000A5A03500B5A0B9E000E0B5C08E1000E1A
:103580000A5C05E1460E095C02E1510E085C0BE3A2
:103590004CEC30F00FEC2EF0006EF3CF01F0F4CFD6
:1035A00002F0E9CF03F00FEC2EF0086EF3CF09F034
:1035B000F4CF0AF0E9CF0BF00450085E0550095A29
:1035C00006500A5A07500B5A0B9E000E0B5C08E17E
:1035D000000E0A5C05E1130E095C02E1890E085C2D
:1035E000D8A0B4D70FEC2EF0046EF3CF05F0F4CFD3
:1035F00006F0E9CF07F071EC12F0ACC108F0010160
:10360000AC070850D8A4A2D717C1ACF10101AD2B6B
:1036100001016851E56E6751E56E6651E56E6551D1
:10362000E56E01016451E56E6351E56E6251E56E30
:103630006151E56E01016C51E56E6B51E56E6A51A9
:10364000E56E6951E56E000EE56E280EE56E840E9E
:10365000E56E29EC2BF00F0EE12678D71200D9CFBA
:10366000E5FFE1CFD9FF00C0E5FF01C0E5FF02C0E3
:10367000E5FF03C0E5FF04C0E5FF05C0E5FF06C0A8
:10368000E5FF07C0E5FF08C0E5FF09C0E5FF0AC088
:10369000E5FF0BC0E5FF020EDBCF00F0030EDBCF32
:1036A00001F0040EDBCF02F0E56A00C0E9FF01C0C3
:1036B000F3FF025030EC30F00050030F036E000EA9
:1036C0000120046E000E0220056E0050050F066EEC
:1036D000000E0120076E000E0220E56AF46A06C0A3
:1036E000E9FF07C0F3FF19EC30F0E56AF46A03C0A4
:1036F000E9FF04C0F3FF055019EC30F00050070F4C
:10370000036E000E0120046E000E0220E56AF46ACA
:10371000F66AF76A03C0E9FF04C0F3FFC6EC2FF0B6
:103720000050010F036E000E0120046E000E0220F7
:10373000E56AF46A03C0E9FF04C0F3FF19EC30F056
:1037400000501D0F036E000E0120046E000E0220BB
:10375000E56AF46A03C0E9FF04C0F3FF19EC30F036
:103760000050170F036E000E0120046E000E0220A1
:10377000E56AF46AF66AF76A03C0E9FF04C0F3FF7A
:10378000C6EC2FF00050130F036E000E0120046EE4
:10379000000E0220056E0050140F066E000E012070
:1037A000076E000E0220086E0050150F096E000E05
:1037B00001200A6E000E02200B6E160E0026000E6F
:1037C00001220222E56A00C0E9FF01C0F3FF0250B6
:1037D00030EC30F0E56A09C0E9FF0AC0F3FF0B5096
:1037E00030EC30F0E56A06C0E9FF07C0F3FF08508F
:1037F00030EC30F0E56A03C0E9FF04C0F3FF055088
:1038000030EC30F0E4CF0BF0E4CF0AF0E4CF09F075
:10381000E4CF08F0E4CF07F0E4CF06F0E4CF05F002
:10382000E4CF04F0E4CF03F0E4CF02F0E4CF01F002
:10383000E4CF00F0E4CFD9FF120043202564202517
:10384000642025640A0000C0E5FF01C0E5FF03C055
:10385000E5FF39EC2EF0006E010A2BE00050020A61
:103860002DE00050030A01E140D00050040A2BE093
:103870000050050A01E14AD00050060A01E15AD081
:103880000050140A01E17DD00050650A01E17FD0AB
:1038900000506E0A01E188D000506F0A01E191D01A
:1038A0000050700A01E19ED00050FF0A01E1AAD049
:1038B000AED039EC2EF00101AD6FA9D039EC2EF06D
:1038C0000101176FA4D039EC2EF00101146F020E24
:1038D000145DD8B09CD01451010BE840E840F46E60
:1038E0008950BF0BF410896E92D039EC2EF0010193
:1038F000156F020E155DD8B08AD01551010BE84046
:10390000F46E89507F0BF410896E81D039EC2EF063
:103910000101126B136F39EC2EF0016A01011227BD
:10392000015013231351F80BD8A471D0126B080E59
:10393000136F6DD039EC2EF0006A016E39EC2EF069
:10394000036A0026035001220050020BE840010BDD
:10395000E838E844F46EBD50DF0BF410BD6E005043
:10396000010B010BE838F46EBD50EF0BF410BD6E87
:10397000D89001320032D890013200320050BE6E31
:1039800046D0140EE56E6CEC26F0E12A40D0650EB0
:10399000E56E800EE56E0A0EE56E4A0EE56E33ECBE
:1039A0000DF0040EE12633D06E0EE56E800EE56E4E
:1039B0000F0EE56E250EE56E4EEC14F0040EE126BA
:1039C00026D039EC2EF00101A66FA56B39EC2EF054
:1039D000016A0101A5270150A623010E0101A36F71
:1039E000A46B15D039EC2EF00101A26FA16B39EC5C
:1039F0002EF0016A0101A1270150A2230101A36B4E
:103A0000A46B05D0010E0101BE6F0FEC2FF0E4CFC7
:103A100003F0E4CF01F0E4CF00F01200D9CFE5FFCE
:103A2000E1CFD9FF00C0E5FF01C0E5FF02C0E5FF1F
:103A300003C0E5FF04C0E5FF05C0E5FF06C0E5FFE4
:103A400007C0E5FF08C0E5FF09C0E5FF0AC0E5FFC4
:103A50000BC0E5FF0CC0E5FF0DC0E5FF0EC0E5FFA4
:103A60000FC0E5FF020EDBCF00F0030EDBCF01F04D
:103A7000040EDBCF02F0050EDBCF03F0060EDBCF2A
:103A800004F0070EDBCF05F0080EDBCF06F0200EAA
:103A9000076E086A06C009F00A6A0B6A0C6AE56AD2
:103AA000E56AE56A0950E56E0350E56E0250E56E81
:103AB0000150E56E0050E56ED7EC20F00D6E080E5B
:103AC000E126300E0D263A0E0D5C06E30D500E6E0B
:103AD000270E0E260E500D6EFF0E0726D8A00806E4
:103AE000E00E07240E6E000E08200F6E0EC0E9FFD8
:103AF0000FC0EAFF0DC0EFFF0C50E56E0B50E56EF6
:103B00000A50E56E0950E56E0350E56E0250E56E11
:103B10000150E56E0050E56E15EC23F0006EF3CF1A
:103B200001F0F4CF02F0E9CF03F0080EE1260050D7
:103B3000011002100310D8A4ADD707C000F008C0D0
:103B400001F004C002F005C003F000C004F001C0A1
:103B500005F0002AD8B0012AE00E0426000E052246
:103B600004C0E9FF05C0EAFFEFCF04F002C0E9FF9F
:103B700003C0EAFF04C0EFFF022AD8B0032A000EF8
:103B8000015C02E1200E005CE0E302C0E9FF03C03B
:103B9000EAFF000EEF6AE4CF0FF0E4CF0EF0E4CFBF
:103BA0000DF0E4CF0CF0E4CF0BF0E4CF0AF0E4CF5B
:103BB00009F0E4CF08F0E4CF07F0E4CF06F0E4CF5B
:103BC00005F0E4CF04F0E4CF03F0E4CF02F0E4CF5B
:103BD00001F0E4CF00F0E4CFD9FF1200D9CFE5FF28
:103BE000E1CFD9FF00C0E5FF01C0E5FF02C0E5FF5E
:103BF00003C0E5FF04C0E5FF05C0E5FF06C0E5FF23
:103C000007C0E5FF08C0E5FF09C0E5FF0AC0E5FF02
:103C10000BC0E5FF0CC0E5FF0DC0E5FF020EDBCFDA
:103C200000F0030EDBCF01F0040EDBCF02F0050E37
:103C3000DBCF03F0060EDBCF04F0070EDBCF05F081
:103C4000080EDBCF06F0090EDBCF07F0D88003AEFD
:103C5000D890086A083608500FE0031C0C6E021C4E
:103C60000B6E011C0A6E001C096E092A0DE10A2A5E
:103C70000BE10B4A0C2A08D000C009F001C00AF081
:103C800002C00BF003C00CF00950006E0A50016E28
:103C90000B50026E0C50036ED88007AED890096AA4
:103CA000093609500FE0071C0D6E061C0C6E051C32
:103CB0000B6E041C0A6E0A2A0DE10B2A0BE10C4A5A
:103CC0000D2A08D004C00AF005C00BF006C00CF0A5
:103CD00007C00DF00D50E56E0C50E56E0B50E56E13
:103CE0000A50E56E0350E56E0250E56E0150E56E38
:103CF0000050E56E15EC23F0006EF3CF01F0F4CF29
:103D000002F0E9CF03F0080EE1260950081A085026
:103D100016E0031C076E021C066E011C056E001CDB
:103D2000046E042A04E1052A02E1064A072A07C0B4
:103D3000E9FF06C0F4FF05C0F3FF045007D003C03D
:103D4000E9FF02C0F4FF01C0F3FF0050E4CF0DF023
:103D5000E4CF0CF0E4CF0BF0E4CF0AF0E4CF09F0AD
:103D6000E4CF08F0E4CF07F0E4CF06F0E4CF05F0AD
:103D7000E4CF04F0E4CF03F0E4CF02F0E4CF01F0AD
:103D8000E4CF00F0E4CFD9FF120000C0E5FF01C08E
:103D9000E5FF02C0E5FF03C0E5FF04C0E5FFACA2FC
:103DA000B1D0F0EC2EF0006E005005E10101196B6E
:103DB0000101186BA7D019C101F000500126F0ECE9
:103DC0002EF0026E00060250230A1FE1010E005C75
:103DD000D8A096D0F0EC2EF0026E690A03E122EC36
:103DE0002CF08ED00250720A03E10DEC30F088D036
:103DF0000250730A01E084D08B80AB869D8A9D9827
:103E0000AE50AE50AB98AB887BD00250430A03E172
:103E1000010E036E06D00250420A01E071D0036A1F
:103E200002D0008E02D0D890003200C0B6F100500F
:103E30000A01946F010E0101B76F010119510118B8
:103E400001E147D0F0EC2EF0026E035030E1025059
:103E5000006ED00E00260050026E0A0E025C06E3D1
:103E60000250006EF90E00260050026E0101195139
:103E7000011801E145D0F0EC2EF0006E046ED00E7A
:103E800004260450006E0A0E005C06E30050046E27
:103E9000F90E04260450006E100E025C31E2100E82
:103EA000005C2EE20238F00B026E00500226025037
:103EB0000101B627940E0101B725006E046A0A0EAF
:103EC000042200C0E9FF04C0EAFF02C0EFFFB72BE5
:103ED000B4D7940E0101B725006E026A0A0E0222C1
:103EE0000101B61D036E032A00C0E9FF02C0EAFF0C
:103EF00003C0EFFF0101B72BB7C1B4F10101AE6BF5
:103F000001C019F1E4CF04F0E4CF03F0E4CF02F0F4
:103F1000E4CF01F0E4CF00F01200D9CFE5FFE1CF0C
:103F2000D9FF00C0E5FF01C0E5FF02C0E5FF03C007
:103F3000E5FF04C0E5FF020EDBCF00F0030EDBCF90
:103F400001F0040EDBCF02F00250E56E0150E56E89
:103F50000050E56E69EC2BF0030EE1260050010FD6
:103F6000036E000E0120046E000E0220E56E045068
:103F7000E56E0350E56EBCEC29F0030EE12600501F
:103F80000B0F036E000E0120046E000E0220E56E82
:103F90000450E56E0350E56EBCEC29F0030EE126FB
:103FA0000050110F036E000E0120046E000E02205F
:103FB000E56E0450E56E0350E56EBCEC29F0030E8F
:103FC000E1260050130F036E000E0120046E000E58
:103FD0000220E56E0450E56E0350E56E69EC2BF0AF
:103FE000030EE1260050140F036E000E0120046E34
:103FF000000E0220E56E0450E56E0350E56E69EC9C
:104000002BF0030EE1260050150F036E000E012069
:10401000046E000E0220E56E0450E56E0350E56E5E
:1040200069EC2BF0030EE1260050160F036E000E14
:104030000120046E000E0220E56E0450E56E035070
:10404000E56E69EC2BF0030EE1261D0E0026000E36
:10405000012202220250E56E0150E56E0050E56E2D
:10406000BCEC29F0030EE126E4CF04F0E4CF03F02A
:10407000E4CF02F0E4CF01F0E4CF00F0E4CFD9FFC9
:104080001200D9CFE5FFE1CFD9FF00C0E5FF01C0A5
:10409000E5FF02C0E5FF03C0E5FF04C0E5FF05C082
:1040A000E5FF06C0E5FF07C0E5FF020EDBCF00F02D
:1040B000030EDBCF01F0040EDBCF02F000500B0F3C
:1040C000036E000E0120046E000E0220E56AF46A01
:1040D000F66AF76A03C0E9FF04C0F3FFC6EC2FF0ED
:1040E0000050070F036E000E0120046E000E022028
:1040F000056E0050030F066E000E0120076E000EC5
:104100000220E56AF46AF66AF76A06C0E9FF07C0AA
:10411000F3FFC6EC2FF0E56AF46AF66AF76A03C0AB
:10412000E9FF04C0F3FF0550C6EC2FF00050010F6B
:10413000036E000E0120046E000E0220056E00507A
:10414000020F066E000E0120076E000E0220E56AC7
:1041500006C0E9FF07C0F3FF30EC30F0E56A03C0AA
:10416000E9FF04C0F3FF055030EC30F0E56A00C011
:10417000E9FF01C0F3FF025030EC30F0E4CF07F06C
:10418000E4CF06F0E4CF05F0E4CF04F0E4CF03F091
:10419000E4CF02F0E4CF01F0E4CF00F0E4CFD9FFA8
:1041A0001200432025642025642025640A00D9CF0D
:1041B000E5FFE1CFD9FF00C0E5FF01C0E5FF02C088
:1041C000E5FF03C0E5FF04C0E5FF05C0E5FF06C04D
:1041D000E5FF07C0E5FF08C0E5FF09C0E5FF0AC02D
:1041E000E5FF020EDBCF00F0030EDBCF01F0040E83
:1041F000DBCF02F0050EDBCF03F0060EDBCF04F0C1
:10420000070EDBCF05F0080EDBCF06F0090EDBCF83
:1042100007F0086A096A0750800BE8440A6E0A50E2
:104220001BE1045004260536063607360750035CAA
:1042300008E10650025C05E10550015C02E1045012
:10424000005C06E2D890073206320532043204D010
:10425000092A09C008F0DFD70750035C08E10650BF
:10426000025C05E10550015C02E10450005C08E3DA
:104270000450005E0550015A0650025A0750035A76
:10428000D890073206320532043208C009F0080619
:104290000950E2E103C0E9FF02C0F4FF01C0F3FFEF
:1042A0000050E4CF0AF0E4CF09F0E4CF08F0E4CF07
:1042B00007F0E4CF06F0E4CF05F0E4CF04F0E4CF5C
:1042C00003F0E4CF02F0E4CF01F0E4CF00F0E4CF5C
:1042D000D9FF120000C0E5FF01C0E5FF02C0E5FF05
:1042E00003C0E5FF04C0E5FF0101B3510101B219AC
:1042F00001E163D0B3C100F0002A009E600E0024EB
:10430000016E026A000E022201C0E9FF02C0EAFF4C
:10431000EFCFBDF11F0E0101BD17B3C1BCF1BD51FF
:104320000101BC27BC2BBC2BBC9F39EC2EF0016ECD
:10433000015003E1016A012A01D0016A39EC2EF033
:104340000101BD6F800EBD15026E1F0EBD15036EFF
:1043500003C004F003C0BDF1045003E1B2C1B3F1E6
:104360003FD0015021E002501CE039EC2EF0006EED
:104370000101BD070050420A03E10BEC00F01BD025
:1043800000504E0A03E1A1EC2AF015D00050460A75
:1043900003E125EC30F00FD00050490A0CE1FF009A
:1043A0000AD00AEC00F007D0025003E0ADEC2DF08B
:1043B00002D023EC1CF0BCC1B3F101011851010182
:1043C000191906E00101B45103E1C5EC1EF008D053
:1043D0008BB006D00101B45103E1ACB20DEC30F06A
:1043E000E4CF04F0E4CF03F0E4CF02F0E4CF01F037
:1043F000E4CF00F0120000C0E5FF01C0E5FF03C0FC
:10440000E5FF04C0E5FF05C0E5FF06C0E5FF07C006
:10441000E5FF08C0E5FF09C0E5FF0AC0E5FF0BC0E6
:10442000E5FFA7C100F0A8C101F00101A72B01E33E
:10443000A82B0050E56ED6EC2FF0E12A076E046A37
:10444000056A066AA7C100F0A8C101F00101A72B07
:1044500001E3A82B0050E56ED6EC2FF0E12A0B6AA1
:104460000A6E086A0850041205120A5006120B5010
:104470000712A7C100F0A8C101F00101A72B01E3B9
:10448000A82B0050E56ED6EC2FF0E12A036E006AEF
:1044900003C001F0E86A03BEFF0E086E096E00500B
:1044A0000412015005120850061209500712A7C144
:1044B00000F0A8C101F00101A72B01E3A82B0050D7
:1044C000E56ED6EC2FF0E12A016A041201500512C4
:1044D0000612071207C0E9FF06C0F4FF05C0F3FF8C
:1044E0000450E4CF0BF0E4CF0AF0E4CF09F0E4CFBE
:1044F00008F0E4CF07F0E4CF06F0E4CF05F0E4CF16
:1045000004F0E4CF03F0E4CF01F0E4CF00F01200B8
:10451000D9CFE5FFE1CFD9FF00C0E5FF01C0E5FF3E
:1045200002C0E5FF03C0E5FF04C0E5FF05C0E5FFED
:1045300006C0E5FF07C0E5FF08C0E5FF0BC0E5FFCB
:104540000CC0E5FF0DC0E5FF020EDBCF00F0030E4F
:10455000DBCF01F0040EDBCF02F0050EDBCF03F062
:10456000060EDBCF04F003C0E5FF04C0F4FF00C07B
:10457000E9FF01C0F3FF025019EC30F00050020FC8
:10458000056E000E0120066E000E0220076EE86A1E
:1045900004BEFF0E086E04500C6E0C2608340D6E1F
:1045A000D8900C360D360344E844FC0B0B6E0350D8
:1045B000E844E844030B0C12E56A0BC0F4FF0CC09E
:1045C000F6FF0DC0F7FF05C0E9FF06C0F3FF075077
:1045D000C6EC2FF0080E0026000E01220222E56A2A
:1045E000F46AF66AF76A00C0E9FF01C0F3FF0250FF
:1045F000C6EC2FF0E4CF0DF0E4CF0CF0E4CF0BF0DD
:10460000E4CF08F0E4CF07F0E4CF06F0E4CF05F004
:10461000E4CF04F0E4CF03F0E4CF02F0E4CF01F004
:10462000E4CF00F0E4CFD9FF1200D9CFE5FFE1CF0E
:10463000D9FF00C0E5FF01C0E5FF02C0E5FF03C0F0
:10464000E5FF04C0E5FF05C0E5FF06C0E5FF07C0C4
:10465000E5FF08C0E5FF09C0E5FF0AC0E5FF0BC0A4
:10466000E5FF0CC0E5FF0DC0E5FF020EDBCF00F05B
:10467000030EDBCF01F0040EDBCF02F0050EDBCF23
:1046800003F0060EDBCF04F0070EDBCF05F0080EBB
:10469000DBCF06F0090EDBCF07F0086A096A0A6A69
:1046A0000B6A200E0C6E0350800BE8440D6E005018
:1046B00000260136023603360850082609360A3627
:1046C0000B360D50D8A4088007500B5C08E106504B
:1046D0000A5C05E10550095C02E10450085C09E34D
:1046E0000450085E0550095A06500A5A07500B5AE2
:1046F00000800C2ED8D703C0E9FF02C0F4FF01C030
:10470000F3FF0050E4CF0DF0E4CF0CF0E4CF0BF05A
:10471000E4CF0AF0E4CF09F0E4CF08F0E4CF07F0EB
:10472000E4CF06F0E4CF05F0E4CF04F0E4CF03F0EB
:10473000E4CF02F0E4CF01F0E4CF00F0E4CFD9FF02
:104740001200D9CFE5FFE1CFD9FF00C0E5FF01C0DE
:10475000E5FF02C0E5FF03C0E5FF04C0E5FF05C0BB
:10476000E5FF06C0E5FF07C0E5FF08C0E5FF09C09B
:10477000E5FF0AC0E5FF0BC0E5FF0CC0E5FF020E38
:10478000DBCF00F0030EDBCF01F0040EDBCF02F035
:10479000050EDBCF03F0060EDBCF04F0070EDBCFF8
:1047A00005F0080EDBCF06F0090EDBCF07F0025054
:1047B0000A6E0150096E0050086E06C00BF007C06B
:1047C0000CF0FF0E0626D8A007060B500C101CE0BC
:1047D00003C0E9FF04C0F3FF0550B5EC2FF00B6EEA
:1047E000032AD8B0042AD8B0052A0BC0E5FF08C0B8
:1047F000E9FF09C0F3FF0A5030EC30F0082AD8B0C6
:10480000092AD8B00A2AD9D702C0F4FF01C0F3FFA1
:104810000050E4CF0CF0E4CF0BF0E4CF0AF0E4CF8B
:1048200009F0E4CF08F0E4CF07F0E4CF06F0E4CFDE
:1048300005F0E4CF04F0E4CF03F0E4CF02F0E4CFDE
:1048400001F0E4CF00F0E4CFD9FF1200D9CFE5FFAB
:10485000E1CFD9FF00C0E5FF01C0E5FF02C0E5FFE1
:1048600003C0E5FF04C0E5FF05C0E5FF06C0E5FFA6
:1048700007C0E5FF020EDBCF00F0030EDBCF01F037
:10488000040EDBCF02F0050EDBCF03F002C006F012
:104890000650046E800A28E100C0E9FF01C0F3FF62
:1048A00002502BEC2FF0056EF3CF06F0F4CF07F09B
:1048B00003C0E5FF05C0E9FF06C0F3FF075030EC79
:1048C00030F0052AD8B0062AD8B0072A05C0E5FF7F
:1048D00006C0F4FF07C0F6FF00C0E9FF01C0F3FF08
:1048E0000250F2EC2FF01ED004AA1CD0200E041AA5
:1048F000045004E1035006EC00F014D00450010A07
:1049000004E1035002EC00F00DD004500F0A04E162
:1049100003500DEC2DF006D004500E0A03E10350B5
:104920004FEC30F0E4CF07F0E4CF06F0E4CF05F031
:10493000E4CF04F0E4CF03F0E4CF02F0E4CF01F0E1
:10494000E4CF00F0E4CFD9FF1200D9CFE5FFE1CFEB
:10495000D9FF00C0E5FF01C0E5FF02C0E5FF03C0CD
:10496000E5FF04C0E5FF05C0E5FF06C0E5FF07C0A1
:10497000E5FF020EDBCF00F0030EDBCF01F0040EEB
:10498000DBCF02F0050EDBCF03F019C11AF10101F4
:10499000185101011A5F1A0703C004F0056A030EDB
:1049A0000426D8B0052A1AC106F0076A0750800FFE
:1049B000F36E0550800FF35C02E10450065C02E2E6
:1049C000E8682BD0020E035C02E2E86A26D00306F8
:1049D0000350E56EE5EC2BF0E12A046A0350045C19
:1049E00014E204500024056EE86A0120066EE86AAD
:1049F000022005C0E9FF06C0F3FFB5EC2FF0042A42
:104A0000E56EE5EC2BF0E12AE9D719C11AF10101B5
:104A1000185101011A5F1A07E86AE4CF07F0E4CFE2
:104A200006F0E4CF05F0E4CF04F0E4CF03F0E4CFE8
:104A300002F0E4CF01F0E4CF00F0E4CFD9FF1200A0
:104A4000D9CFE5FFE1CFD9FF00C0E5FF01C0E5FF09
:104A500002C0E5FF03C0E5FF04C0E5FF05C0E5FFB8
:104A600006C0E5FF020EDBCF00F0030EDBCF01F046
:104A7000040EDBCF02F0050EDBCF03F0D88001AED1
:104A8000D890046A0436045007E0011C066E001C2E
:104A9000056E054A062A04D000C005F001C006F0E4
:104AA0000550006E0650016ED88003AED89007E323
:104AB000031C066E021C056E054A062A04D002C0BD
:104AC00005F003C006F00650E56E0550E56E015096
:104AD000E56E0050E56E5FEC28F0006EF3CF01F05C
:104AE000040EE12604500AE0011C036E001C026E55
:104AF000024A032A03C0F3FF025003D001C0F3FFB0
:104B00000050E4CF06F0E4CF05F0E4CF04F0E4CFAA
:104B100003F0E4CF02F0E4CF01F0E4CF00F0E4CF03
:104B2000D9FF1200D9CFE5FFE1CFD9FF00C0E5FFE3
:104B300001C0E5FF02C0E5FF03C0E5FF04C0E5FFDB
:104B400005C0E5FF020EDBCF00F0030EDBCF01F066
:104B5000040EDBCF02F0050EDBCF03F0A7C104F09B
:104B6000A8C105F00101A72B01E3A82B0350E56EB6
:104B70000450E56E63EC2EF0020EE126A7C104F0AE
:104B8000A8C105F00101A72B01E3A82B0250056E77
:104B9000E56E0450E56E63EC2EF0020EE126A7C12F
:104BA00004F0A8C105F00101A72B01E3A82B0150D7
:104BB000056EE56E0450E56E63EC2EF0020EE12604
:104BC000A7C104F0A8C105F00101A72B01E3A82BA0
:104BD0000050E56E0450E56E63EC2EF0020EE12607
:104BE000E4CF05F0E4CF04F0E4CF03F0E4CF02F02B
:104BF000E4CF01F0E4CF00F0E4CFD9FF120000C011
:104C0000E5FF01C0E5FF02C0E5FF03C0E5FF090EB7
:104C100001011F5DD8B057D00F014EB154D0D890CC
:104C200001011F35006E016A310E0026010E0122BE
:104C300000C0E9FF01C0EAFFEECF00F0EFCF01F0C6
:104C40000050011002E11F2B3ED001011F51030D46
:104C5000F3CF02F0036ADA0E02260A0E032202C024
:104C6000E9FF03C0EAFFEECF95F1EECF96F1EFCF6B
:104C700097F1410E1F25026E036A010E032202C046
:104C8000E9FF03C0EAFFEFCFBFF1001E011E015094
:104C90000F01506F00500F014F6F7E9204C0E5FF6F
:104CA000F2CF04F0F29E01019551E96E9651EA6E41
:104CB0000101BF51EF120F014E8104BEF28EE4CF0D
:104CC00004F001011F2BE4CF03F0E4CF02F0E4CFA6
:104CD00001F0E4CF00F01200D9CFE5FFE1CFD9FF1A
:104CE00000C0E5FF01C0E5FF02C0E5FF03C0E5FF2E
:104CF00004C0E5FF020EDBCF00F039EC2EF0016EB0
:104D0000FE0A2CE139EC2EF0026E080E025CD8B0DF
:104D100041D0D8900234036E046A310E0326010E8E
:104D2000042203C0E9FF04C0EAFFEECF03F0EFCF97
:104D300004F00450E56E0350E56EE56A0250E56E3E
:104D4000E56A0050E56E000EE56E550EE56E360E16
:104D5000E56E29EC2BF0090EE1261CD0080E015C53
:104D600019E239EC2EF0006A026E39EC2EF0046A7A
:104D7000002604500222D8900136036A310E012623
:104D8000010E032201C0E9FF03C0EAFF00C0EEFFED
:104D900002C0EFFFE4CF04F0E4CF03F0E4CF02F071
:104DA000E4CF01F0E4CF00F0E4CFD9FF1200D9CF77
:104DB000E5FFE1CFD9FF00C0E5FF01C0E5FF02C07C
:104DC000E5FF03C0E5FF04C0E5FF05C0E5FF06C041
:104DD000E5FF020EDBCF00F0030EDBCF01F0040E87
:104DE000DBCF02F00101BE5119E1FBEC21F0036EB3
:104DF000F3CF04F0F4CF05F0E9CF06F003C0E5FFF0
:104E000004C0F4FF05C0F6FF06C0F7FF00C0E9FFCD
:104E100001C0F3FF0250C6EC2FF01ED00101BE51BD
:104E2000010A1AE100C0E9FF01C0F3FF0250D0EC13
:104E30002EF0006EF3CF01F0F4CF02F0E9CF03F0D3
:104E40000350E56E0250E56E0150E56E0050E56ED0
:104E500092EC25F0040EE126E4CF06F0E4CF05F055
:104E6000E4CF04F0E4CF03F0E4CF02F0E4CF01F0AC
:104E7000E4CF00F0E4CFD9FF1200D9CFE5FFE1CFB6
:104E8000D9FF00C0E5FF01C0E5FF02C0E5FF03C098
:104E9000E5FF04C0E5FF05C0E5FF06C0E5FF020E23
:104EA000DBCF00F0030EDBCF01F0040EDBCF02F00E
:104EB000050EDBCF03F0060EDBCF04F0070EDBCFD1
:104EC00005F0080EDBCF06F0D88003AED89016E3CD
:104ED00006500A0A13E104C0E9FF05C0EAFF2D0EDF
:104EE000EF6E042AD8B0052A031E021E011E006CB4
:104EF00005E1012A03E1022AD8B4032A0650E56E2F
:104F00000550E56E0450E56E0350E56E0250E56E07
:104F10000150E56E0050E56E0EEC1DF0070EE12627
:104F2000E4CF06F0E4CF05F0E4CF04F0E4CF03F0E3
:104F3000E4CF02F0E4CF01F0E4CF00F0E4CFD9FFFA
:104F40001200D9CFE5FFE1CFD9FF00C0E5FF01C0D6
:104F5000E5FF02C0E5FF03C0E5FF04C0E5FF020E68
:104F6000DBCF00F0030EDBCF01F0040EDBCF02F04D
:104F70000250E56E0150E56E0050E56E69EC2BF0D5
:104F8000030EE1260050010F036E000E0120046E97
:104F9000000E0220E56E0450E56E0350E56E69ECEC
:104FA0002BF0030EE1260050020F036E000E0120CD
:104FB000046E000E0220E56E0450E56E0350E56EAF
:104FC00069EC2BF0030EE1260F0E0026000E0122E5
:104FD00002220250E56E0150E56E0050E56EBCEC19
:104FE00029F0030EE126E4CF04F0E4CF03F0E4CF90
:104FF00002F0E4CF01F0E4CF00F0E4CFD9FF1200DB
:10500000D9CFE5FFE1CFD9FF00C0E5FF01C0E5FF43
:1050100002C0E5FF03C0E5FF04C0E5FF05C0E5FFF2
:1050200006C0E5FF020EDBCF00F0030EDBCF01F080
:10503000040EDBCF02F0050EDBCF03F0060EDBCF54
:1050400004F00050030DF3CF05F0066ADA0E0526D2
:105050000A0E062205C0E9FF06C0EAFF01C0EEFF06
:1050600002C0EEFF03C0EFFF410E0024016E026A92
:10507000010E022201C0E9FF02C0EAFF04C0EFFFF7
:10508000D8900036016A310E0026010E012200C0C0
:10509000E9FF01C0EAFF000EEE6AEF6AE4CF06F016
:1050A000E4CF05F0E4CF04F0E4CF03F0E4CF02F066
:1050B000E4CF01F0E4CF00F0E4CFD9FF1200D9CF64
:1050C000E5FFE1CFD9FF00C0E5FF01C0E5FF02C069
:1050D000E5FF03C0E5FF04C0E5FF05C0E5FF06C02E
:1050E000E5FF020EDBCF00F0030EDBCF01F0040E74
:1050F000DBCF02F0050EDBCF03F0046A056A035034
:10510000800BE844066E065011E102500226033679
:105110000350015C02E10250005C04E2D8900332CB
:10512000023204D0052A05C004F0E9D70350015C1F
:1051300002E10250005C04E30250005E0350015A99
:10514000D8900332023204C005F004060550EEE1A7
:1051500001C0F3FF0050E4CF06F0E4CF05F0E4CF48
:1051600004F0E4CF03F0E4CF02F0E4CF01F0E4CFA9
:1051700000F0E4CFD9FF120000C0E5FF006A81B063
:10518000002A00500101AA6F0101A91901E14AD0CA
:10519000AAC1A9F10101AA51D8B444D06DC155F1F9
:1051A0006EC156F16FC157F170C158F101015D51E7
:1051B0000101555D0101516F01015E510101565917
:1051C0000101526F01015F51010157590101536FF4
:1051D00001016051010158590101546F5151010100
:1051E00059270101525101015A2301015351010173
:1051F0005B230101545101015C2355C15DF156C18E
:105200005EF157C15FF158C160F10101692B01E303
:105210006A2B02E301016B2B02E301016C2B010EEF
:105220000101116FE4CF00F01200D9CFE5FFE1CF0B
:10523000D9FF00C0E5FF01C0E5FF02C0E5FF03C0E4
:10524000E5FF04C0E5FF020EDBCF00F0030EDBCF6D
:1052500001F0040EDBCF02F00050060F036E000ECB
:105260000120046E000E0220E56E0450E56E03502E
:10527000E56EBCEC29F0030EE12600500C0F036E26
:10528000000E0120046E000E0220E56E0450E56E53
:105290000350E56EBCEC29F0030EE1260E0E00264D
:1052A000000E012202220250E56E0150E56E005010
:1052B000E56EBCEC29F0030EE126E4CF04F0E4CF68
:1052C00003F0E4CF02F0E4CF01F0E4CF00F0E4CF4C
:1052D000D9FF1200D9CFE5FFE1CFD9FF00C0E5FF2C
:1052E00001C0E5FF02C0E5FF03C0E5FF04C0E5FF24
:1052F00005C0E5FF06C0E5FF020EDBCF00F0030EA0
:10530000DBCF01F0040EDBCF02F0050EDBCF03F0A4
:10531000060EDBCF04F00050050F056E000E0120D5
:10532000066E000E022003C0E5FF04C0F4FF05C0B6
:10533000E9FF06C0F3FF19EC30F0210E0026000E45
:1053400001220222E56AF46A00C0E9FF01C0F3FF0E
:10535000025019EC30F0E4CF06F0E4CF05F0E4CFD2
:1053600004F0E4CF03F0E4CF02F0E4CF01F0E4CFA7
:1053700000F0E4CFD9FF1200D9CFE5FFE1CFD9FF8C
:1053800000C0E5FF01C0E5FF02C0E5FF03C0E5FF87
:1053900004C0E5FF020EDBCF00F0030EDBCF01F00F
:1053A000040EDBCF02F00101BE5111E179EC2DF0CA
:1053B000036EF3CF04F003C0E5FF04C0F4FF00C0A8
:1053C000E9FF01C0F3FF025019EC30F016D00101E3
:1053D000BE51010A12E100C0E9FF01C0F3FF025013
:1053E0008BEC2FF0006EF3CF01F00150E56E005012
:1053F000E56EA8EC2BF0020EE126E4CF04F0E4CF3A
:1054000003F0E4CF02F0E4CF01F0E4CF00F0E4CF0A
:10541000D9FF1200840EF66E600EF76E000EF86E65
:105420000900F550056E0900F550066E04E10567A8
:1054300002D057EF2AF00900F550006E0900F55030
:10544000016E0900F550026E09000900F550E96E81
:105450000900F550EA6E090009000900F550036ED5
:105460000900F550046E09000900F6CF07F0F7CFE8
:1054700008F0F8CF09F000C0F6FF01C0F7FF02C046
:10548000F8FF035002E1045007E00900F550EE6E0A
:105490000306F8E20406F9D707C0F6FF08C0F7FFD5
:1054A00009C0F8FF050601E2060616EF2AF0120011
:1054B00000C0E5FF01C0E5FF02C0E5FF03C0E5FF56
:1054C00004C0E5FF0F014E6B0F014E894E837D82B4
:1054D0007F82006A016A026A080E005C1FE2DA0E2F
:1054E0000124036E046A0A0E042203C0E9FF04C00B
:1054F000EAFFEE6AEE6AEF6A310E0224036E046A76
:10550000010E042203C0E9FF04C0EAFFEE6AEF6A5D
:10551000030E0126022A022A002ADED701011F6B90
:10552000E4CF04F0E4CF03F0E4CF02F0E4CF01F0E5
:10553000E4CF00F012004320256420256420256478
:105540000A0000C0E5FF01C0E5FF02C0E5FF39EC3D
:105550002EF0006E39EC2EF0016E0050026ED00E6F
:1055600002260250006E0A0E005C06E30050026E36
:10557000F90E02260250006E0150026ED00E022675
:105580000250016E0A0E015C06E30150026EF90E34
:1055900002260250016E080E005C12E2100E015C41
:1055A000D8B00ED00038F00B0124006E99EC2CF02E
:1055B000016E015005E10050E56E46EC2FF0E12A46
:1055C000E4CF02F0E4CF01F0E4CF00F0120000C01D
:1055D000E5FFE4EC2FF09EA006D0BCEC28F0CF68ED
:1055E000EB0ECE6E9E90A1A231D0A1920101AB51E3
:1055F00003E1010EAB6F02D00101AB6B020E0101A2
:10560000145D0AE30101AB51010BE840E840F46E80
:105610008950BF0BF410896E020E0101155D0FE376
:105620000101AB51D880E866D890006A003600507E
:10563000010BE840F46E89507F0BF410896E010174
:105640001351FF08B36E1251FF08B26EE4CF00F0A1
:105650001200D9CFE5FFE1CFD9FF00C0E5FF01C0BF
:10566000E5FF02C0E5FF020ED924006E000EDA202D
:10567000016E800E026E030E0026000E0122022231
:105680000250E56E0150E56E0050E56E040EDBCF72
:10569000E5FF030EDBCFE5FF020EDBCFE5FF0101E7
:1056A0009A51E56E9951E56E9851E56E13EC05F04F
:1056B000006EF3CF01F0090EE12601C0F3FF0050A8
:1056C000E4CF02F0E4CF01F0E4CF00F0E4CFD9FF63
:1056D0001200D9CFE5FFE1CFD9FF00C0E5FF01C03F
:1056E000E5FF02C0E5FF03C0E5FF020EDBCF00F0DF
:1056F000030EDBCF01F0040EDBCF02F00101BE513F
:105700000DE175EC2FF0036E03C0E5FF00C0E9FF6B
:1057100001C0F3FF025030EC30F00FD00101BE5158
:10572000010A0BE100C0E9FF01C0F3FF0250B5EC34
:105730002FF0E56E8AEC2EF0E12AE4CF03F0E4CFFF
:1057400002F0E4CF01F0E4CF00F0E4CFD9FF120083
:10575000D9CFE5FFE1CFD9FF00C0E5FF01C0E5FFEC
:1057600002C0E5FF03C0E5FF020EDBCF00F0030E31
:10577000DBCF01F0A7C102F0A8C103F00101A72B04
:1057800001E3A82B0150E56E0250E56E63EC2EF0AC
:10579000020EE126A7C102F0A8C103F00101A72B68
:1057A00001E3A82B0050E56E0250E56E63EC2EF08D
:1057B000020EE126E4CF03F0E4CF02F0E4CF01F0E3
:1057C000E4CF00F0E4CFD9FF1200D9CFE5FFE1CF5D
:1057D000D9FF00C0E5FF01C0E5FF02C0E5FF03C03F
:1057E000E5FF04C0E5FF020EDBCF00F018C101F0B9
:1057F000026A012AD8B0022A19C103F0046A0150D2
:10580000031803E10250041801E001D00ED0000E8D
:1058100001011825016E026A070E022201C0E9FF8C
:1058200002C0EAFF00C0EFFF182BE4CF04F0E4CF82
:1058300003F0E4CF02F0E4CF01F0E4CF00F0E4CFD6
:10584000D9FF120049EC30F00101186B0101196B0E
:1058500001011A698B809490B06A3F0EAF6EB886D2
:10586000AC8AAC84AC8CAC90AB8CAB8ED58ED59C1A
:10587000D59AD588D596D594D582D580F28AF184EB
:105880000101B56B0101AF6B0101B26B0101B36B9B
:105890000101B46B000EE56AD6EC2FF001011B6F1D
:1058A000E12AD08E9F989F9A0101986B996B2F0ED9
:1058B0009A6F0DEC30F0F28EF28C1200D9CFE5FF2A
:1058C000E1CFD9FF00C0E5FF01C0E5FF02C0E5FF61
:1058D000020EDBCF00F0030EDBCF01F0040EDBCFB6
:1058E00002F0E56AF46A00C0E9FF01C0F3FF02506C
:1058F00019EC30F0020E0026000E01220222E56AA9
:10590000F46AF66AF76A00C0E9FF01C0F3FF0250CB
:10591000C6EC2FF0E4CF02F0E4CF01F0E4CF00F0CA
:10592000E4CFD9FF1200432025642025642025649C
:105930000A0000C0E5FF01C0E5FF02C0E5FF010E5F
:10594000006E39EC2EF0016E01C002F0015023E030
:105950000050E56ED6EC2FF0016EE12A015010E107
:105960000A0E005C0BE20A0E006EE56ED6EC2FF01C
:10597000016EE12A015004E1E8680ED0E8680CD01D
:105980000150021802E0E86807D0002A1B0E005CF4
:10599000D8E3E86801D0E86AE4CF02F0E4CF01F090
:1059A000E4CF00F01200F3CFE5FFF4CFE5FFE9CF3D
:1059B000E5FFEACFE5FFFACFE5FFFBCFE5FF010109
:1059C0001C5101016F6F01011D510101706FD65013
:1059D0006D6FD7506E6FF2A411D001011C2B01E343
:1059E0001D2BF29401011C5101016F6F01011D512A
:1059F0000101706FD6506D6FD7506E6FE7EC2AF0D3
:105A0000E4CFFBFFE4CFFAFFE4CFEAFFE4CFE9FF06
:105A1000E4CFF4FFE4CFF3FF110000C0E5FF01C0C5
:105A2000E5FF02C0E5FF03C0E5FF006EB70E010110
:105A30001E25016E026A0A0E02220050036E01C08A
:105A4000E9FF02C0EAFF03C0EFFF220E1E5D01E284
:105A50001E2B00500A0A0FE101011E51E56E800E57
:105A6000E56E0A0EE56EB70EE56EA5EC24F0040EA9
:105A7000E12601011E6BE4CF03F0E4CF02F0E4CF96
:105A800001F0E4CF00F01200D9CFE5FFE1CFD9FF5C
:105A900000C0E5FF01C0E5FF02C0E5FF03C0E5FF70
:105AA00004C0E5FF020EDBCF00F0030EDBCF01F0F8
:105AB000040EDBCF02F0050EDBCF03F0060EDBCFCA
:105AC00004F003C0E5FF04C0F4FF00C0E9FF01C01B
:105AD000F3FF025019EC30F0E4CF04F0E4CF03F010
