:020000040000FA
:100000009FEF2FF0C96E1200D1EF2CF0ACA2FED7FB
:10001000AD6E120012001200FAEF16F0D9CFE5FF14
:10002000E1CFD9FF00C0E5FF01C0E5FF02C0E5FF59
:1000300003C0E5FF04C0E5FF05C0E5FF06C0E5FF1E
:1000400007C0E5FF08C0E5FF09C0E5FF0AC0E5FFFE
:100050000BC0E5FF0CC0E5FF0DC0E5FF0EC0E5FFDE
:100060000FC0E5FF10C0E5FF11C0E5FF12C0E5FFBE
:1000700013C0E5FF14C0E5FF15C0E5FF16C0E5FF9E
:1000800017C0E5FF18C0E5FF19C0E5FF1AC0E5FF7E
:100090001BC0E5FF1CC0E5FF1DC0E5FF1EC0E5FF5E
:1000A0001FC0E5FF20C0E5FF21C0E5FF22C0E5FF3E
:1000B00023C0E5FF24C0E5FF25C0E5FF26C0E5FF1E
:1000C00027C0E5FF28C0E5FF29C0E5FF020EDBCF12
:1000D00000F0030EDBCF01F0040EDBCF02F0025084
:1000E000086E0150076E0050066EE56A100EE56E50
:1000F0000850E56E0750E56E0650E56E800EE56E21
:100100000A0EE56EC90EE56E9FEC23F0080EE1269F
:10011000D1CA03F0D2CA04F0D3CA05F0D4CA06F09B
:1001200003C007F004C008F005C009F006C00AF0DB
:10013000D8800AAED8900AE30A1E091E081E076C72
:1001400005E1082A03E1092AD8B40A2AC9CA0BF032
:10015000CACA0CF0E86A0A01CABFFF0E0D6E0E6E25
:10016000CBCA0FF0CCCA10F0CDCA11F0CECA12F033
:10017000D8901130146E1030136ED89014321332A0
:100180001250E840E840C00B14121240E8403F0B08
:10019000E8BAC009156E166A15BE166813500B5CD6
:1001A000136E14500C58146E15500D58156E1650D1
:1001B0000E58166E800F810F08E1FF0E155C05E1E9
:1001C000FF0E145C02E1FE0E135CD8A04ED0165058
:1001D000800F800F08E1000E155C05E1000E145C35
:1001E00002E1030E135CD8B040D00A340A301A6E14
:1001F0000930196E0830186E0730176ED7CA1BF019
:10020000D8CA1CF0E86A0A01D8BFFF0E1D6E800F25
:10021000F36E1A50800FF35C08E119501D5C05E184
:1002200018501C5C02E117501B5C1FE30C50196E48
:1002300019260D341A6ED89019361A360B44E84434
:10024000FC0B186E0B50E844E844030B19120A012A
:10025000CB6B1850CC6F1950CD6F1A50CE6FD16B3D
:10026000D26BD36BD46BA9EF04F00850076E095022
:10027000086ED89008320732D890083207320A50F8
:10028000E840E840C00B08120A40E8403F0BE8BADB
:10029000C0090A6A083408300A6E0730096EE86A35
:1002A0000ABEFF0E0B6E0C6E07C00DF008C00EF0FC
:1002B000E86A08BEFF0E176EE56E1750E56E0E5029
:1002C000E56E0D50E56E0C50E56E0B50E56E0A5074
:1002D000E56E0950E56E2FEC19F0096EF3CF0AF0C8
:1002E000F4CF0BF0E9CF0CF0080EE126D7CA0DF0E1
:1002F000D8CA0EF00DC017F00EC018F0E86A0EBE96
:10030000FF0E196E1A6EE56E1950E56E1850E56E07
:100310001750E56E0C50E56E0B50E56E0A50E56E19
:100320000950E56EECEC1DF0096EF3CF0AF0080EF3
:10033000E126CFCA0BF0D0CA0CF0E86A0A01D0BFA0
:10034000FF0E1B6E0C501F6E1F261B34206ED890A4
:100350001F3620360B44E844FC0B1E6E0B50E8445D
:10036000E844030B1F121D6AD88006AED890D8B09F
:1003700056D109C00BF00AC00CF0E86A0ABEFF0EA5
:100380001B6E800FF36E1650800FF35C08E1155062
:100390001B5C05E114500C5C02E113500B5CD8B0FF
:1003A00016D10650800FF36E2050800FF35C08E1E9
:1003B0001F50055C05E11E50045C02E11D50035C0A
:1003C000D8B0DED0D5CA0BF0D6CA0CF00BC01BF0EB
:1003D0000CC01CF0E86A0CBEFF0E216E226E0350AA
:1003E0001B2604501C2205502122065022221B509D
:1003F0000A01D16F1C50D26F2150D36F2250D46F9D
:100400000E50800FF36E0C50800FF35C02E10B5026
:100410000D5CD8B099D0D1CA1BF0D2CA1CF0D3CA97
:1004200021F0D4CA22F0D8902130246E1C30236EE3
:10043000D890243223322250E840E840C00B2412E6
:100440002240E8403F0BE8BAC009266A2350076EF5
:100450002450086E08340830246E0730236EE86A92
:1004600024BEFF0E256E266E07C027F008C028F0B8
:10047000E86A08BEFF0E296EE56E2950E56E285029
:10048000E56E2750E56E2650E56E2550E56E24504A
:10049000E56E2350E56E2FEC19F0236EF3CF24F0B8
:1004A000F4CF25F0E9CF26F0080EE1261A50E56ECC
:1004B0001950E56E1850E56E1750E56E2650E56E42
:1004C0002550E56E2450E56E2350E56EECEC1DF0F2
:1004D000236EF3CF24F0080EE1262350096E24503A
:1004E0000A6E09C023F00AC024F0E86A0ABEFF0EB3
:1004F000256E266E1650800FF36E2650800FF35C2B
:1005000008E12550155C05E12450145C02E12350FC
:10051000135C1AE20D500B5E0E500C5AE86A0CBECA
:10052000FF0E236E246E0B501B5E0C501C5A235082
:10053000215A2450225A1B500A01D16F1C50D26FED
:100540002150D36F2250D46F2050800FF36E0A01D8
:10055000D451800FF35C08E1D3511F5C05E1D25107
:100560001E5C02E1D1511D5CD8B0CCD11D500A01F6
:10057000D16F1E50D26F1F50D36F2050D46FC2D195
:100580002050800FF36E0650800FF35C08E1055099
:100590001F5C05E104501E5C02E103501D5CD8B0F5
:1005A000B1D11750035C0B6E185004580C6E1950E3
:1005B00005581B6E1A5006581C6E0B500A01D16F5D
:1005C0000C50D26F1B50D36F1C50D46F9BD1D5CA27
:1005D0000BF0D6CA0CF0E86A0A01D6BFFF0E1B6EFC
:1005E0001C6E17500B2618500C2219501B221A5043
:1005F0001C220B50035C0B6E0C5004580C6E1B50ED
:1006000005581B6E1C5006581C6E0B500A01D16F0A
:100610000C50D26F1B50D36F1C50D46F73D10A1E75
:10062000096CD8B40A2A09C00BF00AC00CF0E86AB9
:100630000ABEFF0E1B6E1C6E1650800FF36E1C5010
:10064000800FF35C08E11B50155C05E10C50145C55
:1006500002E10B50135CD8B032D1201C1C6E1F1C61
:100660001B6E1E1C0C6E1D1C0B6E0B2A04E10C2A4B
:1006700002E11B4A1C2A1C50800FF36E0650800FAB
:10068000F35C08E105501B5C05E104500C5C02E1E1
:1006900003500B5CD8B0ECD0D5CA1DF0D6CA1EF002
:1006A0001DC01FF01EC020F0E86A1EBEFF0E216EA6
:1006B000226E1F50035C1F6E20500458206E215084
:1006C0000558216E22500658226E1F500A01D16F24
:1006D0002050D26F2150D36F2250D46F0E50800F14
:1006E000F36E1E50800FF35C02E11D500D5CD8B01C
:1006F000A3D0D1CA1FF0D2CA20F0D3CA21F0D4CAE5
:1007000022F0D8902130246E2030236ED8902432ED
:1007100023322250E840E840C00B24122240E84037
:100720003F0BE8BAC009256E266A25BE2668261E3C
:10073000251E241E236C05E1242A03E1252AD8B4B2
:10074000262A2350076E2450086E08340830246E81
:100750000730236EE86A24BEFF0E256E266EE86A17
:1007600008BEFF0E276EE56E2750E56E0850E56E59
:100770000750E56E2650E56E2550E56E2450E56E77
:100780002350E56E2FEC19F0076EF3CF08F0F4CF8D
:1007900023F0E9CF24F0080EE1261A50E56E195037
:1007A000E56E1850E56E1750E56E2450E56E235047
:1007B000E56E0850E56E0750E56EECEC1DF0076E37
:1007C000F3CF08F0080EE126081E076C02E1082AA4
:1007D00000E10750096E08500A6EE86A0ABEFF0E73
:1007E000076E800FF36E1650800FF35C08E1155012
:1007F000075C05E114500A5C02E11350095C1CE23D
:100800000D501D5C0D6E0E501E580E6EE86A0EBE29
:10081000FF0E076E086E0D501F260E502022075047
:100820002122085022221F500A01D16F2050D26F7E
:100830002150D36F2250D46F0A01D451800FF36E30
:100840001C50800FF35C08E11B50D35D05E10C5098
:10085000D25D02E10B50D15DD8B054D00B500A01EB
:10086000D16F0C50D26F1B50D36F1C50D46F4AD035
:100870000650800FF36E1C50800FF35C08E11B5094
:10088000055C05E10C50045C02E10B50035CD8B040
:1008900039D017500324076E18500420086E1950E1
:1008A0000520096E1A5006200A6E07500A01D16F02
:1008B0000850D26F0950D36F0A50D46F23D0D5CAD5
:1008C00007F0D6CA08F0E86A0A01D6BFFF0E096E23
:1008D0000A6E0750172608501822095019220A508C
:1008E0001A221750032618500422195005221A50B4
:1008F000062203500A01D16F0450D26F0550D36F06
:100900000650D46FD8900A01D331046ED231036EF1
:10091000D89004320332D451E840E840C00B0412AE
:10092000D441E8403F0BE8BAC009056E066A05BE2F
:10093000066803500F26045010220550112206505D
:1009400012220F50CB6F1050CC6F1150CD6F125040
:10095000CE6FE56A100EE56E800EE56E0A0EE56E4E
:10096000C90EE56E0250E56E0150E56E0050E56E71
:100970009FEC23F0080EE126E4CF29F0E4CF28F025
:10098000E4CF27F0E4CF26F0E4CF25F0E4CF24F045
:10099000E4CF23F0E4CF22F0E4CF21F0E4CF20F045
:1009A000E4CF1FF0E4CF1EF0E4CF1DF0E4CF1CF045
:1009B000E4CF1BF0E4CF1AF0E4CF19F0E4CF18F045
:1009C000E4CF17F0E4CF16F0E4CF15F0E4CF14F045
:1009D000E4CF13F0E4CF12F0E4CF11F0E4CF10F045
:1009E000E4CF0FF0E4CF0EF0E4CF0DF0E4CF0CF045
:1009F000E4CF0BF0E4CF0AF0E4CF09F0E4CF08F045
:100A0000E4CF07F0E4CF06F0E4CF05F0E4CF04F044
:100A1000E4CF03F0E4CF02F0E4CF01F0E4CF00F044
:100A2000E4CFD9FF1200D9CFE5FFE1CFD9FF00C055
:100A3000E5FF01C0E5FF02C0E5FF03C0E5FF04C01C
:100A4000E5FF05C0E5FF06C0E5FF07C0E5FF08C0FC
:100A5000E5FF09C0E5FF0AC0E5FF0BC0E5FF0CC0DC
:100A6000E5FF0DC0E5FF0EC0E5FF0FC0E5FF10C0BC
:100A7000E5FF11C0E5FF12C0E5FF13C0E5FF14C09C
:100A8000E5FF15C0E5FF16C0E5FF17C0E5FF18C07C
:100A9000E5FF19C0E5FF1AC0E5FF1BC0E5FF1CC05C
:100AA000E5FF1DC0E5FF1EC0E5FF020EDBCF00F035
:100AB000030EDBCF01F0040EDBCF02F0050EDBCF1F
:100AC00003F0060EDBCF04F0070EDBCF05F0080EB7
:100AD000DBCF06F0090EDBCF07F00A0EDBCF08F004
:100AE000096A0A6A02C00DF00D50800A0DE1025039
:100AF0000101576F0150566F0050556F010E016E86
:100B0000550E006E800E026E03C0E9FF04C0F3FFB5
:100B10000550B3EC2FF00B6E0B50D8B4EFEF08F08C
:100B20000B50250A02E0D4EF08F00C6A0D6A0E6A39
:100B30000F6A106A0A0E116E126A136A146A200E86
:100B4000156E1668176A2B0E186E032AD8B0042A81
:100B5000D8B0052A03C0E9FF04C0F3FF0550B3EC89
:100B60002FF0196E250A15E11950E56E0250E56E59
:100B70000150E56E0050E56E24EC24F0040EE126F1
:100B8000092AD8B00A2A032AD8B0042AD8B0052ADC
:100B9000BBD71950300A07E1300E156E032AD8B0C2
:100BA000042AD8B0052A03C0E9FF04C0F3FF0550AA
:100BB000B3EC2FF02D0A07E1010E146E032AD8B012
:100BC000042AD8B0052A03C0E9FF04C0F3FF05508A
:100BD000B3EC2FF0200A09E1010E176E200E186EFB
:100BE000032AD8B0042AD8B0052A03C0E9FF04C0FC
:100BF000F3FF0550B3EC2FF02B0A07E1010E176E3F
:100C0000032AD8B0042AD8B0052A03C0E9FF04C0DB
:100C1000F3FF0550B3EC2FF0196E800F4F0F2FE349
:100C20001950800F460F2BE203C019F004C01AF0D0
:100C300005C01BF019C0E9FF1AC0F3FF1B50B3EC4D
:100C40002FF01C6E800F500F14E31C50800F460FC6
:100C500010E213500A0DF3CF1DF01D501C26D00ECC
:100C60001C261C50136E192AD8B01A2AD8B01B2A79
:100C7000E1D719C003F01AC004F01BC005F003C08F
:100C8000E9FF04C0F3FF0550B3EC2FF02E0A31E169
:100C9000032AD8B0042AD8B0052A166A03C019F06E
:100CA00004C01AF005C01BF019C0E9FF1AC0F3FF19
:100CB0001B50B3EC2FF01C6E800F500F14E31C5030
:100CC000800F460F10E216500A0DF3CF1DF01D5095
:100CD0001C26D00E1C261C50166E192AD8B01A2AB3
:100CE000D8B01B2AE1D719C003F01AC004F01BC00A
:100CF00005F003C0E9FF04C0F3FF0550B3EC2FF08B
:100D0000196E6C0A08E1010E0C6E032AD8B0042A91
:100D1000D8B0052A0AD01950680A07E1010E0E6EF4
:100D2000032AD8B0042AD8B0052A03C0E9FF04C0BA
:100D3000F3FF0550B3EC2FF0750A07E1010E106EBA
:100D4000032AD8B0042AD8B0052A03C0E9FF04C09A
:100D5000F3FF0550B3EC2FF0196E730A05E1010E95
:100D60000D6E200E156E41D01950780A03E1100E59
:100D7000116E3BD01950580A05E1100E116E010E8C
:100D8000126E33D01950630A02E1116A2ED0195045
:100D90006F0A03E1080E116E28D01950660A03E1AC
:100DA000010E0F6E22D01950640A1FE01950690A13
:100DB0001CE0105005E0FF0E03260422052215D08A
:100DC0001950E56E0250E56E0150E56E0050E56E7B
:100DD00024EC24F0040EE126092AD8B00A2A032ABA
:100DE000D8B0042AD8B0052A8FD60D5021E006507D
:100DF000030F0D6E000E0720196E000E08201A6EEC
:100E00000DC006F019C007F01AC008F0FD0E0D263F
:100E1000FF0E19221A220DC0E9FF19C0F3FF1A5064
:100E200029EC2FF00D6EF3CF19F0F4CF1AF008D1A2
:100E30000F500DE0000E1A6E120E196E660E0D6E3A
:100E4000040E0626000E072208221668F9D016683E
:100E50000C5023E00650040F0C6E000E07200F6E9E
:100E6000000E08201B6E0CC006F00FC007F01BC060
:100E700008F0FC0E0C26FF0E0F221B220CC0E9FF0F
:100E80000FC0F3FF1B50CEEC2EF00C6EF3CF0FF023
:100E9000F4CF1BF0E9CF1CF06AD00E5032E00650C0
:100EA000020F0E6E000E07201D6E000E08201E6E33
:100EB0000EC006F01DC007F01EC008F0FE0E0E2684
:100EC000FF0E1D221E220EC0E9FF1DC0F3FF1E50A3
:100ED00089EC2FF00E6E0EC00CF0E86A0EBEFF0E0D
:100EE0000F6E1B6E1C6E11500A0A03E11050D8B42D
:100EF0003ED00C500E6E0EC00CF00F6A1B6A1C6ABE
:100F000036D00650020F0E6E000E07201D6E000E2A
:100F100008201E6E0EC006F01DC007F01EC008F0AF
:100F2000FE0E0E26FF0E1D221E220EC0E9FF1DC062
:100F3000F3FF1E5089EC2FF00E6EF3CF1DF00EC0A4
:100F40000CF01DC00FF0E86A1DBEFF0E1B6E1C6E7C
:100F500011500A0A02E110500AE00C500E6E0F50B8
:100F60001D6E0EC00CF01DC00FF01B6A1C6A0A0E2D
:100F7000196EEA0E0D6E800E1A6E1150D8B448D05C
:100F800010501BE00C500E6E0F50106E1B501D6E5B
:100F90001C501E6E1150E56E0A0EE56EEA0EE56EEF
:100FA0001E50E56E1D50E56E1050E56E0E50E56E5C
:100FB0000CEC1DF0070EE12612D01150E56E0A0E62
:100FC000E56EEA0EE56E1C50E56E1B50E56E0F50A7
:100FD000E56E0C50E56E3BEC27F0070EE12617504E
:100FE0002FE00DC0E9FF19C0F3FF1A50B3EC2FF04A
:100FF0002D0A26E0FF0E0D2619221A2218C0E5FF41
:101000000DC0E9FF19C0F3FF1A502EEC30F018D0D4
:101010000CC0E5FF0DC0E9FF19C0F3FF1A502EEC1C
:1010200030F00D50010F0C6E000E19200E6E000EE8
:101030001A20E56A0CC0E9FF0EC0F3FF2EEC30F079
:101040000DC00CF019C00EF01AC00FF013C010F054
:10105000105011E00CC0E9FF0EC0F3FF0F50B3ECCD
:101060002FF0176E175007E00C2AD8B00E2AD8B010
:101070000F2A1006EDD710C013F014501FE109C05D
:101080000CF00AC00EF010C00FF00F5011E0155018
:10109000E56E0250E56E0150E56E0050E56E24EC01
:1010A00024F0040EE1260C2AD8B00E2A0F06EDD744
:1010B0000CC009F00EC00AF00FC013F016C00CF0FF
:1010C0000DC00DF019C00EF01AC00FF009C010F0DD
:1010D0000AC015F00DC0E9FF0EC0F3FF0F50B3ECCE
:1010E0002FF0166E1650D8B440D00CC016F0176A08
:1010F000161E171E1650171005E00CC016F00C0631
:10110000165033E00DC0E9FF0EC0F3FF0F50B3ECF3
:101110002FF0116E125010E01150E56E5CEC2FF0C4
:10112000166EE12A165004E01150166E169A02D07F
:101130001150166E1650116E1150E56E0250E56E8C
:101140000150E56E0050E56E24EC24F0040EE1261B
:101150000D2AD8B00E2AD8B00F2A102AD8B0152AD6
:101160001350D8B4B7D71306B5D710C009F015C0BF
:101170000AF014502DE010C00CF015C00DF013C093
:101180000EF00E5021E0200EE56E0250E56E01508B
:10119000E56E0050E56E24EC24F0040EE1260C2AE6
:1011A000D8B00D2A0E06EDD70B50E56E0250E56E55
:1011B0000150E56E0050E56E24EC24F0040EE126AB
:1011C000092AD8B00A2A04D00CC009F00DC00AF0D0
:1011D000032AD8B0042AD8B0052A84EF05F00AC043
:1011E000F3FF0950E4CF1EF0E4CF1DF0E4CF1CF074
:1011F000E4CF1BF0E4CF1AF0E4CF19F0E4CF18F0FD
:10120000E4CF17F0E4CF16F0E4CF15F0E4CF14F0FC
:10121000E4CF13F0E4CF12F0E4CF11F0E4CF10F0FC
:10122000E4CF0FF0E4CF0EF0E4CF0DF0E4CF0CF0FC
:10123000E4CF0BF0E4CF0AF0E4CF09F0E4CF08F0FC
:10124000E4CF07F0E4CF06F0E4CF05F0E4CF04F0FC
:10125000E4CF03F0E4CF02F0E4CF01F0E4CF00F0FC
:10126000E4CFD9FF12003C4E4F20464C4F41543E34
:101270000000D9CFE5FFE1CFD9FF00C0E5FF01C0F5
:10128000E5FF02C0E5FF03C0E5FF04C0E5FF05C0C0
:10129000E5FF06C0E5FF07C0E5FF08C0E5FF09C0A0
:1012A000E5FF0AC0E5FF0BC0E5FF0CC0E5FF0DC080
:1012B000E5FF0EC0E5FF0FC0E5FF10C0E5FF11C060
:1012C000E5FF12C0E5FF13C0E5FF14C0E5FF15C040
:1012D000E5FF16C0E5FF17C0E5FF18C0E5FF19C020
:1012E000E5FF020EDBCF00F0030EDBCF01F0040EB2
:1012F000DBCF02F00250086E0150076E0050066E00
:10130000E56A250EE56E0850E56E0750E56E06505D
:10131000E56E800EE56E0A0EE56E250EE56E9FEC1D
:1013200023F0080EE12632CA03F033CA04F034CAAF
:1013300005F035CA06F003C007F004C008F005C088
:1013400009F006C00AF0D8800AAED8900AE30A1E57
:10135000091E081E076C05E1082A03E1092AD8B412
:101360000A2A2ACA0BF02BCA0CF02CCA0DF02DCA7F
:101370000EF02ECA0FF02FCA10F0D8900F30126E58
:101380000E30116ED890123211321050E840E84001
:10139000C00B12121040E8403F0B11500B5C116E55
:1013A00012500C58126E800F810F02E1FE0E115C7C
:1013B000D8A04BD01250800F800F02E1030E115CB9
:1013C000D8B043D00A340A30166E0930156E083092
:1013D000146E0730136E36CA17F037CA18F0E86A71
:1013E0000A0137BFFF0E196E800FF36E1650800F83
:1013F000F35C08E11550195C05E11450185C02E13A
:101400001350175C22E3E86A0CBEFF0E136E0C50FB
:10141000176E17261334186ED890173618360B44EB
:10142000E844FC0B166E0B50E844E844030B17121B
:101430000A012C6B16502D6F17502E6F18502F6FFE
:10144000326B336B346B356B36D10850076E0950F5
:10145000086ED89008320732D890083207320A5006
:10146000E840E840C00B08120A40E8403F0BE8BAE9
:10147000C009096E0A6A09BE0A68072AD8B0082A94
:10148000D8B0092AD8B00A2AE86A08BEFF0E096E49
:101490000A6E0A340A30146E0930136E08300C6E6E
:1014A00007300B6E0A50E56E0950E56E0850E56E88
:1014B0000750E56E1450E56E1350E56E0C50E56E66
:1014C0000B50E56E2FEC19F0076EF3CF08F0F4CF58
:1014D00009F0E9CF0AF0080EE12636CA0BF037CA48
:1014E0000CF0E86A0A0137BFFF0E136E146EE56E4A
:1014F0001350E56E0C50E56E0B50E56E0A50E56E2C
:101500000950E56E0850E56E0750E56EECEC1DF0F5
:10151000076EF3CF08F0080EE126D88006AED8900B
:1015200004E3081E076CD8B4082A0850800FF36E35
:101530001250800FF35C02E11150075C16E20B5071
:101540000324096E0C5004200A6E13500520116EFE
:1015500014500620126E09500A01326F0A50336F80
:101560001150346F1250356F11D00B50035E0C5078
:10157000045A1350055A1450065A03500A01326F88
:101580000450336F0550346F0650356F30CA03F086
:1015900031CA04F0E86A0A0131BFFF0E056E04503B
:1015A0000B6E0B2605340C6ED8900B360C360344AC
:1015B000E844FC0B0A6E0350E844E844030B0B12AA
:1015C000096A32CA03F033CA04F034CA05F035CAD6
:1015D00006F00C50800FF36E0650800FF35C08E1AC
:1015E00005500B5C05E104500A5C02E10350095C04
:1015F0000AE209500A01326F0A50336F0B50346F00
:101600000C50356F2DD0061E051E041E036C05E11F
:10161000042A03E1052AD8B4062A0C50800FF36E81
:101620000650800FF35C08E105500B5C05E10450A7
:101630000A5C02E10350095C13E20C1E0B1E0A1E39
:10164000096C05E10A2A03E10B2AD8B40C2A0950D7
:101650000A01326F0A50336F0B50346F0C50356FE4
:10166000D8900A013431046E3331036ED8900432BD
:1016700003323551E840E840C00B04123541E840E0
:101680003F0BE8BAC009056E066A05BE066803503E
:101690000D2604500E2205500F22065010220D5028
:1016A0002C6F0E502D6F0F502E6F10502F6F075054
:1016B000486F0850496F46CA03F047CA04F0045007
:1016C000800F750F02E1B90E035C0DE3B90E0A013C
:1016D000466F0B0E476F3C6B3D6B3E6B3F6B25932C
:1016E000406B416B76D10A01258328CA05F029CACF
:1016F00006F04451051803E14551061801E009D0F0
:10170000032AD8B0042A03500A01466F0450476FD9
:1017100003D00A01466B476B05500A01446F06501F
:10172000456FD8902E31046E2D31036ED89004325F
:1017300003322F51E840E840C00B04122F41E8402B
:101740003F0B0550035C056E06500458066EE86AB0
:1017500006BEFF0E036E046E05503C25076E065054
:101760003D21086E03503E21096E04503F210A6E50
:1017700007503C6F08503D6F09503E6F0A503F6F55
:1017800038CA0BF0E56AE56AE56A0B50E56E04506D
:10179000E56E0350E56E0650E56E0550E56E2FECE4
:1017A00019F0036EF3CF04F0F4CF05F0E9CF06F0A3
:1017B000080EE1263CCA0BF03DCA0CF03ECA0DF003
:1017C0003FCA0EF039CA0FF0E56AE56AE56A0F50C4
:1017D000E56E0A50E56E0950E56E0850E56E07505B
:1017E000E56E2FEC19F0F3CF08F0F4CF09F0E9CF54
:1017F0000AF0080EE1260850076E0950086EF00E38
:101800000716073A083A0814081A07260A50E83853
:10181000F00B08120A380F0BE8B6F009096E0A6AD5
:1018200009BE0A6807500326085004220950052201
:101830000A50062242CA07F043CA08F007C009F05E
:1018400008C00AF0E86A08BEFF0E0F6E106E800F27
:10185000F36E0650800FF35C08E105500F5C05E164
:1018600004500A5C02E10350095CD8B049D007502B
:101870000A01406F0850416F0950035C116E0A5015
:101880000458126E0F500558136E10500658146EFF
:101890003BCA15F0E56AE56AE56A1550E56E145035
:1018A000E56E1350E56E1250E56E1150E56E2FECAB
:1018B00019F0F3CF12F0F4CF13F0E9CF14F0080EC3
:1018C000E1261250116E1350126E1450136E146AEA
:1018D00013BE146811500B5C116E12500C58126E2E
:1018E00013500D58136E14500E58146E11500A01F7
:1018F0003C6F12503D6F13503E6F14503F6F69D0D4
:10190000061C146E051C136E041C126E031C116E53
:10191000112A04E1122A02E1134A142A1050800FFE
:10192000F36E1450800FF35C08E113500F5C05E177
:1019300012500A5C02E11150095CD8B045D0081E73
:10194000076CD8B4082A07500A01406F0850416F4D
:101950000350092604500A2205500F220650102277
:101960003BCA07F0E56AE56AE56A0750E56E105084
:10197000E56E0F50E56E0A50E56E0950E56E2FECEE
:1019800019F0F3CF08F0F4CF09F0E9CF0AF0080E10
:10199000E1260850076E0950086E0A50096E0A6A5F
:1019A00009BE0A6807500B5E08500C5A09500D5AC0
:1019B0000A500E5A0B500A013C6F0C503D6F0D50EF
:1019C0003E6F0E503F6F05D003500A01406F045028
:1019D000416FE56A250EE56E800EE56E0A0EE56E36
:1019E000250EE56E0250E56E0150E56E0050E56E85
:1019F0009FEC23F0080EE126E4CF19F0E4CF18F0B5
:101A0000E4CF17F0E4CF16F0E4CF15F0E4CF14F0F4
:101A1000E4CF13F0E4CF12F0E4CF11F0E4CF10F0F4
:101A2000E4CF0FF0E4CF0EF0E4CF0DF0E4CF0CF0F4
:101A3000E4CF0BF0E4CF0AF0E4CF09F0E4CF08F0F4
:101A4000E4CF07F0E4CF06F0E4CF05F0E4CF04F0F4
:101A5000E4CF03F0E4CF02F0E4CF01F0E4CF00F0F4
:101A6000E4CFD9FF1200D9CFE5FFE1CFD9FF00C005
:101A7000E5FF01C0E5FF02C0E5FF03C0E5FF04C0CC
:101A8000E5FF05C0E5FF06C0E5FF07C0E5FF08C0AC
:101A9000E5FF09C0E5FF0AC0E5FF0BC0E5FF020E48
:101AA000DBCF00F0030EDBCF01F0040EDBCF02F042
:101AB000050EDBCF03F0046A056A37EC2EF0066EE4
:101AC000080A08E00650090A33E00650FE0A01E160
:101AD0004DD05CD100C007F001C008F002C009F091
:101AE00037EC2EF0010BF46E07C0E9FF08C0F3FFDE
:101AF0000950B3EC2FF0FE0BF410E56E07C0E9FFC0
:101B000008C0F3FF09502EEC30F00050170F076E9D
:101B1000000E0120086E000E0220E56AF46AF66AE3
:101B2000F76A07C0E9FF08C0F3FFC4EC2FF02ED11D
:101B300000C007F001C008F002C009F037EC2EF039
:101B4000010BE838E840F46E07C0E9FF08C0F3FF76
:101B50000950B3EC2FF0F70BF410E56E07C0E9FF66
:101B600008C0F3FF09502EEC30F010D137EC2EF006
:101B7000076E075028E00750010A39E00750020AB3
:101B800001E147D00750030A01E155D00750040A8C
:101B900001E164D00750050A01E173D00750060A3D
:101BA00001E182D00750070A01E191D00750080AED
:101BB00001E19FD00750090A01E1AED00750640A45
:101BC00001E1BFD0CFD00050010F086E000E012000
:101BD000096E000E022008C0E9FF09C0F3FF89EC7E
:101BE0002FF0F3CF09F0046E0950056EBBD0005002
:101BF0000B0F086E000E0120096E000E022008C0B7
:101C0000E9FF09C0F3FF89EC2FF0046EF3CF05F074
:101C1000A9D00050110F086E000E0120096E000EB1
:101C2000022008C0E9FF09C0F3FF89EC2FF0046E21
:101C3000F3CF05F097D00050130F086E000E01206F
:101C4000096E000E022008C0E9FF09C0F3FFB3ECE3
:101C50002FF0086E08C004F0056A84D00050140FFD
:101C6000086E000E0120096E000E022008C0E9FF78
:101C700009C0F3FFB3EC2FF0086E08C004F0056A4A
:101C800071D00050150F086E000E0120096E000E75
:101C9000022008C0E9FF09C0F3FFB3EC2FF0086E83
:101CA00008C004F0056A5ED00050160F086E000EE2
:101CB0000120096E000E022008C0E9FF09C0F3FFF1
:101CC000B3EC2FF0086E08C004F0056A4BD000504A
:101CD0001D0F086E000E0120096E000E022008C0C4
:101CE000E9FF09C0F3FF89EC2FF0046EF3CF05F094
:101CF00039D000C008F001C009F002C00AF008C0E5
:101D0000E9FF09C0F3FF0A50B3EC2FF0010B086E96
:101D100008C004F0056A26D000C008F001C009F030
:101D200002C00AF008C0E9FF09C0F3FF0A50B3EC93
:101D30002FF0E838E844010B086E08C004F0056A8B
:101D400011D00050050F086E000E0120096E000E24
:101D5000022008C0E9FF09C0F3FF89EC2FF0046EF0
:101D6000F3CF05F00550E56E0450E56EE56A0750C7
:101D7000E56EE56A0350E56E000EE56E360EE56E23
:101D80004E0EE56E27EC2BF0090EE12600C003F0A5
:101D900001C007F002C008F003C0E9FF07C0F3FF6D
:101DA0000850B3EC2FF0E840E840010B036E0350FD
:101DB000D8B449D1065021E00650010A01E146D0CD
:101DC0000650020A01E16BD00650030A01E190D0EF
:101DD0000650040A01E1A2D00650050A01E1C6D06E
:101DE0000650060A01E1D8D00650070A01E1EAD000
:101DF0000650640A01E10FD126D10050010F036E95
:101E0000000E0120066E000E0220076E37EC2EF049
:101E1000086A096EE56A09C0F4FF03C0E9FF06C05D
:101E2000F3FF075017EC30F037EC2EF00B6A082662
:101E30000B50092208C0E5FF09C0F4FF03C0E9FF09
:101E400006C0F3FF075017EC30F0FDD000500B0F29
:101E5000036E000E0120066E000E0220076E37ECA6
:101E60002EF00B6E0A6AE56A0BC0F4FF03C0E9FFAF
:101E700006C0F3FF075017EC30F037EC2EF0096A7C
:101E80000A2609500B220AC0E5FF0BC0F4FF03C06D
:101E9000E9FF06C0F3FF075017EC30F0D4D0005034
:101EA000110F036E000E0120066E000E0220076E59
:101EB00037EC2EF00B6E0A6AE56A0BC0F4FF03C024
:101EC000E9FF06C0F3FF075017EC30F037EC2EF0B7
:101ED000096A0A2609500B220AC0E5FF0BC0F4FF6D
:101EE00003C0E9FF06C0F3FF075017EC30F0ABD09A
:101EF0000050130F036E000E0120066E000E02202C
:101F0000076E37EC2EF0086E08C0E5FF03C0E9FF4E
:101F100006C0F3FF07502EEC30F095D00050140FA0
:101F2000036E000E0120066E000E0220076E37ECD5
:101F30002EF0086E08C0E5FF03C0E9FF06C0F3FFFE
:101F400007502EEC30F00050170F036E000E0120EA
:101F5000066E000E0220E56AF46AF66AF76A03C0AC
:101F6000E9FF06C0F3FFC4EC2FF06DD00050150F51
:101F7000036E000E0120066E000E0220076E37EC85
:101F80002EF0086E08C0E5FF03C0E9FF06C0F3FFAE
:101F900007502EEC30F057D00050160F036E000E95
:101FA0000120066E000E0220076E37EC2EF0086E40
:101FB00008C0E5FF03C0E9FF06C0F3FF07502EECA1
:101FC00030F041D000501D0F036E000E0120066E50
:101FD000000E0220076E37EC2EF00B6E0A6AE56ADF
:101FE0000BC0F4FF03C0E9FF06C0F3FF075017EC76
:101FF00030F037EC2EF0096A0A2609500B220AC08D
:10200000E5FF0BC0F4FF03C0E9FF06C0F3FF075074
:1020100017EC30F018D037EC2EF0056E046A37EC70
:102020002EF0066A0426065005220550E56E04507F
:10203000E56E0250E56E0150E56E0050E56E68EC0D
:1020400029F0050EE126E4CF0BF0E4CF0AF0E4CF4F
:1020500009F0E4CF08F0E4CF07F0E4CF06F0E4CFD6
:1020600005F0E4CF04F0E4CF03F0E4CF02F0E4CFD6
:1020700001F0E4CF00F0E4CFD9FF1200D9CFE5FFA3
:10208000E1CFD9FF00C0E5FF01C0E5FF02C0E5FFD9
:1020900003C0E5FF04C0E5FF05C0E5FF06C0E5FF9E
:1020A00007C0E5FF08C0E5FF09C0E5FF0AC0E5FF7E
:1020B0000BC0E5FF020EDBCF00F0030EDBCF01F01B
:1020C000040EDBCF02F0050EDBCF03F0060EDBCFF4
:1020D00004F002500A6E0150096E0050086EE56A65
:1020E000110EE56E0A50E56E0950E56E0850E56E7A
:1020F000800EE56E0A0EE56EA80EE56E9FEC23F0ED
:10210000080EE126B7CA05F0B8CA06F0E86A0A0167
:10211000B8BFFF0E076E0101336F0650326F0550D6
:10212000316F306B03C005F004C006F0E86A04BEEE
:10213000FF0E076E086EA8CA09F0E56AE56AE56A4F
:102140000950E56E0850E56E0750E56E0650E56EE5
:102150000550E56E2FEC19F001012C6FF3CF2DF136
:10216000F4CF2EF1E9CF2FF1080EE126A9CA09F02C
:102170000950D8B4ADD00450800F800F02E1010E99
:10218000035C25E30A01AE51800F7C0F08E1000ECD
:10219000AD5D05E1000EAC5D02E1000EAB5D17E246
:1021A0000A01B651800FF36E01013351800FF35CC9
:1021B0000DE132510A01B55D09E1010131510A0118
:1021C000B45D04E1010130510A01B35D33E3D8800D
:1021D00004AED890D8A043D00A01AE51800F840F2E
:1021E00008E1000EAD5D05E1000EAC5D02E1010EFF
:1021F000AB5D35E30101331D0B6E321D0A6E311DDF
:10220000046E301D036E032A04E1042A02E10A4A27
:102210000B2A0B50800FF36E0A01B651800FF35C4E
:1022200008E1B5510A5C05E1B451045C02E1B35127
:10223000035C15E205500A01AB25036E0650AC2184
:10224000046E0750AD210A6E0850AE210B6E03508C
:10225000AB6F0450AC6F0A50AD6F0B50AE6F0A01FC
:10226000AB390F0B036EAC39046EF00B041A032666
:10227000AD51E838F00B0412AD390F0B0A6EAE39D0
:102280000B6EF00B0B1A0A26F00E0BB60B26E56A46
:10229000E56AE56A0950E56E0B50E56E0A50E56E99
:1022A0000450E56E0350E56E2FEC19F0036EF3CF8A
:1022B00004F0F4CF09F0E9CF0AF0080EE12603504C
:1022C00001012C2704502D2309502E230A502F23BF
:1022D000AACA03F00350D8B46BD00A01AF51055C11
:1022E0000101346F0A01B05106580101356F0A012E
:1022F000B15107580101366F0A01B2510858010166
:10230000376F800F800F08E1010E365D05E1000E8A
:10231000355D02E1000E345D07E3FF0E0101346F0D
:10232000356F366B376B14D001013751800F810F39
:1023300008E1FF0E365D05E1000E355D02E1000E9D
:10234000345D06E20101346B356BFF0E366F376F7B
:102350000101373136310B6E0A6A0A323551E840D5
:102360007F0B0A1235313431096E046A0432E56A92
:10237000E56AE56A0350E56E0B50E56E0A50E56EBE
:102380000950E56E0450E56E2FEC19F0036EF3CFA3
:1023900004F0F4CF09F0E9CF0AF0080EE12603506B
:1023A00001012C2704502D2309502E230A502F23DE
:1023B00005500A01AF6F0650B06F0750B16F08505B
:1023C000B26F01013351800FF36E01012F51800F65
:1023D000F35C0DE12E510101325D09E101012D5146
:1023E0000101315D04E101012C510101305D11E277
:1023F000010130510A01B36F010131510A01B46F7B
:10240000010132510A01B56F010133510A01B66F62
:102410003AD00101331D066E321D056E311D046E6A
:10242000301D036E032A04E1042A02E1054A062A4C
:1024300001012F51800FF36E0650800FF35C08E10D
:1024400005502E5D05E104502D5D02E103502C5D29
:102450000AE203500A01B36F0450B46F0550B56F20
:102460000650B66F10D001012C510A01B36F010163
:102470002D510A01B46F01012E510A01B56F0101FE
:102480002F510A01B66FE56A110EE56E800EE56EFA
:102490000A0EE56EA80EE56E0250E56E0150E56E7F
:1024A0000050E56E9FEC23F0080EE126E4CF0BF020
:1024B000E4CF0AF0E4CF09F0E4CF08F0E4CF07F06E
:1024C000E4CF06F0E4CF05F0E4CF04F0E4CF03F06E
:1024D000E4CF02F0E4CF01F0E4CF00F0E4CFD9FF85
:1024E000120000C0E5FF01C0E5FF02C0E5FF03C028
:1024F000E5FF04C0E5FF05C0E5FF06C0E5FF07C036
:10250000E5FF08C0E5FF09C0E5FF0AC0E5FF0BC015
:10251000E5FF0CC0E5FF0DC0E5FF0EC0E5FFF2CF03
:102520000EF0F29E10C101F011C102F012C103F0D1
:1025300013C104F00101106B116B126B136B14C10A
:1025400005F015C106F016C107F017C108F001012A
:102550002051096E21510A6E0EBEF28EE4CF0EF0AC
:102560000A01FE51095C006EFF510A580B6E09C04A
:10257000FEFA0AC0FFFA00500B10D8A44AD00DECA6
:102580002EF0096EF3CF0AF0F4CF0CF0E9CF0DF086
:102590000550095C056E06500A58066E07500C5827
:1025A000076E08500D58086E089E0A01BE5115E1CD
:1025B0000750096E08500A6E0C6A0D6A000E0D5C19
:1025C00008E1000E0C5C05E1000E0A5C02E1410E20
:1025D000095C03E3010E0A01BE6F0A01BE512BE143
:1025E00001010751085C08E10651075C05E105514E
:1025F000065C02E10451055C08E204C105F005C176
:1026000006F006C107F007C108F0010E006E0B6A64
:1026100012D00A01BE6B01C005F002C006F003C073
:1026200007F004C008F001C004F102C005F103C0C6
:1026300006F104C007F10850E56E0750E56E06503C
:10264000E56E0550E56EE56A400EE56E000EE56A42
:10265000E56A13EC23F0016EF3CF02F0F4CF03F040
:10266000E9CF04F0080EE126E86A0BBEFF0E096E02
:102670000A6E0450E56E0350E56E0250E56E01509F
:10268000E56E0A50E56E0950E56E0B50E56E0050A0
:10269000E56E2FEC19F0006EF3CF01F0F4CF02F0ED
:1026A000E9CF03F0080EE12600500101006F015050
:1026B000016F0250026F0350036F00C118F101C196
:1026C00019F102C11AF103C11BF1055001011C6F80
:1026D00006501D6F07501E6F08501F6F01015851A3
:1026E000010A02E1595101E04AD05AC100F05BC130
:1026F00001F0E86A01015BBFFF0E026E036E01018B
:102700000051005E0151015A0251025A0351035A0D
:102710000350800F800F08E1000E025C05E1800E7F
:10272000015C02E1000E005C04E300687F0E016EB4
:1027300010D00350800F810F08E1FF0E025C05E10D
:10274000800E015C02E1000E005C03E2006A800E74
:10275000016E0150E56E0050E56E800EE56E0F0EC5
:10276000E56E250EE56E3EEC10F0050EE1260F013C
:102770003151006E3251016E3351036A04D036CFAD
:1027800000F037CF01F0D88001AED89002E3006AA4
:10279000016A0150800F7C0F02E1000E005C03E330
:1027A0000068030E016E0150800F840F02E1010EDC
:1027B000005C04E2010E006EFC0E016E0A0100A135
:1027C00007D0011C036E001C026E024A032A04D0CB
:1027D00000C002F001C003F002C000F003C001F02D
:1027E000D88001AED890026A0236025007E000504D
:1027F000FF0F036E030E0120046E04D000C003F02F
:1028000001C004F00350020BE840010BE838E84433
:10281000F46E6650DF0BF410666E0350010B010B73
:10282000E838F46E6650EF0BF410666E0434043230
:1028300003320434043203320350676E025002E064
:102840008A8801D08A98E4CF0DF0E4CF0CF0E4CF71
:102850000BF0E4CF0AF0E4CF09F0E4CF08F0E4CFC6
:1028600007F0E4CF06F0E4CF05F0E4CF04F0E4CFC6
:1028700003F0E4CF02F0E4CF01F0E4CF00F0120067
:102880004320733220256C6420256C6420256C6401
:102890000A00430025630000D9CFE5FFE1CFD9FF4F
:1028A00000C0E5FF01C0E5FF02C0E5FF03C0E5FF92
:1028B00004C0E5FF05C0E5FF06C0E5FF07C0E5FF72
:1028C00008C0E5FF09C0E5FF020EDBCF00F0030EF4
:1028D000DBCF01F0040EDBCF02F0050EDBCF03F0FF
:1028E000046A056A37EC2EF0066EFE0A01E083D01A
:1028F00037EC2EF0076E040E075CD8B068D00CC021
:10290000E5FF0DC0E5FF0D6A07340D36E8340D36DE
:10291000FC0B0C6E000EFB6E290EFA6E340E0C26AC
:102920000D50FA22D8B0FB2A0C50E4CF0DF0E4CFC2
:102930000CF0F96EA2EF14F0AEEF14F0C1EF14F04A
:10294000D4EF14F000C0E9FF01C0F3FF0250B3EC74
:102950002FF0086E08C004F0056A39D00050010F4E
:10296000086E000E0120096E000E022008C0E9FF6B
:1029700009C0F3FFB3EC2FF0086E08C004F0056A3D
:1029800026D00050020F086E000E0120096E000EC6
:10299000022008C0E9FF09C0F3FFB3EC2FF0086E76
:1029A00008C004F0056A13D000500F0F086E000E27
:1029B0000120096E000E022008C0E9FF09C0F3FFE4
:1029C00089EC2FF0F3CF09F0046E0950056E055025
:1029D000E56E0450E56EE56A0750E56EE56A035062
:1029E000E56E000EE56E410EE56E9E0EE56E27EC7F
:1029F0002BF0090EE126040E065CD8B095D00CC071
:102A0000E5FF0DC0E5FF0D6A06340D36E8340D36DE
:102A1000FC0B0C6E000EFB6E2A0EFA6E340E0C26AA
:102A20000D50FA22D8B0FB2A0C50E4CF0DF0E4CFC1
:102A30000CF0F96E22EF15F02FEF15F05AEF15F0AC
:102A400070EF15F037EC2EF0036E03C0E5FF00C009
:102A5000E9FF01C0F3FF02502EEC30F065D00050CA
:102A6000010F036E000E0120046E000E0220056EA1
:102A700037EC2EF0066E06C0E5FF03C0E9FF04C088
:102A8000F3FF05502EEC30F00650D8A44DD0005086
:102A9000030F036E000E0120046E000E0220E56A93
:102AA000F46AF66AF76A03C0E9FF04C0F3FFC4ECF6
:102AB0002FF03AD00050020F036E000E0120046E7A
:102AC000000E0220056E37EC2EF0066E06C0E5FF04
:102AD00003C0E9FF04C0F3FF05502EEC30F024D012
:102AE0000F0E0026000E0122022237EC2EF0066E99
:102AF000056AE56A06C0F4FF00C0E9FF01C0F3FF04
:102B0000025017EC30F037EC2EF0046A0526045022
:102B1000062205C0E5FF06C0F4FF00C0E9FF01C0C2
:102B2000F3FF025017EC30F0E4CF09F0E4CF08F0E7
:102B3000E4CF07F0E4CF06F0E4CF05F0E4CF04F0F3
:102B4000E4CF03F0E4CF02F0E4CF01F0E4CF00F0F3
:102B5000E4CFD9FF1200D9CFE5FFE1CFD9FF00C004
:102B6000E5FF01C0E5FF02C0E5FF03C0E5FF04C0CB
:102B7000E5FF05C0E5FF06C0E5FF07C0E5FF08C0AB
:102B8000E5FF09C0E5FF0AC0E5FF0BC0E5FF020E47
:102B9000DBCF00F0030EDBCF01F0040EDBCF02F041
:102BA000050EDBCF03F0046A056A37EC2EF0066EE3
:102BB000FE0A01E063D037EC2EF0076E07500AE002
:102BC0000750010A19E00750020A28E007500A0AD4
:102BD00037E040D00050060F086E000E0120096E4D
:102BE000000E022008C0E9FF09C0F3FF89EC2FF0B6
:102BF000046EF3CF05F02ED000500C0F086E000EBF
:102C00000120096E000E022008C0E9FF09C0F3FF91
:102C100089EC2FF0046EF3CF05F01CD000500E0F9E
:102C2000086E000E0120096E000E022008C0E9FFA8
:102C300009C0F3FF89EC2FF0046EF3CF05F00AD042
:102C400000C0E9FF01C0F3FF025089EC2FF0046ED1
:102C5000F3CF05F00550E56E0450E56EE56A0750C8
:102C6000E56EE56A0350E56E000EE56E590EE56E01
:102C7000220EE56E27EC2BF0090EE12606500CE043
:102C80000650010A32E00650020A01E157D0065010
:102C90000A0A01E17CD093D00050060F036E000EAB
:102CA0000120066E000E0220076E37EC2EF00B6E30
:102CB0000A6AE56A0BC0F4FF03C0E9FF06C0F3FF30
:102CC000075017EC30F037EC2EF0096A0A2609504D
:102CD0000B220AC0E5FF0BC0F4FF03C0E9FF06C0EA
:102CE000F3FF075017EC30F06AD000500C0F036E62
:102CF000000E0120066E000E0220076E37EC2EF04B
:102D00000B6E0A6AE56A0BC0F4FF03C0E9FF06C058
:102D1000F3FF075017EC30F037EC2EF0096A0A2663
:102D200009500B220AC0E5FF0BC0F4FF03C0E9FF06
:102D300006C0F3FF075017EC30F041D000500E0FE3
:102D4000036E000E0120066E000E0220076E37ECA7
:102D50002EF00B6E0A6AE56A0BC0F4FF03C0E9FFB0
:102D600006C0F3FF075017EC30F037EC2EF0096A7D
:102D70000A2609500B220AC0E5FF0BC0F4FF03C06E
:102D8000E9FF06C0F3FF075017EC30F018D037EC1E
:102D90002EF0056E046A37EC2EF0066A0426065003
:102DA00005220550E56E0450E56E0250E56E0150B7
:102DB000E56E0050E56E42EC2DF0050EE126E4CF05
:102DC0000BF0E4CF0AF0E4CF09F0E4CF08F0E4CF51
:102DD00007F0E4CF06F0E4CF05F0E4CF04F0E4CF51
:102DE00003F0E4CF02F0E4CF01F0E4CF00F0E4CF51
:102DF000D9FF1200E8CFE5FFD8CFE5FFE0CFE5FF30
:102E0000F3CFE5FFF4CFE5FFE9CFE5FFEACFE5FF3C
:102E1000FACFE5FFFBCFE5FF00C0E5FF01C0E5FF0E
:102E20009DA81ED09EA81CD001016C5101016919FA
:102E300005E10BEC30F00101696BECD06CC100F0E6
:102E400001016C2B016A4A0E00260A0E012200C005
:102E5000E9FF01C0EAFFEFCF65F165C1ADFFDAD050
:102E60009EAAD6D0ABA205D001016A810BEC30F04E
:102E7000D1D0ABA405D001016A830BEC30F0CAD0ED
:102E8000ABA03FD0AECF65F1800E0A01C3110101A6
:102E9000651904E101016A89AB96BCD00101655155
:102EA00004E065510A01C31928E101016A99AB9652
:102EB0000101655103E001016A9702D001016A87AF
:102EC00065C16EF167C16FF1010167050101706FA6
:102ED0006FC100F06F2B016A600E0026000E012208
:102EE00000C0E9FF01C0EAFF65C1EFFF01016F51BA
:102EF000800A02E101016F6B8DD001016A99AB86F6
:102F000089D0AECF65F101016AA919D0800E0A01FE
:102F1000C3110101651911E18B909D9AAB980101D4
:102F2000695104E1AD6A0BEC30F007D04ACAADFF3D
:102F3000010E01016C6F9D886DD0AB866BD00101D5
:102F4000655101016E2701016F51010170191BE1EB
:102F500001016E510CE16FC167F101016AB712D036
:102F60008B909D9AAB98AD6A0BEC30F00BD00101C1
:102F70006A856AB707D08B909D9AAB98010EAD6EAB
:102F80000BEC30F047D001016F510101681907E1E6
:102F9000010168510101671902E00BEC30F067C1D3
:102FA00000F0016A002AD8B0012AE56A800EE56EB9
:102FB0000150E56E0050E56E1EEC25F0006E040E2B
:102FC000E12600500101666F01016F190CE11F0E2F
:102FD000010165150101706F702B702B01016751A4
:102FE00001017027709F6FC100F001016F2B016A12
:102FF000600E0026000E012200C0E9FF01C0EAFFBA
:1030000065C1EFFF6F51800A02E101016F6B02D0D1
:1030100050EC30F0E4CF01F0E4CF00F0E4CFFBFF60
:10302000E4CFFAFFE4CFEAFFE4CFE9FFE4CFF4FF17
:10303000E4CFF3FFE4CFE0FFE4CFD8FFE4CFE8FF35
:103040001000D9CFE5FFE1CFD9FF00C0E5FF01C0F7
:10305000E5FF02C0E5FF03C0E5FF04C0E5FF05C0D2
:10306000E5FF06C0E5FF07C0E5FF08C0E5FF09C0B2
:10307000E5FF0AC0E5FF0BC0E5FF0CC0E5FF0DC092
:10308000E5FF020EDBCF00F0030EDBCF01F0040EF4
:10309000DBCF02F0050EDBCF03F0060EDBCF04F032
:1030A0000050050F056E000E0120066E000E022076
:1030B000076E0050030F086E000E0120096E000E0F
:1030C00002200A6E00501F0F0B6E000E01200C6EC6
:1030D000000E022003C0E5FF04C0F4FF0BC0E9FFAF
:1030E0000CC0F3FF17EC30F003C0E5FF04C0F4FFA1
:1030F00008C0E9FF09C0F3FF0A5017EC30F003C025
:10310000E5FF04C0F4FF05C0E9FF06C0F3FF075068
:1031100017EC30F00050070F056E000E0120066E10
:10312000000E0220076EE86A04BEFF0E086E04500F
:103130000C6E0C2608340D6ED8900C360D360344F8
:10314000E844FC0B0B6E0350E844E844030B0C12FC
:10315000E56A0BC0F4FF0CC0F6FF0DC0F7FF05C019
:10316000E9FF06C0F3FF0750C4EC2FF000500D0F2D
:10317000036E000E0120046E000E0220E56AF46A60
:10318000F66AF76A03C0E9FF04C0F3FFC4EC2FF04E
:103190000050170F036E000E0120046E000E022077
:1031A000E56AF46AF66AF76A03C0E9FF04C0F3FF50
:1031B000C4EC2FF000501B0F036E000E0120046EB4
:1031C000000E0220E56AF46A03C0E9FF04C0F3FFC1
:1031D00017EC30F000C003F001C004F002C005F0AD
:1031E00003C0E9FF04C0F3FF0550B3EC2FF0E892F1
:1031F000E56E03C0E9FF04C0F3FF05502EEC30F08C
:1032000000C0E9FF01C0F3FF0250B3EC2FF0E884E7
:10321000E56E00C0E9FF01C0F3FF02502EEC30F074
:10322000E4CF0DF0E4CF0CF0E4CF0BF0E4CF0AF0E4
:10323000E4CF09F0E4CF08F0E4CF07F0E4CF06F0E4
:10324000E4CF05F0E4CF04F0E4CF03F0E4CF02F0E4
:10325000E4CF01F0E4CF00F0E4CFD9FF1200D9CFE2
:10326000E5FFE1CFD9FF00C0E5FF01C0E5FF02C0E7
:10327000E5FF03C0E5FF04C0E5FF05C0E5FF06C0AC
:10328000E5FF07C0E5FF020EDBCF00F0030EDBCF4A
:1032900001F0040EDBCF02F0050EDBCF03F0060ECB
:1032A000DBCF04F0070EDBCF05F0080EDBCF06F016
:1032B000090EDBCF07F000500101386F0150396F64
:1032C00002503A6F03503B6F045001013C6F0550B0
:1032D0003D6F06503E6F07503F6F010138510101AD
:1032E0003E03F3CF00F0F4CF01F000500101426F34
:1032F0000150436F0101385101013C03F3CF00F04D
:10330000F4CF01F000500101406F0150416F010105
:103310003B5101013C03F3CF00F001014351002672
:103320000050436F01013A5101013D03F3CF00F01A
:103330000101435100260050436F01013A51010140
:103340003C03F3CF00F0F4CF01F00101425100261D
:10335000435101220050426F0150436F0101395126
:1033600001013D03F3CF00F0F4CF01F00101425120
:103370000026435101220050426F0150436F01016A
:10338000395101013E03F3CF00F000500101476FB6
:103390000101395101013C03F3CF00F0F4CF01F0FA
:1033A00000500101456F0150466F01013851010184
:1033B0003F03F3CF00F0005001014B6F0101385182
:1033C00001013D03F3CF00F0F4CF01F00050010103
:1033D000496F01504A6F0101446B0101486B0101C3
:1033E000445101014025006E010145510101412177
:1033F000016E0101465101014221026E0101475156
:1034000001014321036E0050406F0150416F025093
:10341000426F0350436F0101485101014025006E86
:103420000101495101014121016E01014A5101018E
:103430004221026E01014B5101014321036E03C081
:10344000E9FF02C0F4FF01C0F3FF0050E4CF07F032
:10345000E4CF06F0E4CF05F0E4CF04F0E4CF03F0CE
:10346000E4CF02F0E4CF01F0E4CF00F0E4CFD9FFE5
:103470001200D9CFE5FFE1CFD9FF00C0E5FF01C0C1
:10348000E5FF02C0E5FF03C0E5FF04C0E5FF05C09E
:10349000E5FF06C0E5FF07C0E5FF08C0E5FF09C07E
:1034A000E5FF0AC0E5FF0BC0E5FF020EDBCF00F031
:1034B000030EDBCF01F0040EDBCF02F0E56A00C0A3
:1034C000E9FF01C0F3FF02502EEC30F00050030F73
:1034D000036E000E0120046E000E0220056E0050E7
:1034E000050F066E000E0120076E000E0220E56A31
:1034F000F46A06C0E9FF07C0F3FF17EC30F0E56A95
:10350000F46A03C0E9FF04C0F3FF055017EC30F084
:103510000050070F036E000E0120046E000E022003
:10352000E56AF46AF66AF76A03C0E9FF04C0F3FFCC
:10353000C4EC2FF00050010F036E000E0120046E4A
:10354000000E0220E56AF46A03C0E9FF04C0F3FF3D
:1035500017EC30F000501D0F036E000E0120046EBA
:10356000000E0220E56AF46A03C0E9FF04C0F3FF1D
:1035700017EC30F00050170F036E000E0120046EA0
:10358000000E0220E56AF46AF66AF76A03C0E9FFF2
:1035900004C0F3FFC4EC2FF00050130F036E000EB5
:1035A0000120046E000E0220056E0050140F066EFE
:1035B000000E0120076E000E0220086E0050150F4D
:1035C000096E000E01200A6E000E02200B6E160E10
:1035D0000026000E01220222E56A00C0E9FF01C0B8
:1035E000F3FF02502EEC30F0E56A09C0E9FF0AC093
:1035F000F3FF0B502EEC30F0E56A06C0E9FF07C080
:10360000F3FF08502EEC30F0E56A03C0E9FF04C078
:10361000F3FF05502EEC30F0E4CF0BF0E4CF0AF0CE
:10362000E4CF09F0E4CF08F0E4CF07F0E4CF06F0F0
:10363000E4CF05F0E4CF04F0E4CF03F0E4CF02F0F0
:10364000E4CF01F0E4CF00F0E4CFD9FF1200432033
:1036500025642025642025640A0020EC2CF0899C38
:10366000899E899A89988A988A968A948A928A8A5F
:103670008A8093969398939A939493929390938C31
:1036800001015A6B5B6B0F01366B376B0101586B95
:10369000596B800EE56E0A0EE56E000EE56E39EC94
:1036A0001AF0030EE126800EE56E0F0EE56E250E74
:1036B000E56E3FEC20F0030EE1260101736B0DEC8B
:1036C0002FF00C0E0F01576F666EBA80BB68BA847C
:1036D000330ECD6E9D809F80B188B18AB182B1805A
:1036E000A082A28256EC2AF0949A200EE56E800EFB
:1036F000E56E0F0EE56E8B0EE56E000EE56AFEECD4
:1037000027F0050EE126BFCA61F10DEC2EF0006E28
:10371000F3CF01F0F4CF02F0E9CF03F000C004F0E2
:1037200001C005F002C006F003C007F068EC21F00C
:10373000FDEC25F00DEC2EF0086EF3CF09F0F4CF80
:103740000AF0E9CF0BF00050085E0150095A025010
:103750000A5A03500B5A0B9E000E0B5C08E1000E38
:103760000A5C05E1460E095C02E1510E085C0BE3C0
:103770004AEC30F00DEC2EF0006EF3CF01F0F4CFF8
:1037800002F0E9CF03F00DEC2EF0086EF3CF09F054
:10379000F4CF0AF0E9CF0BF00450085E0550095A47
:1037A00006500A5A07500B5A0B9E000E0B5C08E19C
:1037B000000E0A5C05E1130E095C02E1890E085C4B
:1037C000D8A0B4D70DEC2EF0046EF3CF05F0F4CFF3
:1037D00006F0E9CF07F071EC12F061C108F00101C9
:1037E00061070850D8A4A2D7BFCA61F10101622BBA
:1037F00001011F51E56E1E51E56E1D51E56E1C5114
:10380000E56E01011B51E56E1A51E56E1951E56E29
:103810001851E56E01012351E56E2251E56E2151EB
:10382000E56E2051E56E000EE56E280EE56E800E09
:10383000E56E27EC2BF00F0EE12678D7120000C0C2
:10384000E5FF01C0E5FF03C0E5FF37EC2EF0006E99
:10385000010A2BE00050020A2DE00050030A2FE07D
:103860000050040A01E13DD00050050A01E14AD0B0
:103870000050060A01E15AD00050140A01E17FD03D
:103880000050660A01E181D00050820A01E18AD02D
:103890000050830A01E193D00050840A01E1A0D0D6
:1038A0000050FF0A01E1ACD0B0D037EC2EF001019E
:1038B000626FABD037EC2EF00A01BF6FA6D037ECA9
:1038C0002EF00A01BC6F020EBC5DD8B09ED0BC5178
:1038D000010BE844E844F46E8A50FB0BF4108A6E46
:1038E00094D037EC2EF00A01BD6F020EBD5DD8B04A
:1038F0008CD0BD51010BE844F46E8A50FD0BF410DE
:103900008A6E83D037EC2EF00A01BA6BBB6F37ECAE
:103910002EF0016A0A01BA270150BB23BB51F80BF4
:10392000D8A473D0BA6B080EBB6F6FD037EC2EF0F3
:10393000006A016E37EC2EF0036A00260350012264
:103940000050020BE840010BE838E844F46E0F0128
:103950005751DF0BF410576F0050010B010BE83883
:10396000F46E5751EF0BF410576FD89001320032BC
:10397000D8900132003200500F01586F46D0140E1B
:10398000E56E6AEC26F0E12A40D0660EE56E800E08
:10399000E56E0A0EE56E000EE56E33EC0DF0040EDA
:1039A000E12633D0820EE56E800EE56E0F0EE56ED9
:1039B000250EE56E4CEC14F0040EE12626D037EC13
:1039C0002EF001015B6F5A6B37EC2EF0016A01019A
:1039D0005A2701505B23010E0101586F596B15D016
:1039E00037EC2EF00F01376F366B37EC2EF0016A93
:1039F0000F013627015037230101586B596B05D051
:103A0000010E0101736F0DEC2FF0E4CF03F0E4CF52
:103A100001F0E4CF00F01200D9CFE5FFE1CFD9FFEC
:103A200000C0E5FF01C0E5FF02C0E5FF03C0E5FF00
:103A300004C0E5FF05C0E5FF06C0E5FF07C0E5FFE0
:103A400008C0E5FF09C0E5FF0AC0E5FF0BC0E5FFC0
:103A50000CC0E5FF0DC0E5FF0EC0E5FF0FC0E5FFA0
:103A6000020EDBCF00F0030EDBCF01F0040EDBCF44
:103A700002F0050EDBCF03F0060EDBCF04F0070EDD
:103A8000DBCF05F0080EDBCF06F0200E076E086ACC
:103A900006C009F00A6A0B6A0C6AE56AE56AE56A1B
:103AA0000950E56E0350E56E0250E56E0150E56E7B
:103AB0000050E56ED5EC20F00D6E080EE126300EBC
:103AC0000D263A0E0D5C06E30D500E6E270E0E26E7
:103AD0000E500D6EFF0E0726D8A00806E00E072434
:103AE0000E6E000E08200F6E0EC0E9FF0FC0EAFF39
:103AF0000DC0EFFF0C50E56E0B50E56E0A50E56E01
:103B00000950E56E0350E56E0250E56E0150E56E1A
:103B10000050E56E13EC23F0006EF3CF01F0F4CF0C
:103B200002F0E9CF03F0080EE12600500110021068
:103B30000310D8A4ADD707C000F008C001F004C03E
:103B400002F005C003F000C004F001C005F0002A37
:103B5000D8B0012AE00E0426000E052204C0E9FFB9
:103B600005C0EAFFEFCF04F002C0E9FF03C0EAFF9F
:103B700004C0EFFF022AD8B0032A000E015C02E164
:103B8000200E005CE0E302C0E9FF03C0EAFF000E84
:103B9000EF6AE4CF0FF0E4CF0EF0E4CF0DF0E4CF06
:103BA0000CF0E4CF0BF0E4CF0AF0E4CF09F0E4CF5F
:103BB00008F0E4CF07F0E4CF06F0E4CF05F0E4CF5F
:103BC00004F0E4CF03F0E4CF02F0E4CF01F0E4CF5F
:103BD00000F0E4CFD9FF1200D9CFE5FFE1CFD9FF44
:103BE00000C0E5FF01C0E5FF02C0E5FF03C0E5FF3F
:103BF00004C0E5FF05C0E5FF06C0E5FF07C0E5FF1F
:103C000008C0E5FF09C0E5FF0AC0E5FF0BC0E5FFFE
:103C10000CC0E5FF0DC0E5FF020EDBCF00F0030E88
:103C2000DBCF01F0040EDBCF02F0050EDBCF03F09B
:103C3000060EDBCF04F0070EDBCF05F0080EDBCF5E
:103C400006F0090EDBCF07F0D88003AED890086AE3
:103C5000083608500FE0031C0C6E021C0B6E011C92
:103C60000A6E001C096E092A0DE10A2A0BE10B4AB3
:103C70000C2A08D000C009F001C00AF002C00BF005
:103C800003C00CF00950006E0A50016E0B50026E1A
:103C90000C50036ED88007AED890096A09360950D7
:103CA0000FE0071C0D6E061C0C6E051C0B6E041C31
:103CB0000A6E0A2A0DE10B2A0BE10C4A0D2A08D0E4
:103CC00004C00AF005C00BF006C00CF007C00DF0F0
:103CD0000D50E56E0C50E56E0B50E56E0A50E56E2A
:103CE0000350E56E0250E56E0150E56E0050E56E42
:103CF00013EC23F0006EF3CF01F0F4CF02F0E9CF24
:103D000003F0080EE1260950081A085016E0031CBB
:103D1000076E021C066E011C056E001C046E042A50
:103D200004E1052A02E1064A072A07C0E9FF06C0A6
:103D3000F4FF05C0F3FF045007D003C0E9FF02C041
:103D4000F4FF01C0F3FF0050E4CF0DF0E4CF0CF01E
:103D5000E4CF0BF0E4CF0AF0E4CF09F0E4CF08F0B1
:103D6000E4CF07F0E4CF06F0E4CF05F0E4CF04F0B1
:103D7000E4CF03F0E4CF02F0E4CF01F0E4CF00F0B1
:103D8000E4CFD9FF120000C0E5FF01C0E5FF02C08B
:103D9000E5FF03C0E5FF04C0E5FFACA2B1D0EEEC47
:103DA0002EF0006E005005E10A01C16B0A01C06BE4
:103DB000A7D0C1CA01F000500126EEEC2EF0026E31
:103DC00000060250230A1FE1010E005CD8A096D025
:103DD000EEEC2EF0026E690A03E120EC2CF08ED09E
:103DE0000250720A03E10BEC30F088D00250730AE3
:103DF00001E084D08B80AB869D8A9D98AE50AE50FA
:103E0000AB98AB887BD00250430A03E1010E036EEE
:103E100006D00250420A01E071D0036A02D0008E3F
:103E200002D0D890003200C06BF100500A014A6FF6
:103E3000010E01016C6F0A01C151011801E147D067
:103E4000EEEC2EF0026E035030E10250006ED00E08
:103E500000260050026E0A0E025C06E30250006E5D
:103E6000F90E00260050026E0A01C151011801E14D
:103E700045D0EEEC2EF0006E046ED00E04260450F9
:103E8000006E0A0E005C06E30050046EF90E042674
:103E90000450006E100E025C31E2100E005C2EE247
:103EA0000238F00B026E00500226025001016B270F
:103EB0004A0E01016C25006E046A0A0E042200C03D
:103EC000E9FF04C0EAFF02C0EFFF6C2BB4D74A0E33
:103ED00001016C25006E026A0A0E022201016B1DAF
:103EE000036E032A00C0E9FF02C0EAFF03C0EFFF30
:103EF00001016C2B6CC169F10101636B01C0C1FA56
:103F0000E4CF04F0E4CF03F0E4CF02F0E4CF01F01B
:103F1000E4CF00F01200D9CFE5FFE1CFD9FF00C018
:103F2000E5FF01C0E5FF02C0E5FF03C0E5FF04C0F7
:103F3000E5FF020EDBCF00F0030EDBCF01F0040E35
:103F4000DBCF02F00250E56E0150E56E0050E56EE9
:103F500067EC2BF0030EE1260050010F036E000EFC
:103F60000120046E000E0220E56E0450E56E035041
:103F7000E56EBAEC29F0030EE12600500B0F036E3C
:103F8000000E0120046E000E0220E56E0450E56E66
:103F90000350E56EBAEC29F0030EE1260050110F34
:103FA000036E000E0120046E000E0220E56E045028
:103FB000E56E0350E56EBAEC29F0030EE1260050E1
:103FC000130F036E000E0120046E000E0220E56E3A
:103FD0000450E56E0350E56E67EC2BF0030EE1260E
:103FE0000050140F036E000E0120046E000E02201C
:103FF000E56E0450E56E0350E56E67EC2BF0030EA2
:10400000E1260050150F036E000E0120046E000E15
:104010000220E56E0450E56E0350E56E67EC2BF070
:10402000030EE1260050160F036E000E0120046EF1
:10403000000E0220E56E0450E56E0350E56E67EC5D
:104040002BF0030EE1261D0E0026000E0122022297
:104050000250E56E0150E56E0050E56EBAEC29F0B5
:10406000030EE126E4CF04F0E4CF03F0E4CF02F046
:10407000E4CF01F0E4CF00F0E4CFD9FF1200D9CFB4
:10408000E5FFE1CFD9FF00C0E5FF01C0E5FF02C0B9
:10409000E5FF03C0E5FF04C0E5FF05C0E5FF06C07E
:1040A000E5FF07C0E5FF020EDBCF00F0030EDBCF1C
:1040B00001F0040EDBCF02F000500B0F036E000E78
:1040C0000120046E000E0220E56AF46AF66AF76ABF
:1040D00003C0E9FF04C0F3FFC4EC2FF00050070F4A
:1040E000036E000E0120046E000E0220056E0050CB
:1040F000030F066E000E0120076E000E0220E56A17
:10410000F46AF66AF76A06C0E9FF07C0F3FFC4EC79
:104110002FF0E56AF46AF66AF76A03C0E9FF04C0A3
:10412000F3FF0550C4EC2FF00050010F036E000E9A
:104130000120046E000E0220056E0050020F066E74
:10414000000E0120076E000E0220E56A06C0E9FF9E
:1041500007C0F3FF2EEC30F0E56A03C0E9FF04C0AE
:10416000F3FF05502EEC30F0E56A00C0E9FF01C016
:10417000F3FF02502EEC30F0E4CF07F0E4CF06F06E
:10418000E4CF05F0E4CF04F0E4CF03F0E4CF02F095
:10419000E4CF01F0E4CF00F0E4CFD9FF12004320D8
:1041A00025642025642025640A00D9CFE5FFE1CFEE
:1041B000D9FF00C0E5FF01C0E5FF02C0E5FF03C075
:1041C000E5FF04C0E5FF05C0E5FF06C0E5FF07C049
:1041D000E5FF08C0E5FF09C0E5FF0AC0E5FF020EE4
:1041E000DBCF00F0030EDBCF01F0040EDBCF02F0DB
:1041F000050EDBCF03F0060EDBCF04F0070EDBCF9E
:1042000005F0080EDBCF06F0090EDBCF07F0086AD9
:10421000096A0750800BE8440A6E0A501BE10450FB
:1042200004260536063607360750035C08E10650BB
:10423000025C05E10550015C02E10450005C06E20D
:10424000D890073206320532043204D0092A09C058
:1042500008F0DFD70750035C08E10650025C05E177
:104260000550015C02E10450005C08E30450005E6C
:104270000550015A0650025A0750035AD890073287
:1042800006320532043208C009F008060950E2E19E
:1042900003C0E9FF02C0F4FF01C0F3FF0050E4CF08
:1042A0000AF0E4CF09F0E4CF08F0E4CF07F0E4CF60
:1042B00006F0E4CF05F0E4CF04F0E4CF03F0E4CF60
:1042C00002F0E4CF01F0E4CF00F0E4CFD9FF120018
:1042D00000C0E5FF01C0E5FF02C0E5FF03C0E5FF48
:1042E00004C0E5FF010168510101671901E163D0D4
:1042F00068C100F0002A009E600E0024016E026A70
:10430000000E022201C0E9FF02C0EAFFEFCF72F106
:104310001F0E0101721768C171F1725101017127FD
:10432000712B712B719F37EC2EF0016E015003E160
:10433000016A012A01D0016A37EC2EF00101726F87
:10434000800E7215026E1F0E7215036E03C004F00C
:1043500003C072F1045003E167C168F13FD001501E
:1043600021E002501CE037EC2EF0006E01017207D4
:104370000050420A03E10BEC00F01BD000504E0A43
:1043800003E19FEC2AF015D00050460A03E123EC2C
:1043900030F00FD00050490A0CE1FF000AD00AECBF
:1043A00000F007D0025003E0ABEC2DF002D01FEC80
:1043B0001CF071C168F10A01C0510A01C11906E07F
:1043C0000101695103E1C3EC1EF008D08BB006D0A7
:1043D0000101695103E1ACB20BEC30F0E4CF04F021
:1043E000E4CF03F0E4CF02F0E4CF01F0E4CF00F03B
:1043F000120000C0E5FF01C0E5FF03C0E5FF04C0F7
:10440000E5FF05C0E5FF06C0E5FF07C0E5FF08C002
:10441000E5FF09C0E5FF0AC0E5FF0BC0E5FF5CC191
:1044200000F05DC101F001015C2B01E35D2B005048
:10443000E56ED4EC2FF0E12A076E046A056A066A7D
:104440005CC100F05DC101F001015C2B01E35D2B5B
:104450000050E56ED4EC2FF0E12A0B6A0A6E086A70
:104460000850041205120A5006120B5007125CC1C4
:1044700000F05DC101F001015C2B01E35D2B0050F8
:10448000E56ED4EC2FF0E12A036E006A03C001F060
:10449000E86A03BEFF0E086E096E00500412015058
:1044A000051208500612095007125CC100F05DC1E8
:1044B00001F001015C2B01E35D2B0050E56ED4ECB3
:1044C0002FF0E12A016A04120150051206120712A8
:1044D00007C0E9FF06C0F4FF05C0F3FF0450E4CFB6
:1044E0000BF0E4CF0AF0E4CF09F0E4CF08F0E4CF1A
:1044F00007F0E4CF06F0E4CF05F0E4CF04F0E4CF1A
:1045000003F0E4CF01F0E4CF00F01200D9CFE5FFD3
:10451000E1CFD9FF00C0E5FF01C0E5FF02C0E5FF24
:1045200003C0E5FF04C0E5FF05C0E5FF06C0E5FFE9
:1045300007C0E5FF08C0E5FF0BC0E5FF0CC0E5FFC5
:104540000DC0E5FF020EDBCF00F0030EDBCF01F064
:10455000040EDBCF02F0050EDBCF03F0060EDBCF3F
:1045600004F003C0E5FF04C0F4FF00C0E9FF01C090
:10457000F3FF025017EC30F00050020F056E000EF2
:104580000120066E000E0220076EE86A04BEFF0ED0
:10459000086E04500C6E0C2608340D6ED8900C3644
:1045A0000D360344E844FC0B0B6E0350E844E8442A
:1045B000030B0C12E56A0BC0F4FF0CC0F6FF0DC034
:1045C000F7FF05C0E9FF06C0F3FF0750C4EC2FF06A
:1045D000080E0026000E01220222E56AF46AF66A3D
:1045E000F76A00C0E9FF01C0F3FF0250C4EC2FF0EE
:1045F000E4CF0DF0E4CF0CF0E4CF0BF0E4CF08F003
:10460000E4CF07F0E4CF06F0E4CF05F0E4CF04F008
:10461000E4CF03F0E4CF02F0E4CF01F0E4CF00F008
:10462000E4CFD9FF1200D9CFE5FFE1CFD9FF00C019
:10463000E5FF01C0E5FF02C0E5FF03C0E5FF04C0E0
:10464000E5FF05C0E5FF06C0E5FF07C0E5FF08C0C0
:10465000E5FF09C0E5FF0AC0E5FF0BC0E5FF0CC0A0
:10466000E5FF0DC0E5FF020EDBCF00F0030EDBCF50
:1046700001F0040EDBCF02F0050EDBCF03F0060ED7
:10468000DBCF04F0070EDBCF05F0080EDBCF06F022
:10469000090EDBCF07F0086A096A0A6A0B6A200E66
:1046A0000C6E0350800BE8440D6E0050002601365E
:1046B000023603360850082609360A360B360D50E6
:1046C000D8A4088007500B5C08E106500A5C05E19D
:1046D0000550095C02E10450085C09E30450085EDF
:1046E0000550095A06500A5A07500B5A00800C2EE2
:1046F000D8D703C0E9FF02C0F4FF01C0F3FF0050A8
:10470000E4CF0DF0E4CF0CF0E4CF0BF0E4CF0AF0EF
:10471000E4CF09F0E4CF08F0E4CF07F0E4CF06F0EF
:10472000E4CF05F0E4CF04F0E4CF03F0E4CF02F0EF
:10473000E4CF01F0E4CF00F0E4CFD9FF1200D9CFED
:10474000E5FFE1CFD9FF00C0E5FF01C0E5FF02C0F2
:10475000E5FF03C0E5FF04C0E5FF05C0E5FF06C0B7
:10476000E5FF07C0E5FF08C0E5FF09C0E5FF0AC097
:10477000E5FF0BC0E5FF0CC0E5FF020EDBCF00F04C
:10478000030EDBCF01F0040EDBCF02F0050EDBCF12
:1047900003F0060EDBCF04F0070EDBCF05F0080EAA
:1047A000DBCF06F0090EDBCF07F002500A6E015096
:1047B000096E0050086E06C00BF007C00CF0FF0E2B
:1047C0000626D8A007060B500C101CE003C0E9FF1A
:1047D00004C0F3FF0550B3EC2FF00B6E032AD8B0E2
:1047E000042AD8B0052A0BC0E5FF08C0E9FF09C0BC
:1047F000F3FF0A502EEC30F0082AD8B0092AD8B0BE
:104800000A2AD9D702C0F4FF01C0F3FF0050E4CF59
:104810000CF0E4CF0BF0E4CF0AF0E4CF09F0E4CFE2
:1048200008F0E4CF07F0E4CF06F0E4CF05F0E4CFE2
:1048300004F0E4CF03F0E4CF02F0E4CF01F0E4CFE2
:1048400000F0E4CFD9FF1200D9CFE5FFE1CFD9FFC7
:1048500000C0E5FF01C0E5FF02C0E5FF03C0E5FFC2
:1048600004C0E5FF05C0E5FF06C0E5FF07C0E5FFA2
:10487000020EDBCF00F0030EDBCF01F0040EDBCF26
:1048800002F0050EDBCF03F002C006F00650046E06
:10489000800A28E100C0E9FF01C0F3FF025029ECC3
:1048A0002FF0056EF3CF06F0F4CF07F003C0E5FF5D
:1048B00005C0E9FF06C0F3FF07502EEC30F0052AD3
:1048C000D8B0062AD8B0072A05C0E5FF06C0F4FF15
:1048D00007C0F6FF00C0E9FF01C0F3FF0250F0EC93
:1048E0002FF01ED004AA1CD0200E041A045004E19C
:1048F000035006EC00F014D00450010A04E1035008
:1049000002EC00F00DD004500F0A04E103500BEC50
:104910002DF006D004500E0A03E103504DEC30F0A8
:10492000E4CF07F0E4CF06F0E4CF05F0E4CF04F0E5
:10493000E4CF03F0E4CF02F0E4CF01F0E4CF00F0E5
:10494000E4CFD9FF1200D9CFE5FFE1CFD9FF00C0F6
:10495000E5FF01C0E5FF02C0E5FF03C0E5FF04C0BD
:10496000E5FF05C0E5FF06C0E5FF07C0E5FF020E55
:10497000DBCF00F0030EDBCF01F0040EDBCF02F043
:10498000050EDBCF03F0C1CAC2FA0A01C0510A0109
:10499000C25FC20703C004F0056A030E0426D8B044
:1049A000052AC2CA06F0076A0750800FF36E055049
:1049B000800FF35C02E10450065C02E2E8682BD051
:1049C000020E035C02E2E86A26D003060350E56E9D
:1049D000E3EC2BF0E12A046A0350045C14E2045077
:1049E0000024056EE86A0120066EE86A022005C010
:1049F000E9FF06C0F3FFB3EC2FF0042AE56EE3EC09
:104A00002BF0E12AE9D7C1CAC2FA0A01C0510A0152
:104A1000C25FC207E86AE4CF07F0E4CF06F0E4CF54
:104A200005F0E4CF04F0E4CF03F0E4CF02F0E4CFEC
:104A300001F0E4CF00F0E4CFD9FF1200D9CFE5FFB9
:104A4000E1CFD9FF00C0E5FF01C0E5FF02C0E5FFEF
:104A500003C0E5FF04C0E5FF05C0E5FF06C0E5FFB4
:104A6000020EDBCF00F0030EDBCF01F0040EDBCF34
:104A700002F0050EDBCF03F0D88001AED890046AB7
:104A80000436045007E0011C066E001C056E054A42
:104A9000062A04D000C005F001C006F00550006EE3
:104AA0000650016ED88003AED89007E3031C066E53
:104AB000021C056E054A062A04D002C005F003C098
:104AC00006F00650E56E0550E56E0150E56E0050AB
:104AD000E56E5DEC28F0006EF3CF01F0040EE126E8
:104AE00004500AE0011C036E001C026E024A032AF5
:104AF00003C0F3FF025003D001C0F3FF0050E4CF26
:104B000006F0E4CF05F0E4CF04F0E4CF03F0E4CF07
:104B100002F0E4CF01F0E4CF00F0E4CFD9FF1200BF
:104B2000D9CFE5FFE1CFD9FF00C0E5FF01C0E5FF28
:104B300002C0E5FF03C0E5FF04C0E5FF05C0E5FFD7
:104B4000020EDBCF00F0030EDBCF01F0040EDBCF53
:104B500002F0050EDBCF03F05CC104F05DC105F08F
:104B600001015C2B01E35D2B0350E56E0450E56E03
:104B700061EC2EF0020EE1265CC104F05DC105F08F
:104B800001015C2B01E35D2B0250056EE56E0450C4
:104B9000E56E61EC2EF0020EE1265CC104F05DC111
:104BA00005F001015C2B01E35D2B0150056EE56E04
:104BB0000450E56E61EC2EF0020EE1265CC104F0BB
:104BC0005DC105F001015C2B01E35D2B0050E56E3A
:104BD0000450E56E61EC2EF0020EE126E4CF05F004
:104BE000E4CF04F0E4CF03F0E4CF02F0E4CF01F02F
:104BF000E4CF00F0E4CFD9FF120000C0E5FF01C010
:104C0000E5FF02C0E5FF03C0E5FF090E0A01C75D2D
:104C1000D8B057D00F014EB154D0D8900A01C73543
:104C2000006E016AD90E00260A0E012200C0E9FFBB
:104C300001C0EAFFEECF00F0EFCF01F0005001100D
:104C400002E1C72B3ED00A01C751030DF3CF02F09A
:104C5000036A900E02260A0E032202C0E9FF03C077
:104C6000EAFFEECF4CF1EECF4DF1EFCF4EF1F60E65
:104C7000C725026E036A0A0E032202C0E9FF03C0C1
:104C8000EAFFEFCF74F1001E011E01500F01506FBB
:104C900000500F014F6F7E9204C0E5FFF2CF04F089
:104CA000F29E01014C51E96E4D51EA6E01017451C1
:104CB000EF120F014E8104BEF28EE4CF04F00A0120
:104CC000C72BE4CF03F0E4CF02F0E4CF01F0E4CF50
:104CD00000F01200D9CFE5FFE1CFD9FF00C0E5FF1A
:104CE00001C0E5FF02C0E5FF03C0E5FF04C0E5FF2A
:104CF000020EDBCF00F037EC2EF0016EFE0A2CE145
:104D000037EC2EF0026E080E025CD8B041D0D8907D
:104D10000234036E046AD90E03260A0E042203C06D
:104D2000E9FF04C0EAFFEECF03F0EFCF04F0045038
:104D3000E56E0350E56EE56A0250E56EE56A0050E7
:104D4000E56E000EE56E550EE56E320EE56E27EC53
:104D50002BF0090EE1261CD0080E015C19E237EC9D
:104D60002EF0006A026E37EC2EF0046A0026045022
:104D70000222D8900136036AD90E01260A0E0322B8
:104D800001C0E9FF03C0EAFF00C0EEFF02C0EFFF71
:104D9000E4CF04F0E4CF03F0E4CF02F0E4CF01F07D
:104DA000E4CF00F0E4CFD9FF1200D9CFE5FFE1CF87
:104DB000D9FF00C0E5FF01C0E5FF02C0E5FF03C069
:104DC000E5FF04C0E5FF05C0E5FF06C0E5FF020EF4
:104DD000DBCF00F0030EDBCF01F0040EDBCF02F0DF
:104DE0000101735119E1F9EC21F0036EF3CF04F0E6
:104DF000F4CF05F0E9CF06F003C0E5FF04C0F4FFEF
:104E000005C0F6FF06C0F7FF00C0E9FF01C0F3FFD1
:104E10000250C4EC2FF01ED001017351010A1AE1B7
:104E200000C0E9FF01C0F3FF0250CEEC2EF0006E8F
:104E3000F3CF01F0F4CF02F0E9CF03F00350E56EB9
:104E40000250E56E0150E56E0050E56E90EC25F0E5
:104E5000040EE126E4CF06F0E4CF05F0E4CF04F041
:104E6000E4CF03F0E4CF02F0E4CF01F0E4CF00F0B0
:104E7000E4CFD9FF1200D9CFE5FFE1CFD9FF00C0C1
:104E8000E5FF01C0E5FF02C0E5FF03C0E5FF04C088
:104E9000E5FF05C0E5FF06C0E5FF020EDBCF00F031
:104EA000030EDBCF01F0040EDBCF02F0050EDBCFEB
:104EB00003F0060EDBCF04F0070EDBCF05F0080E83
:104EC000DBCF06F0D88003AED89016E306500A0A6E
:104ED00013E104C0E9FF05C0EAFF2D0EEF6E042ABE
:104EE000D8B0052A031E021E011E006C05E1012A2E
:104EF00003E1022AD8B4032A0650E56E0550E56E98
:104F00000450E56E0350E56E0250E56E0150E56E0B
:104F10000050E56E0CEC1DF0070EE126E4CF06F024
:104F2000E4CF05F0E4CF04F0E4CF03F0E4CF02F0E7
:104F3000E4CF01F0E4CF00F0E4CFD9FF1200D9CFE5
:104F4000E5FFE1CFD9FF00C0E5FF01C0E5FF02C0EA
:104F5000E5FF03C0E5FF04C0E5FF020EDBCF00F074
:104F6000030EDBCF01F0040EDBCF02F00250E56E42
:104F70000150E56E0050E56E67EC2BF0030EE12664
:104F80000050010F036E000E0120046E000E02207F
:104F9000E56E0450E56E0350E56E67EC2BF0030EF2
:104FA000E1260050020F036E000E0120046E000E79
:104FB0000220E56E0450E56E0350E56E67EC2BF0C1
:104FC000030EE1260F0E0026000E012202220250DF
:104FD000E56E0150E56E0050E56EBAEC29F0030E67
:104FE000E126E4CF04F0E4CF03F0E4CF02F0E4CF15
:104FF00001F0E4CF00F0E4CFD9FF1200D9CFE5FFF4
:10500000E1CFD9FF00C0E5FF01C0E5FF02C0E5FF29
:1050100003C0E5FF04C0E5FF05C0E5FF06C0E5FFEE
:10502000020EDBCF00F0030EDBCF01F0040EDBCF6E
:1050300002F0050EDBCF03F0060EDBCF04F00050CC
:10504000030DF3CF05F0066A900E05260A0E062220
:1050500005C0E9FF06C0EAFF01C0EEFF02C0EEFF97
:1050600003C0EFFFF60E0024016E026A0A0E022250
:1050700001C0E9FF02C0EAFF04C0EFFFD89000368C
:10508000016AD90E00260A0E012200C0E9FF01C004
:10509000EAFF000EEE6AEF6AE4CF06F0E4CF05F017
:1050A000E4CF04F0E4CF03F0E4CF02F0E4CF01F06A
:1050B000E4CF00F0E4CFD9FF1200D9CFE5FFE1CF74
:1050C000D9FF00C0E5FF01C0E5FF02C0E5FF03C056
:1050D000E5FF04C0E5FF05C0E5FF06C0E5FF020EE1
:1050E000DBCF00F0030EDBCF01F0040EDBCF02F0CC
:1050F000050EDBCF03F0046A056A0350800BE84419
:10510000066E065011E10250022603360350015C80
:1051100002E10250005C04E2D8900332023204D073
:10512000052A05C004F0E9D70350015C02E10250F2
:10513000005C04E30250005E0350015AD890033231
:10514000023204C005F004060550EEE101C0F3FF91
:105150000050E4CF06F0E4CF05F0E4CF04F0E4CF54
:1051600003F0E4CF02F0E4CF01F0E4CF00F0E4CFAD
:10517000D9FF120000C0E5FF006A81BC002A005080
:1051800001015F6F01015E1901E14AD05FC15EF16B
:1051900001015F51D8B444D024C10CF125C10DF1F7
:1051A00026C10EF127C10FF10101145101010C5D5F
:1051B0000101086F0101155101010D590101096F2C
:1051C0000101165101010E5901010A6F0101175128
:1051D00001010F5901010B6F085101011027010155
:1051E00009510101112301010A5101011223010199
:1051F0000B51010113230CC114F10DC115F10EC1A6
:1052000016F10FC117F10101202B01E3212B02E35D
:105210000101222B02E30101232B010E0A01B96FC8
:10522000E4CF00F01200D9CFE5FFE1CFD9FF00C0F5
:10523000E5FF01C0E5FF02C0E5FF03C0E5FF04C0D4
:10524000E5FF020EDBCF00F0030EDBCF01F0040E12
:10525000DBCF02F00050060F036E000E0120046E3B
:10526000000E0220E56E0450E56E0350E56EBAECC8
:1052700029F0030EE12600500C0F036E000E0120F2
:10528000046E000E0220E56E0450E56E0350E56EDC
:10529000BAEC29F0030EE1260E0E0026000E0122C4
:1052A00002220250E56E0150E56E0050E56EBAEC48
:1052B00029F0030EE126E4CF04F0E4CF03F0E4CFBD
:1052C00002F0E4CF01F0E4CF00F0E4CFD9FF120008
:1052D000D9CFE5FFE1CFD9FF00C0E5FF01C0E5FF71
:1052E00002C0E5FF03C0E5FF04C0E5FF05C0E5FF20
:1052F00006C0E5FF020EDBCF00F0030EDBCF01F0AE
:10530000040EDBCF02F0050EDBCF03F0060EDBCF81
:1053100004F00050050F056E000E0120066E000E11
:10532000022003C0E5FF04C0F4FF05C0E9FF06C08A
:10533000F3FF17EC30F0210E0026000E01220222AE
:10534000E56AF46A00C0E9FF01C0F3FF025017EC00
:1053500030F0E4CF06F0E4CF05F0E4CF04F0E4CF82
:1053600003F0E4CF02F0E4CF01F0E4CF00F0E4CFAB
:10537000D9FF1200D9CFE5FFE1CFD9FF00C0E5FF8B
:1053800001C0E5FF02C0E5FF03C0E5FF04C0E5FF83
:10539000020EDBCF00F0030EDBCF01F0040EDBCFFB
:1053A00002F00101735111E177EC2DF0036EF3CFA0
:1053B00004F003C0E5FF04C0F4FF00C0E9FF01C032
:1053C000F3FF025017EC30F016D001017351010ABF
:1053D00012E100C0E9FF01C0F3FF025089EC2FF099
:1053E000006EF3CF01F00150E56E0050E56EA6ECC3
:1053F0002BF0020EE126E4CF04F0E4CF03F0E4CF7B
:1054000002F0E4CF01F0E4CF00F0E4CFD9FF1200C6
:10541000800EF66E600EF76E000EF86E0900F55005
:10542000056E0900F550066E04E1056702D055EFE0
:105430002AF00900F550006E0900F550016E0900D0
:10544000F550026E09000900F550E96E0900F550AB
:10545000EA6E090009000900F550036E0900F550D5
:10546000046E09000900F6CF07F0F7CF08F0F8CF77
:1054700009F000C0F6FF01C0F7FF02C0F8FF0350BB
:1054800002E1045007E00900F550EE6E0306F8E271
:105490000406F9D707C0F6FF08C0F7FF09C0F8FFF8
:1054A000050601E2060614EF2AF0120000C0E5FF2F
:1054B00001C0E5FF02C0E5FF03C0E5FF04C0E5FF52
:1054C0000F014E6B0F014E894E837D827F82006AF1
:1054D000016A026A080E005C1FE2900E0124036E4E
:1054E000046A0A0E042203C0E9FF04C0EAFFEE6A60
:1054F000EE6AEF6AD90E0224036E046A0A0E0422D1
:1055000003C0E9FF04C0EAFFEE6AEF6A030E01265A
:10551000022A022A002ADED70A01C76BE4CF04F070
:10552000E4CF03F0E4CF02F0E4CF01F0E4CF00F0E9
:105530001200432025642025642025640A0000C051
:10554000E5FF01C0E5FF02C0E5FF37EC2EF0006E7D
:1055500037EC2EF0016E0050026ED00E0226025083
:10556000006E0A0E005C06E30050026EF90E022681
:105570000250006E0150026ED00E02260250016EE3
:105580000A0E015C06E30150026EF90E022602507B
:10559000016E080E005C12E2100E015CD8B00ED055
:1055A0000038F00B0124006E97EC2CF0016E0150D6
:1055B00005E10050E56E44EC2FF0E12AE4CF02F063
:1055C000E4CF01F0E4CF00F0120000C0E5FFE2EC10
:1055D0002FF09EA006D0BAEC28F0CF68EB0ECE6E6E
:1055E0009E90A1A231D0A1920101605103E1010E70
:1055F000606F02D00101606B020E0A01BC5D0AE31C
:1056000001016051010BE844E844F46E8A50FB0B41
:10561000F4108A6E020E0A01BD5D0FE301016051B4
:10562000D880E866D890006A00360050010BE84444
:10563000F46E8A50FD0BF4108A6E0A01BB51FF080C
:10564000B36EBA51FF08B26EE4CF00F01200D9CFAA
:10565000E5FFE1CFD9FF00C0E5FF01C0E5FF02C0D3
:10566000E5FF020ED924006E000EDA20016E800ED6
:10567000026E030E0026000E012202220250E56E89
:105680000150E56E0050E56E040EDBCFE5FF030E22
:10569000DBCFE5FF020EDBCFE5FF01015151E56EE7
:1056A0005051E56E4F51E56E13EC05F0006EF3CFEF
:1056B00001F0090EE12601C0F3FF0050E4CF02F033
:1056C000E4CF01F0E4CF00F0E4CFD9FF1200D9CF4E
:1056D000E5FFE1CFD9FF00C0E5FF01C0E5FF02C053
:1056E000E5FF03C0E5FF020EDBCF00F0030EDBCFCA
:1056F00001F0040EDBCF02F0010173510DE173ECF8
:105700002FF0036E03C0E5FF00C0E9FF01C0F3FF07
:1057100002502EEC30F00FD001017351010A0BE161
:1057200000C0E9FF01C0F3FF0250B3EC2FF0E56EBB
:1057300088EC2EF0E12AE4CF03F0E4CF02F0E4CFCE
:1057400001F0E4CF00F0E4CFD9FF1200D9CFE5FF9C
:10575000E1CFD9FF00C0E5FF01C0E5FF02C0E5FFD2
:1057600003C0E5FF020EDBCF00F0030EDBCF01F03C
:105770005CC102F05DC103F001015C2B01E35D2B14
:105780000150E56E0250E56E61EC2EF0020EE1264E
:105790005CC102F05DC103F001015C2B01E35D2BF4
:1057A0000050E56E0250E56E61EC2EF0020EE1262F
:1057B000E4CF03F0E4CF02F0E4CF01F0E4CF00F057
:1057C000E4CFD9FF1200D9CFE5FFE1CFD9FF00C068
:1057D000E5FF01C0E5FF02C0E5FF03C0E5FF04C02F
:1057E000E5FF020EDBCF00F0C0CA01F0026A012A19
:1057F000D8B0022AC1CA03F0046A0150031803E1B9
:105800000250041801E001D00ED0000E0A01C0259C
:10581000016E026A070E022201C0E9FF02C0EAFF20
:1058200000C0EFFFC02BE4CF04F0E4CF03F0E4CFDF
:1058300002F0E4CF01F0E4CF00F0E4CFD9FF120092
:1058400047EC30F00A01C06B0A01C16B0A01C26962
:105850008B809490B06A3F0EAF6EB886AC8AAC84F1
:10586000AC8CAC90AB8CAB8ED58ED59CD59AD588B4
:10587000D596D594D582D580F28AF18401016A6BE0
:105880000101646B0101676B0101686B0101696BC8
:10589000000EE56AD4EC2FF00A01C36FE12AD08E26
:1058A0009F989F9A01014F6B506B2F0E516F0BEC1D
:1058B00030F0F28EF28C1200D9CFE5FFE1CFD9FFA4
:1058C00000C0E5FF01C0E5FF02C0E5FF020EDBCF2F
:1058D00000F0030EDBCF01F0040EDBCF02F0E56A2F
:1058E000F46A00C0E9FF01C0F3FF025017EC30F08A
:1058F000020E0026000E01220222E56AF46AF66A10
:10590000F76A00C0E9FF01C0F3FF0250C4EC2FF0BA
:10591000E4CF02F0E4CF01F0E4CF00F0E4CFD9FF10
:105920001200432025642025642025640A0000C05D
:10593000E5FF01C0E5FF02C0E5FF010E006E37EC98
:105940002EF0016E01C002F0015023E00050E56E20
:10595000D4EC2FF0016EE12A015010E10A0E005C38
:105960000BE20A0E006EE56ED4EC2FF0016EE12A18
:10597000015004E1E8680ED0E8680CD0015002182C
:1059800002E0E86807D0002A1B0E005CD8E3E86854
:1059900001D0E86AE4CF02F0E4CF01F0E4CF00F0F8
:1059A0001200F3CFE5FFF4CFE5FFE9CFE5FFEACF43
:1059B000E5FFFACFE5FFFBCFE5FF0A01C451010186
:1059C000266F0A01C5510101276FD650246FD750A9
:1059D000256FF2A411D00A01C42B01E3C52BF29468
:1059E0000A01C4510101266F0A01C5510101276F47
:1059F000D650246FD750256FE5EC2AF0E4CFFBFF9B
:105A0000E4CFFAFFE4CFEAFFE4CFE9FFE4CFF4FF0D
:105A1000E4CFF3FF110000C0E5FF01C0E5FF02C0C5
:105A2000E5FF03C0E5FF006E6D0E0A01C625016E9D
:105A3000026A0A0E02220050036E01C0E9FF02C092
:105A4000EAFF03C0EFFF220EC65D01E2C62B005045
:105A50000A0A0FE10A01C651E56E800EE56E0A0ED4
:105A6000E56E6D0EE56EA3EC24F0040EE1260A014E
:105A7000C66BE4CF03F0E4CF02F0E4CF01F0E4CF53
:105A800000F01200D9CFE5FFE1CFD9FF00C0E5FF5C
:105A900001C0E5FF02C0E5FF03C0E5FF04C0E5FF6C
:105AA000020EDBCF00F0030EDBCF01F0040EDBCFE4
:105AB00002F0050EDBCF03F0060EDBCF04F003C0CF
:105AC000E5FF04C0F4FF00C0E9FF01C0F3FF02508E
:105AD00017EC30F0E4CF04F0E4CF03F0E4CF02F0B1
